:020000040800F2
:10000000008000204D330008913300089133000830
:10001000913300089133000891330008000000007C
:100020000000000000000000000000009133000804
:10003000913300080000000091330008913300085C
:100040009133000891330008913300089133000880
:100050009133000891330008CD1D0008913300084A
:100060009133000891330008913300089133000860
:100070009133000891330008913300089133000850
:100080009133000891330008913300089133000840
:100090009133000891330008913300089133000830
:1000A00000000000913300089133000891330008EC
:1000B0009133000891330008913300089133000810
:1000C0009133000891330008913300089133000800
:1000D0009133000891330008AD0C000891330008FB
:1000E00091330008913300089133000891330008E0
:1000F000810B0008000000009133000891330008D4
:100100000000000000000000913300089133000857
:10011000913300089133000891330008000000007B
:100120009133000800000000000000000000000003
:0C01300000000000000000005FF808F173
:10014000104B10B41968104A41F480711960996815
:100150000E480A409A601A68002422F0885222F061
:1001600001121A601A684FF0006122F480221A60AE
:100170009A6822F47D029A60DC6081605DF8044B2D
:10018000704700BF003802400CC0FF8800ED00E05F
:100190001C4B10B49B6803F00C030C2B16D8DFE843
:1001A00003F01515151507151515071515151F005D
:1001B000154A1648134B16499B685DF8044BC3F368
:1001C000031303441B7BDA400A6070470D4B4FF466
:1001D00000425B680D48C3F3423301339A40E9E7BC
:1001E000084B0A489A680849C2F38342845C9A68BB
:1001F00001FB04F1C2F381520132B1FBF2F29B68C0
:10020000D8E700BF0038024000127A00F03500083D
:1002100000000020000000002DE9F04F431E83B0D5
:100220008246002400E0013413F8010F2028A0F1D9
:100230000902F8D0012AF6D92B2800F09F802D283A
:1002400000F0A480644B0022CDE90023A0F130032C
:10025000092B4FF000064FF0000700F2B480DFF8E2
:1002600088810AEB040B2625002D05F1FF35A0F14E
:100270003000C5F14B0904F101040DDB02F04EF929
:10028000D8E9002302F0B0F902460B463046394661
:1002900001F0F8FF06460F461BF8010FA8F1080809
:1002A000A0F13003092BDFD92E2808BF01341AF83A
:1002B00004300AEB040BA3F13000C2B2092A1FD8A4
:1002C000464B03EBC508002D04F1010405F1FF3591
:1002D0000DDB02F023F9D8E9002302F085F902468C
:1002E0000B463046394601F0CDFF06460F461BF857
:1002F000013FA8F10808A3F13000C2B2092AE2D9EF
:1003000003F0DF03452B18D0B9F14B0F0FDC334B53
:10031000304603EBC9093946D9E9002302F064F9F4
:10032000DDE9002302F060F903B0BDE8F08FB9F118
:100330004C0F33D000202A49F2E7631C1AF803203F
:100340002B2A35D02D2A38D00121A2F130000928DE
:10035000DAD89A44002303EB830302EB43031AF831
:10036000012F303BA2F130000928F4D903FB019999
:10037000B9F1000FC8DA00200021D1E7164B013493
:1003800000221AF80400CDE900235FE7154B013481
:1003900000221AF80400CDE9002357E70CA3D3E9A3
:1003A00000233046394602F091FB0028AFD1C1E767
:1003B000A31C1AF803200121C7E7A31C1AF8032085
:1003C0004FF0FF31C1E74FF0250926256CE700BF4C
:1003D000000000A0FB38FB3F0000F03F183600088B
:1003E0000000F07F0000F0BF48370008AFF3008046
:1003F0002DE9F04F87B0109F119E04468846009269
:1004000033EA230528BF062538463146002200235B
:1004100002F05CFB002840F0128138463146002291
:10042000002302F049FB00283ED1DFF88C923846C9
:10043000D9E90023314602F049FB002800F0218170
:100440004FF04C0B0EE079E90223384631460BF1B0
:10045000FF3B02F03BFB002800F0BE80BBF1000F29
:1004600000F0FF80B8F1660FEDD1BBF1260FEADC9A
:10047000ABF1260AABF125094D44009AAB1C93421F
:10048000C0F2E380152300931225BBF1000F00F0AA
:10049000BA80854B4FF0010903EBCB0C03934FF06F
:1004A0006508DCE900231EE04FF001094FF0000A67
:1004B0004FF0260BB8F1670FDED0B8F1660FDBD036
:1004C0000135122DA8BF1225B8F1650F00F0D580B7
:1004D000754BC5F1270203EBCB0C4FF001090393D9
:1004E0000092DCE900233846314602F0A7F9039B6D
:1004F000009A064603EBC20B0F46DBE9000100221F
:100500006A4B02F071F80B4602463946304601F05C
:10051000B9FE04AA02F03EFFDDE9042306460F46B9
:10052000104619460022624BCDE9000102F0E2FAC2
:1005300050B1DDE900013123237000225C4B01F052
:100540009FFECDE904010134002D1BDD4FF0000BAF
:10055000CB45DDE904010BF1010B00F0A18002F0B5
:10056000DDFA30302070394630460022504B02F020
:100570003BF804AA02F00EFFAB4504F10104064665
:100580000F46E5D1B8F1660F21D06523BAF1000F0F
:10059000237004F10201B4BF2D232B2363700C469A
:1005A000444BB8BFCAF1000A83FB0A034FEAEA7260
:1005B000C2EBA303C3EB4312C3EB82020AF1300A7E
:1005C0000AEB420A303304F8023B81F801A0002311
:1005D000237007B0BDE8F08FB8F1670FABF1260AC2
:1005E000ABF125097FF469AFB9F1060F7FF744AF8E
:1005F0000135122DA8BF1225C5F127030093BBF1C9
:10060000000F7FF446AF284B3846D3E900890393A7
:10061000314642464B4602F059FA38B33846314625
:100620000022234B01F0E0FF6FF0260A42464B46C2
:1006300007460E464FF001094FF0650853E72D239A
:10064000237006F100460134E7E6174BC5F1270297
:1006500003EBCB0C039300924FF06608DCE9002318
:1006600041E76FF024096FF0250A23E742464B4625
:100670004FF065084FF0010935E7C5F127030093F6
:1006800003E7B8F1670F06D04FF027094FF0260AAD
:100690004FF04C0B11E74FF0260A4FF04C0BA7E739
:1006A0002E23237001345AE7183600080000E03F7B
:1006B0000000244067666666783800080C4B1946CF
:1006C0001A6A42F400721A621A6842F001021A6051
:1006D0000B68074A9B07FBD54FF080739360536804
:1006E00023F460435360536843F4004353607047FE
:1006F00000380240064B4FF080729A605A6822F42C
:1007000060425A605A6842F400425A60704700BF23
:1007100000380240104B114A1946586A40F0805088
:100720005862106840F48070106012685A6B42F48E
:1007300080725A634B6B084A9B05FBD5536B074984
:1007400043F480335363536B43F4800353630B6868
:1007500023F480730B607047003802400070004043
:10076000064B1A46196A41F400711962196841F082
:100770000101196013689B07FCD5704700380240DF
:10078000024A136823F001031360704700380240E7
:100790000A494B68094ADB06FBD41146136843F447
:1007A000C05313604B6813F01003FBD1044A054992
:1007B00053609360D3608B60704700BF007000404F
:1007C000002004E000000140094B01225A611A6830
:1007D00022F001021A605A6842F001025A609A68D7
:1007E00022F001029A60DA6842F00102DA60704792
:1007F0000004014008B50E4B1A6822F002021A608C
:100800001A6842F001021A605A6822F001025A6026
:100810001A6842F00C021A6000F000F9FFF7D4FFEA
:10082000044A136943F00403136120BF08BD00BFED
:100830000070004000ED00E0094B01225A611A6887
:1008400022F001021A605A6822F001025A609A6886
:1008500022F001029A60DA6822F00102DA60704741
:100860000004014008B5FFF7E7FF074A136923F0CA
:1008700004031361FFF774FF00F0F2F8BDE80840CD
:100880000A2000F0F1B900BF00ED00E0024A136851
:1008900043F400731360704700700040024A13680D
:1008A00023F400731360704700700040044B1A6813
:1008B00042F001021A601A6842F480421A607047DE
:1008C00000700040044B1A6822F480421A601A68D3
:1008D00022F001021A6070470070004006494B6820
:1008E000054AD806FBD41146136843F4C05313607D
:1008F0004B68DB06FCD47047007000402DE9F04FD8
:100900004FF0000E83460F46F446F046F14672461D
:1009100085B000200021CDE900010297CDF80CB090
:100920000299029B31F8020B4FEA820BC0F3C3100D
:100930001B78C0B2ABF120060291CBF1200100FA86
:1009400006F520FA01F103F0030A00FA0BF40D4357
:10095000C3F38100C3F34111C3F300135600934066
:1009600001320AFA06F7B040DDE900ABB1404AEACD
:10097000040A4BEA050B102ACDE900AB49EA070946
:1009800048EA00084EEA010E4CEA030CC8D1DDF833
:100990000CB0DDE90001CBF82000CBF82410CBF837
:1009A0000090CBF80880CBF80CE0CBF804C005B081
:1009B000BDE8F08F144A70B5D369144C144D43F060
:1009C0000703D36120462946124EFFF797FF05F132
:1009D00020011148FFF792FF05F140013046FFF773
:1009E0008DFF4FF080604FF000714FF400424FF4E4
:1009F0000053A061A161A261B36101F0A5FABDE855
:100A0000704001F0AFBA00BF003802400000024061
:100A100080380008000802400004024010B50B4C6A
:100A20000B4804F16001FFF769FF04F180010948F8
:100A3000FFF764FF04F1A0010748FFF75FFF04F12F
:100A4000C0010648BDE8104058E700BF80380008E4
:100A5000000002400004024000080240001402406E
:100A600010B50749074801F12004FFF747FF214669
:100A70000548FFF743FF2146BDE8104003483DE726
:100A800080380008000002400004024000080240D4
:100A9000024B4FF400729A61704700BF00000240A1
:100AA000024B4FF000729A61704700BF0000024095
:100AB000044B5A6992054CBF4FF000724FF400721C
:100AC0009A6170470000024010B5054C4FF4007366
:100AD000A36100F0C9F84FF00073A36110BD00BF1F
:100AE00000000240024B4FF480629A61704700BFE1
:100AF00000000240024B4FF080629A61704700BFD5
:100B000000000240044B5A6952054CBF4FF080620E
:100B10004FF480629A6170470000024010B5054CA6
:100B20004FF48063A36100F09FF84FF08063A361EE
:100B300010BD00BF00000240034B4FF000429A611D
:100B4000052000F091B800BF00000240024B4FF4B6
:100B500000429A61704700BF00000240034B4FF013
:100B600000529A61052000F07FB800BF00080240E3
:100B7000024B4FF400529A61704700BF00080240D8
:100B8000114A124B002111611A780132D2B2092A9E
:100B90001A705A7805D901200244D2B219705A70DD
:100BA00098700A2ADA7806D00A2A03D10121002295
:100BB0005971DA70704701200244D2B20021DA7014
:100BC00018715970F0E700BF0014004010000020B9
:100BD000F0B540F219471A494FF080434A6A65243C
:100BE00042F0390264204A629C62D8629A6900200D
:100BF00042F4D0429A611A6A124D42F010021A620F
:100C000098635A69104C42F001025A611E68DFF87D
:100C10003CE00122A1F5093146F001064FF4805C69
:100C20001E60A8626A612A60A062626122608862B6
:100C3000CF624A61CA600A60CEF804C0F0BD00BF4E
:100C400000380240000C00400010004000E100E0CD
:100C5000044B1A465B6A184480B2536A1B1A1B0481
:100C6000FBD470470010004010B409494FF6FF74E0
:100C700007E04B6A03F206439BB24A6AD21A120497
:100C8000FBD4013880B2A042F3D15DF8044B704729
:100C900000100040642800D970474FF080439863EB
:100CA0000146014800F06ABC60390008194A10B4D6
:100CB0001368990606D51849546848680A68121AD4
:100CC0007F2A17DD1B0612D5134BD3F88820D3F8E3
:100CD0008C10914216D0D3F888200E4802F07F0184
:100CE000194491F890100132C3F8882041605DF8F2
:100CF000044B70470A6802F07F0008440132047216
:100D00000A60DFE7034A5DF8044BD36823F08003F1
:100D1000D360704700440040180000204FF47A036D
:100D2000B3FBF0F0F0B44AF22C07084C084B626AAF
:100D3000084D0021402642F40032C0086262596129
:100D400019619860DF606E60F0BC70470038024047
:100D50000044004000E100E00A2810B5044616D027
:100D60000D48D0F88C20D0F888300B49D31A7F2B4F
:100D7000F9DC02F07F030B44084883F89040C36815
:100D8000013243F08003C1F88C20C36010BD0D20F8
:100D9000FFF7E2FFE4E700BF180000200044004036
:100DA000044AD2F88C10D2F888308B42FBD1002054
:100DB000704700BF1800002010B5044600780134C9
:100DC00028B1FFF7C9FF14F8010B0028F9D110BDB5
:100DD000074A11685368994206D003F07F01114415
:100DE0000133087A536070474FF0FF30704700BFFF
:100DF000180000200F49104B4A6A10B442F4001248
:100E00004A621A68022442F400421A601A683220C8
:100E100022F400421A601A680A2122F001021A60C4
:100E20005C60D86119621A685DF8044B42F00102F7
:100E30001A607047003802400054004008B5C820CE
:100E4000FFF712FFBDE80840FFF7D4BF144B70B4A2
:100E50001D461C6844F480741C606B69104CDE07EE
:100E6000FBD5254620616B690D489C07FBD583693E
:100E7000A2B106464C1E551E002103688D42CCBF10
:100E800043F4806323F48063036043695B06FCD50D
:100E900033690131914204F8013FEED170BC7047D3
:100EA00000540040724B2DE9F0411A68714E42F433
:100EB00080721A605A6900243480D40705460F46B0
:100EC00000F1B38001229846328005E033885A1C35
:100ED000642B328000F293806420FFF7B9FED8F8CB
:100EE0001400634B10F00104F0D000221D61328029
:100EF0005A69900700F1938001233380DFF87081F5
:100F000005E033885A1C642B328000F28280642012
:100F1000FFF79EFED8F8140010F00204F1D0544BF5
:100F2000002299691F6132805A69110600F1878099
:100F3000012333804E4F04E033885A1C642B3280E7
:100F400069D86420FFF784FE786910F08004F3D03C
:100F5000474B00211A6842F480721A605A69318046
:100F6000D20774D401233380414F04E033885A1CE4
:100F7000642B328051D86420FFF76AFE7C6914F03C
:100F80000104F3D03A4B45F0010500221D61328087
:100F90005A69970762D401233380354D04E03388C2
:100FA0005A1C642B328046D86420FFF751FE6B69CF
:100FB00013F00204F3D02E4B00219A691A6822F430
:100FC00080621A605B6931805D060FD40123338033
:100FD000274D04E033885A1C642B32802DD86420BE
:100FE000FFF736FE686910F04004F3D0204B1C690F
:100FF0001A68E0B242F400721A60BDE8F081012084
:10100000FFF78CFD1C49012000F0D2FA2046BDE814
:10101000F0810220F4E70420F2E70820F0E79A6963
:101020001F615B69180683D592E718615B699C07AD
:101030007FF562AF73E71020E2E72020E0E71A684F
:1010400042F480721A605B69D9078BD59AE745F044
:1010500001051D615B699A079DD5ACE79A691A681D
:1010600022F480621A605B695B06AFD5BEE700BF01
:10107000005400402801002070390008134B30B4A0
:101080001D461C6844F480741C606B690F4CDB07C0
:10109000FBD5254620616B690C489B07FBD583690E
:1010A00042B10A4411F8013B036143691C06FCD5B7
:1010B0009142F7D105494B69044A5B07FBD5136898
:1010C00030BC43F400731360704700BF005400400D
:1010D0002DE9F041484D494C2B68002643F48073BC
:1010E0002B606B699046DA0726800F46064678D457
:1010F0000123238004E023885A1C642B228065D8B6
:101100003220FFF7A5FD6B693B4ADB07F3D50023CF
:1011100016612380536998075DD401232380364DDF
:1011200004E023885A1C642B22804FD83220FFF71A
:101130008FFD6B699907F4D52F4B002299691F61C8
:1011400022805A69120651D4012323802A4D04E0DB
:1011500023885A1C642B228038D83220FFF778FD70
:101160006B691B06F4D5244B0022C3F81080228043
:101170005A69170611D4012323801F4D04E02388E8
:101180005A1C642B228021D83220FFF761FD6B6945
:101190001E06F4D50022184B22805B695D070ED431
:1011A00001232380144D04E023885A1C642B2280E1
:1011B0000CD83220FFF74CFD6B695807F4D50E4A66
:1011C000136843F400731360BDE8F0810C48BDE878
:1011D000F04100F0D3B99369176153691A06B3D58A
:1011E000C1E728616B69990797D5A5E7C3F8108017
:1011F0005B691B06BFD5CDE70054004028010020E5
:101200009839000810B5114C1148216800F0B6F962
:101210006168104800F0B2F921690F4800F0AEF99A
:1012200061690E4800F0AAF9A1690D4800F0A6F91D
:10123000E1690C4800F0A2F9216A0B4800F09EF920
:10124000BDE81040094800F099B900BF00540040C3
:10125000B4390008CC390008E4390008FC3900082A
:10126000143A00082C3A0008443A0008C43B00082D
:101270000EB400B582B003AB53F8041B1A460193B9
:1012800000F006F802B05DF804EB03B0704700BF51
:101290002DE9F04F8946934604468DB0039099F8A6
:1012A000003009F1010253B1252B0ED09146237075
:1012B00099F80030013409F10102002BF4D12370B8
:1012C000039BE01A0DB0BDE8F08F99F80130302B88
:1012D00018BF4FF0000E05D112F8013F302BFBD0A4
:1012E0004FF0010EA3F13001C8B209284FF00006FB
:1012F0000AD812F8013F06EB860601EB4606A3F179
:101300003001C8B20928F4D92E2B32D011784FF011
:10131000FF3501F0FB03682B04BF51780132A1F1C6
:10132000580302F10109202B00F2FD80DFE813F0E1
:10133000EA00FB00FB00FB00FB00FB00FB00FB00E6
:10134000FB00FB00FB0092003600D400D400D40068
:10135000FB00BC00FB00FB00FB00FB00FB00FB00F4
:10136000AD00FB00FB009E00FB003600FB00FB0015
:10137000EA0051780025A1F13000C3B2092B02F137
:101380000102C6D812F8011F05EB850500EB4505E3
:10139000A1F13000C3B2092BF4D9BAE70BF1040371
:1013A00064299A464FF00A00DBF8003000F0B48060
:1013B000DFF8BC8100228DF82F20002B00F0CA80BE
:1013C000DFF8B0C10DF12F07B3FBF0F200FB1233D1
:1013D0001CF80310134607F8011D002AF4D16B1CFA
:1013E00000F0A480D3466FF00041384602F0C8F800
:1013F00002464046AD1A029202F094F8029A25EA9B
:10140000E57598F80030301AA918401A2BB104F885
:10141000013B18F8013F002BF9D1002D00F093801B
:101420002544302304F8013BAC42FBD1002A08DDFF
:101430006B1EBC1817F8011BA74203F8011FF9D156
:10144000154400287DDD2C18202305F8013BA5421A
:10145000FAD124E7DBF800300CAF012107F8203D7A
:101460000BF1040B0025DFF80881BEE76A1C0BF1C5
:101470000403DBF8007019BF29469B469B466FF0BA
:1014800000410025DFF8E880AFE70022DBF80030FC
:101490008DF82F200BF104029246002B5DD0DFF86F
:1014A000D080102008258BE7DBF800300BF1040C0E
:1014B000C3F307411A0E8DE8060004A8DAB22B49DF
:1014C000C3F30723E34607460025FFF7D1FEDFF805
:1014D000A0806FF0004188E70BF1070C2CF0070C9F
:1014E000DCE900AB2B46CDE900AB04A820220CF1CF
:1014F000080B07460025FEF77BFFDFF874806FF0CE
:10150000004172E70BF1040364299A464FF0100082
:10151000DBF800307FF44CAF002BBFF649AF5B42E5
:10152000DFF8548046E721700134B8E6BEF1000FC1
:101530000BD0404601F0F6FFD346351A6FF000415C
:1015400053E72C46ABE6254670E7D3466FF00041E3
:1015500001254AE70DF12F0741E793466FF000415F
:1015600008250DF12F07DFF808803EE7603A0008F4
:10157000C43C00086C3A00085C3A00080FB410B58F
:1015800082B004AB53F8041B084C1A462046019362
:10159000FFF77EFE2046FFF70FFC204601F0C2FF5A
:1015A00002B0BDE8104004B0704700BF2C0100201D
:1015B000A0B10EB400B582B004AB1A460399094835
:1015C0000193FFF765FE0748FFF7F6FB054801F0BA
:1015D000A9FF02B05DF804EB03B070474FF0FF3095
:1015E000704700BF2C02002000232DE9F04F8146F8
:1015F0000F4698468BB0464E00930DF126050DF12F
:10160000060423464FF6FF7223F8022FAB42FBD1AC
:10161000102F61D8002367B109EB030212F80810FC
:10162000581C0AAA02EB4302C3B2BB4222F8201C98
:10163000F2D3012301939DF8001036480901FFF70A
:101640009DFF0DF1060A4FF0000B0AE0FFF796FF31
:101650000BF1010355455FFA83FB14D0BBF1080F72
:1016600051D03AF8021F2C480FFA81FEBEF1FF3F1D
:10167000C9B2EBD12948FFF781FF0BF101035545B2
:101680005FFA83FBEAD12648FFF778FF03E0FFF714
:1016900075FFAC4210D034F8021F2248C9B22A2983
:1016A00016D033680B445B7813F0970FEFD11E48C8
:1016B000FFF764FFAC42EED1009B1C48013300935E
:1016C000FFF75CFF019B002B99D00BB0BDE8F08FBA
:1016D0001748FFF753FFDCE708F1FF3308F10F006D
:1016E0000DF106024B44484413F8011F834222F8CF
:1016F000021FF9D1103F08F110080023BFB21FFAF2
:1017000088F8019397E70B48FFF738FFA9E700BF78
:101710000C000020803A00088C3A0008943A000837
:10172000983A00089C3A0008A03A0008C43B000818
:101730005C3A0008883A00080148FFF71FBF00BF65
:10174000A43A00080148FFF719BF00BFA83A0008F3
:1017500030B403782D2B18D0002211460125825C6D
:10176000A2F13004092C15D80144002303EB8303B4
:1017700002EB430311F8012F303BA2F13004092C96
:10178000F4D903FB05F030BC7047012211464FF03D
:10179000FF35E4E70020F6E730B403782D2B18D0AE
:1017A000002211460125825CA2F13004092C15D8D3
:1017B0000144002303EB830302EB430311F8012FE1
:1017C000303BA2F13004092CF4D903FB05F030BC06
:1017D0007047012211464FF0FF35E4E70020F6E79D
:1017E00030B10378202B03D110F8013F202BFBD020
:1017F000704700BF10B32DE9F041002588462F4601
:101800000E1F03780446202B03D114F8013F202B30
:10181000FBD05BB12046202101F01EFE48B10770CD
:10182000013005F1010546F8044FEAD12846BDE82C
:10183000F08148F82540681CBDE8F081704700BF82
:1018400008B50748FFF79AFE0648FFF797FE0648D7
:10185000FFF794FEBDE808400448FFF78FBE00BFC5
:10186000AC3A0008E83A0008243B0008443B000872
:1018700070B50C680D4606462D49204601F04AFC1D
:1018800008B9022E2ED020462A4901F043FC28B385
:101890002046294901F03EFCE0B12046274901F0ED
:1018A00039FC98B12046264901F034FC50B120465D
:1018B000244901F02FFC00B170BD2348BDE8704001
:1018C000FFF75CBEFFF7BCFF2C68F0E700F04AFBB7
:1018D0002C68E7E700F094FC2C68DEE700F0D4FB0E
:1018E0002C68D5E76B681A782D2A1AD00146012694
:1018F0001A5CA2F13000092818D81944002303EB20
:10190000830302EB430311F8012F303BA2F13004B3
:10191000092CF4D906FB03F0C0B2FFF7BBF92C6821
:10192000B1E7012001464FF0FF36E1E70020F4E780
:10193000703B0008743B00087C3B0008843B0008B7
:10194000883B0008903B0008983B000800B18FE7F7
:10195000704700BF0148FFF711BE00BF983B000869
:1019600038B5FFF735FA002816DB0A281CD00D28F9
:101970001AD0082811D07F280FD0184B1B680344B9
:101980005B7813F0970F07D0154A1378190603D424
:10199000144C591CE054117038BD114A1378002BB7
:1019A000FAD0013B137038BD0F48FFF7E7FD0C4B31
:1019B0000C4C1D78002220460C4962551A70FFF726
:1019C00019FF0B4A106020B9BDE838400948FFF7FD
:1019D000D5BD0649FFF74CFFF6E700BF0C0000201D
:1019E0008004002084040020C43B0008540400202C
:1019F0007C040020A43A00080B4A70B4D4690B4B55
:101A00000B4D44F08074D46100264FF42A64D269EF
:101A10001E609D60D86059601C601A6870BC42F0FE
:101A200001021A60704700BF00380240086002409F
:101A300058240140024A136843F0010313607047C1
:101A4000086002400549064A0B6823F001030B6059
:101A5000D36923F08073D361704700BF08600240F0
:101A60000038024010B5104C1048FFF787FD216880
:101A70000F48FFF783FD61680E48FFF77FFD0E48B2
:101A8000FFF77CFDA1680D48FFF778FDE1680C4881
:101A9000FFF774FD21690B48FFF770FD61690A4883
:101AA000BDE81040FFF76ABD00600240C83B000877
:101AB000E43B0008FC3B0008143C0008343C0008F0
:101AC0004C3C0008643C00087C3C0008024610B511
:101AD0000B4C3220A36843F00103A3602264FFF79C
:101AE000C3F82146A36843F08043A3600B68044A0F
:101AF0009B07FBD5936823F001039360906D10BDA5
:101B00000024014038B5102400251120FFF7DEFF26
:101B1000013C0544F9D1280938BD00BF1248F8B589
:101B2000016A124BDFF858E0114F124E124D00229D
:101B300041F400714FF4003C11240162CEF804C05E
:101B4000DF601E615D611A635A639A63DA631C6425
:101B50005A609A609A6842F480629A60FFF7D2FFF6
:101B6000064B1860F8BD00BF003802400024014059
:101B7000922449129224493ABA24491204050020B9
:101B80000027014038B5FEF7D7FF1320FFF79EFF6F
:101B900001F0A2F80446FEF7D9FF174B1A783ABBBA
:101BA000164D1749286801F0EFF8214600F0E4FFD0
:101BB0004FF0785101F0E8F80446124B2C60188879
:101BC00001F08EF8104901F0DFF8214601F0DCF851
:101BD000014600F0D1FF0D4B0446186801F07CF877
:101BE0000B4901F0D1F80146204601F081F938BDDA
:101BF00000221A70014DE0E704000020B00200202E
:101C00000000E040F800F81F0000404004050020FC
:101C100000F07F4508B5FFF7B5FF014B586008BDE0
:101C2000B002002038B5FEF799FF0120FFF74EFF04
:101C300001F052F80446FEF79BFF174B5A783ABB67
:101C4000164D1749A86801F09FF8214600F094FF4F
:101C50004FF0785101F098F80446124BAC601888A8
:101C600001F03EF8104901F08FF8214601F08CF8A0
:101C7000014600F081FF0D4B0446186801F02CF876
:101C80000B4901F081F80146204601F031F938BDD9
:101C900000225A70014DE0E704000020B00200204D
:101CA0000000E040F800F81F00004040040500205C
:101CB00000F07F4508B5054B0549586801F020FA4A
:101CC0004FF0010300B90346D8B208BDB0020020AE
:101CD0006666464008B5064B4FF08141586801F0F2
:101CE00005FA4FF0010300B90346D8B208BD00BFA2
:101CF000B0020020D0B5094C82B0E06800F020FCB2
:101D0000064660680F4600F01BFC3246CDE9000134
:101D10003B460348FFF732FC02B0D0BDB0020020C2
:101D2000943C000810B51B4C1B48FFF727FC2168AA
:101D30001A48FFF723FC61681948FFF71FFCA168E8
:101D40001848FFF71BFCE1681748FFF717FC2169EB
:101D50001648FFF713FC61691548FFF70FFC216B6C
:101D60001448FFF70BFC616B1348FFF707FCA16BEE
:101D70001248FFF703FCE16B1148FFF7FFFB216CF2
:101D80001048FFF7FBFBA16D0F48BDE81040FFF7BF
:101D9000F5BB00BF00240140B03C0008C83C00086F
:101DA000DC3C0008F03C0008043D0008183D000839
:101DB0002C3D0008403D0008543D0008683D0008E7
:101DC0007C3D0008903D0008A43D00080E4A01211A
:101DD0000E4B10B551611B690D4C9B050D492068D8
:101DE0000DD400F0C7FE2060084C4FF08073A36153
:101DF0006420FEF72DFF4FF48073A36110BD00F047
:101E0000BBFE2060F0E700BF000401400004024078
:101E1000C4020020A2ACFB3C024B4FF480129A613A
:101E2000704700BF0004024038B5164C2378DBB180
:101E3000154901F140052A460B4643F8040F934229
:101E4000FBD1002349682370104C002301E054F8B3
:101E5000041F184600F090FEAC420346F7D14FF045
:101E6000765100F091FF38BD094D2B46A5F13C019C
:101E700053F8042D8B425A60FAD1034B0146586047
:101E8000E2E700BF06000020C4020020C8020020D4
:101E90000403002038B5174C6378F3B1164B03F1F7
:101EA00040052A4643F8040F9342FBD1134A00230E
:101EB000516C6370124C002301E054F8041F184663
:101EC00000F05AFEAC420346F7D10E4900F05CFF29
:101ED0004FF0765100F058FF38BD0B4D2B46A5F161
:101EE0003C0153F8042D8B425A60FAD1034B014652
:101EF0005864DFE70600002004030020C40200202D
:101F00000803002000007A444403002038B5094B40
:101F1000094C1868FFF788FF084D2168286000F019
:101F200029FE074B1860FFF7B5FF2A68054B2260B2
:101F3000186038BDC40200200C05002014050020E4
:101F40000805002010050020014B10229A617047FF
:101F500000040240024B4FF480129A61704700BFA8
:101F60000004024010B5054C4FF08073A36164205B
:101F7000FEF76EFE4FF48073A36110BD00040240B3
:101F800030B50E4B85B0186800F0DAFA0C4B0446F9
:101F900018680D4600F0D4FACDE90001094B0A4952
:101FA000186800F0F1FE00F0CBFA2246CDE90201FC
:101FB0002B460648FFF7E2FA05B030BD14050020B5
:101FC000100500200805002000007A44B83D0008F4
:101FD0000F4B70B5A3F1FC06344653F8042DA34211
:101FE0005A60FAD101460A4D0023306001E054F8EE
:101FF000041F184600F0C0FDAC420346F7D1054966
:1020000000F0C2FE4FF0725100F0BEFE70BD00BF86
:102010004404002000007A440146C820FEF742BF75
:1020200038B50446C8202146FEF73CFF611C054632
:10203000C9B2C820FEF736FF40EA052080B238BD9D
:1020400003460A46C8201946FFF742B838B5044689
:102050000D46C82021462A0AFFF73AF8611CEAB269
:10206000C9B2C820BDE83840FFF732B808B5C8206B
:1020700001212A22FFF72CF8BDE80840022047F68C
:10208000FF71FFF7E3BF00BF10B501210222C82096
:10209000FFF71EF8074C0A20FEF7E6FD2023A36198
:1020A0000A20FEF7E1FD0520FEF738FD4FF400138E
:1020B000A36110BD00040240F8B5FFF7FBFD18BB9B
:1020C0003C4BA3F1FC052C4653F8042DA3425A6067
:1020D000FAD10022374E114613462A6001E054F827
:1020E000041F184600F048FDB4420346F7D13249B8
:1020F00000F04AFE4FF0725100F046FE2F4B0122D5
:102100001A70C5F80401F8BD0220FFF789FF00F03E
:10211000E7FD2B4900F038FE2A4900F0E9FE2A4D80
:10212000C5F80001FFF7D6FD70BB244BD5F8007150
:102130001A78002A39D1D5F80811384600F01AFD6E
:1021400001461C4BA3F1FC0453F8042DA3425A6032
:10215000FAD1184E0023296001E054F8041F1846F4
:1021600000F00AFDB4420346F7D1134900F00CFE1B
:102170004FF0725100F008FE0F4900F005FEC5F85F
:102180000871C5F80401F8BDFFF77EFF0220FFF7D4
:1021900047FF00F0A5FD0A4900F0F6FD094900F0EF
:1021A000A7FE0746054BC5F80001002239461A7004
:1021B000C3E700BF4404002000007A440800002068
:1021C00000106F450024744948030020D0B50A4C24
:1021D00082B0D4F8000100F0B3F90646D4F8040147
:1021E0000F4600F0ADF93246CDE900013B46034809
:1021F000FFF7C4F902B0D0BD48030020E03D00085D
:1022000008B50021C820FEF74DFE01461048FFF733
:10221000B5F90121C820FEF745FE01460D48FFF73C
:10222000ADF90220FFF7FCFE01460B48FFF7A6F9C7
:102230000420FFF7F5FE01460848FFF79FF9062046
:10224000FFF7EEFEBDE8084001460548FFF796B9E6
:10225000FC3D0008243E00084C3E0008743E000887
:102260009C3E0008C83F000800000020100000202D
:10227000100000201805002081F0004102E000BF9E
:1022800083F0004330B54FEA41044FEA430594EA36
:10229000050F08BF90EA020F1FBF54EA000C55EA71
:1022A000020C7FEA645C7FEA655C00F0E2804FEA42
:1022B0005454D4EB5555B8BF6D420CDD2C4480EA24
:1022C000020281EA030382EA000083EA010180EA54
:1022D000020281EA0303362D88BF30BD11F0004FA2
:1022E0004FEA01314FF4801C4CEA113102D04042D8
:1022F00061EB410113F0004F4FEA03334CEA133313
:1023000002D0524263EB430394EA050F00F0A7802A
:10231000A4F10104D5F1200E0DDB02FA0EFC22FA25
:1023200005F2801841F1000103FA0EF2801843FA19
:1023300005F359410EE0A5F120050EF1200E012A0A
:1023400003FA0EFC28BF4CF0020C43FA05F3C01848
:1023500051EBE37101F0004507D54FF0000EDCF1C1
:10236000000C7EEB00006EEB0101B1F5801F1BD36A
:10237000B1F5001F0CD349085FEA30004FEA3C0C6E
:1023800004F101044FEA445212F5800F80F09A8064
:10239000BCF1004F08BF5FEA500C50F1000041EB68
:1023A000045141EA050130BD5FEA4C0C404141EB6C
:1023B000010111F4801FA4F10104E9D191F0000F93
:1023C00004BF01460020B1FA81F308BF2033A3F116
:1023D0000B03B3F120020CDA0C3208DD02F1140C0D
:1023E000C2F10C0201FA0CF021FA02F10CE002F148
:1023F0001402D8BFC2F1200C01FA02F120FA0CFC41
:10240000DCBF41EA0C019040E41AA2BF01EB045189
:10241000294330BD6FEA04041F3C1CDA0C340EDC87
:1024200004F11404C4F1200220FA04F001FA02F3CA
:1024300040EA030021FA04F345EA030130BDC4F188
:102440000C04C4F1200220FA02F001FA04F340EA7D
:102450000300294630BD21FA04F0294630BD94F02E
:10246000000F83F4801306BF81F480110134013D15
:102470004EE77FEA645C18BF7FEA655C29D094EA86
:10248000050F08BF90EA020F05D054EA000C04BF04
:102490001946104630BD91EA030F1EBF00210020EF
:1024A00030BD5FEA545C05D14000494128BF41F08E
:1024B000004130BD14F580043CBF01F5801130BDF2
:1024C00001F0004545F0FE4141F470014FF000007D
:1024D00030BD7FEA645C1ABF194610467FEA655C2E
:1024E0001CBF0B46024650EA013406BF52EA0335D0
:1024F00091EA030F41F4002130BD00BF90F0000FBE
:1025000004BF0021704730B54FF4806404F13204F9
:102510004FF000054FF0000150E700BF90F0000FB2
:1025200004BF0021704730B54FF4806404F13204D9
:1025300010F0004548BF40424FF000013EE700BFA9
:1025400042004FEAE2014FEA31014FEA02701FBF39
:1025500012F07F4393F07F4F81F06051704792F00B
:10256000000F14BF93F07F4F704730B54FF4607485
:1025700001F0004521F0004120E700BF50EA0102D0
:1025800008BF704730B54FF000050AE050EA01027D
:1025900008BF704730B511F0004502D5404261EBED
:1025A00041014FF4806404F132045FEA915C3FF42E
:1025B000DCAE4FF003025FEADC0C18BF03325FEAC7
:1025C000DC0C18BF033202EBDC02C2F1200300FA7C
:1025D00003FC20FA02F001FA03FE40EA0E0021FAA1
:1025E00002F11444C1E600BF70B54FF0FF0C4CF48B
:1025F000E06C1CEA11541DBF1CEA135594EA0C0F41
:1026000095EA0C0F00F0DEF82C4481EA030621EA7B
:102610004C5123EA4C5350EA013518BF52EA0335B6
:1026200041F4801143F4801338D0A0FB02CE4FF068
:102630000005E1FB02E506F00042E0FB03E54FF098
:102640000006E1FB03569CF0000F18BF4EF0010E90
:10265000A4F1FF04B6F5007F64F5407404D25FEA8C
:102660004E0E6D4146EB060642EAC62141EA55513F
:102670004FEAC52040EA5E504FEACE2EB4F1FD0C81
:1026800088BFBCF5E06F1ED8BEF1004F08BF5FEAFF
:10269000500E50F1000041EB045170BD06F00046B1
:1026A00046EA010140EA020081EA0301B4EB5C045E
:1026B000C2BFD4EB0C0541EA045170BD41F4801156
:1026C0004FF0000E013C00F3AB8014F1360FDEBF7B
:1026D000002001F0004170BDC4F10004203C35DA57
:1026E0000C341BDC04F11404C4F1200500FA05F3DA
:1026F00020FA04F001FA05F240EA020001F000427B
:1027000021F0004110EBD37021FA04F642EB0601F0
:102710005EEA430E08BF20EAD37070BDC4F10C041A
:10272000C4F1200500FA04F320FA05F001FA04F2DE
:1027300040EA020001F0004110EBD37041F10001CA
:102740005EEA430E08BF20EAD37070BDC4F12005D5
:1027500000FA05F24EEA020E20FA04F301FA05F23D
:1027600043EA020321FA04F001F0004121FA04F2E5
:1027700020EA020000EBD3705EEA430E08BF20EAB5
:10278000D37070BD94F0000F0FD101F000464000EF
:1027900041EB010111F4801F08BF013CF7D041EA71
:1027A000060195F0000F18BF704703F00046520075
:1027B00043EB030313F4801F08BF013DF7D043EA46
:1027C0000603704794EA0C0F0CEA135518BF95EAFC
:1027D0000C0F0CD050EA410618BF52EA4306D1D183
:1027E00081EA030101F000414FF0000070BD50EAA2
:1027F000410606BF1046194652EA430619D094EA2C
:102800000C0F02D150EA013613D195EA0C0F05D115
:1028100052EA03361CBF104619460AD181EA030169
:1028200001F0004141F0FE4141F470014FF0000021
:1028300070BD41F0FE4141F4780170BD70B54FF0BC
:10284000FF0C4CF4E06C1CEA11541DBF1CEA13553C
:1028500094EA0C0F95EA0C0F00F0A7F8A4EB05041E
:1028600081EA030E52EA03354FEA013100F0888015
:102870004FEA03334FF0805545EA131343EA1263DE
:102880004FEA022245EA111545EA10654FEA002693
:102890000EF000419D4208BF964244F1FD0404F54C
:1028A000407402D25B084FEA3202B61A65EB0305A8
:1028B0005B084FEA32024FF480104FF4002CB6EB65
:1028C000020E75EB030E22BFB61A754640EA0C00E5
:1028D0005B084FEA3202B6EB020E75EB030E22BF25
:1028E000B61A754640EA5C005B084FEA3202B6EB66
:1028F000020E75EB030E22BFB61A754640EA9C0025
:102900005B084FEA3202B6EB020E75EB030E22BFF4
:10291000B61A754640EADC0055EA060E18D04FEAB2
:10292000051545EA16754FEA06164FEAC30343EA52
:1029300052734FEAC2025FEA1C1CC0D111F4801F1F
:102940000BD141EA00014FF000004FF0004CB6E718
:1029500011F4801F04BF01430020B4F1FD0C88BFB7
:10296000BCF5E06F3FF6AFAEB5EB030C04BFB6EBC2
:10297000020C5FEA500C50F1000041EB045170BDB5
:102980000EF0004E4EEA113114EB5C04C2BFD4EBE2
:102990000C0541EA045170BD41F480114FF0000E66
:1029A000013C90E645EA060E8DE60CEA135594EAE2
:1029B0000C0F08BF95EA0C0F3FF43BAF94EA0C0FE5
:1029C0000AD150EA01347FF434AF95EA0C0F7FF45A
:1029D00025AF104619462CE795EA0C0F06D152EAAE
:1029E00003353FF4FDAE1046194622E750EA410692
:1029F00018BF52EA43067FF4C5AE50EA41047FF4A3
:102A00000DAF52EA43057FF4EBAE12E74FF0FF3C07
:102A100006E000BF4FF0010C02E000BF4FF0010CD8
:102A20004DF804CD4FEA410C7FEA6C5C4FEA430C51
:102A300018BF7FEA6C5C1BD001B050EA410C0CBFA0
:102A400052EA430C91EA030F02BF90EA020F002002
:102A5000704710F1000F91EA030F58BF994208BF69
:102A600090422CBFD8176FEAE37040F00100704726
:102A70004FEA410C7FEA6C5C02D150EA013C07D17D
:102A80004FEA430C7FEA6C5CD6D152EA033CD3D0C8
:102A90005DF8040B704700BF8446104662468C46C2
:102AA0001946634600E000BF01B5FFF7B7FF0028F5
:102AB00048BF10F1000F01BD4DF808EDFFF7F4FF1E
:102AC0000CBF012000205DF808FB00BF4DF808EDA9
:102AD000FFF7EAFF34BF012000205DF808FB00BFCC
:102AE0004DF808EDFFF7E0FF94BF012000205DF8EE
:102AF00008FB00BF4DF808EDFFF7CEFF94BF0120A3
:102B000000205DF808FB00BF4DF808EDFFF7C4FF9B
:102B100034BF012000205DF808FB00BF4FEA4102EE
:102B200012F5001215D211D56FF47873B3EB62521F
:102B300012D94FEAC12343F0004343EA505311F046
:102B4000004F23FA02F018BF404270474FF00000D8
:102B5000704750EA013005D111F0004008BF6FF016
:102B6000004070474FF00000704700BF80F0004009
:102B700002E000BF81F0004142001FBF5FEA410355
:102B800092EA030F7FEA226C7FEA236C6AD04FEA55
:102B90001262D2EB1363C1BFD2184140484041409A
:102BA000B8BF5B42192B88BF704710F0004F40F44C
:102BB000000020F07F4018BF404211F0004F41F468
:102BC000000121F07F4118BF494292EA030F3FD034
:102BD000A2F1010241FA03FC10EB0C00C3F1200347
:102BE00001FA03F100F0004302D5494260EB4000D6
:102BF000B0F5000F13D3B0F1807F06D340084FEA41
:102C0000310102F10102FE2A51D2B1F1004F40EB35
:102C1000C25008BF20F0010040EA0300704749009D
:102C200040EB000010F4000FA2F10102EDD1B0FA68
:102C300080FCACF1080CB2EB0C0200FA0CF0AABF5D
:102C400000EBC25052421843BCBFD04018437047FB
:102C500092F0000F81F4000106BF80F40000013201
:102C6000013BB5E74FEA41037FEA226C18BF7FEAD8
:102C7000236C21D092EA030F04D092F0000F08BF1A
:102C80000846704790EA010F1CBF0020704712F001
:102C90007F4F04D1400028BF40F00040704712F140
:102CA00000723CBF00F50000704700F0004343F0A5
:102CB000FE4040F4000070477FEA226216BF0846DB
:102CC0007FEA23630146420206BF5FEA412390EA9E
:102CD000010F40F4800070474FF0000304E000BF94
:102CE00010F0004348BF40425FEA000C08BF704745
:102CF00043F0964301464FF000001CE050EA010209
:102D000008BF70474FF000030AE000BF50EA01021D
:102D100008BF704711F0004302D5404261EB41010A
:102D20005FEA010C02BF84460146002043F0B6432F
:102D300008BFA3F18053A3F50003BCFA8CF2083A54
:102D4000A3EBC25310DB01FA02FC634400FA02FC5D
:102D5000C2F12002BCF1004F20FA02F243EB020064
:102D600008BF20F00100704702F1200201FA02FCC6
:102D7000C2F1200250EA4C0021FA02F243EB0200B9
:102D800008BF20EADC7070474FF0FF0C1CEAD052FD
:102D90001EBF1CEAD15392EA0C0F93EA0C0F6FD0BE
:102DA0001A4480EA010C400218BF5FEA41211ED09C
:102DB0004FF0006343EA501043EA5111A0FB013188
:102DC0000CF00040B1F5000F3EBF490041EAD3715D
:102DD0005B0040EA010062F17F02FD2A1DD8B3F1D9
:102DE000004F40EBC25008BF20F00100704790F048
:102DF000000F0CF0004C08BF49024CEA502040EA9A
:102E000051207F3AC2BFD2F1FF0340EAC25070475F
:102E100040F400004FF00003013A5DDC12F1190F9D
:102E2000DCBF00F000407047C2F10002410021FA0F
:102E300002F1C2F1200200FA02FC5FEA310040F127
:102E4000000053EA4C0308BF20EADC70704792F0A0
:102E5000000F00F0004C02BF400010F4000F013AD8
:102E6000F9D040EA0C0093F0000F01F0004C02BFD3
:102E7000490011F4000F013BF9D041EA0C018FE742
:102E80000CEAD15392EA0C0F18BF93EA0C0F0AD048
:102E900030F0004C18BF31F0004CD8D180EA01006E
:102EA00000F00040704790F0000F17BF90F0004F07
:102EB000084691F0000F91F0004F14D092EA0C0FE9
:102EC00001D142020FD193EA0C0F03D14B0218BF7C
:102ED000084608D180EA010000F0004040F0FE40C2
:102EE00040F40000704740F0FE4040F4400070475E
:102EF0004FF0FF0C1CEAD0521EBF1CEAD15392EADD
:102F00000C0F93EA0C0F69D0A2EB030280EA010CCC
:102F100049024FEA402037D04FF0805343EA111165
:102F200043EA10130CF000408B4238BF5B0042F1C3
:102F30007D024FF4000C8B4224BF5B1A40EA0C0068
:102F4000B3EB510F24BFA3EB510340EA5C00B3EB9A
:102F5000910F24BFA3EB910340EA9C00B3EBD10F88
:102F600024BFA3EBD10340EADC001B0118BF5FEADA
:102F70001C1CE0D1FD2A3FF650AF8B4240EBC25003
:102F800008BF20F0010070470CF0004C4CEA5020C4
:102F90007F32C2BFD2F1FF0340EAC250704740F413
:102FA00000004FF00003013A37E792F0000F00F005
:102FB000004C02BF400010F4000F013AF9D040EA83
:102FC0000C0093F0000F01F0004C02BF490011F417
:102FD000000F013BF9D041EA0C0195E70CEAD1530F
:102FE00092EA0C0F08D142027FF47DAF93EA0C0FF6
:102FF0007FF470AF084676E793EA0C0F04D14B02DA
:103000003FF44CAF08466EE730F0004C18BF31F08B
:10301000004CCAD130F000427FF45CAF31F0004385
:103020007FF43CAF5FE700BF4FF0FF3C06E000BF1E
:103030004FF0010C02E000BF4FF0010C4DF804CD41
:103040004FEA40024FEA41037FEA226C18BF7FEA51
:10305000236C11D001B052EA530C18BF90EA010F53
:1030600058BFB2EB030088BFC81738BF6FEAE170E2
:1030700018BF40F0010070477FEA226C02D15FEA7E
:10308000402C05D17FEA236CE4D15FEA412CE1D0EA
:103090005DF8040B704700BF844608466146FFE7B1
:1030A0000FB5FFF7C9FF002848BF10F1000F0FBD93
:1030B0004DF808EDFFF7F4FF0CBF012000205DF88C
:1030C00008FB00BF4DF808EDFFF7EAFF34BF012011
:1030D00000205DF808FB00BF4DF808EDFFF7E0FFAA
:1030E00094BF012000205DF808FB00BF4DF808EDFB
:1030F000FFF7D2FF94BF012000205DF808FB00BF5E
:103100004DF808EDFFF7C8FF34BF012000205DF83F
:1031100008FB00BF80EA010C1CF0030F37D110F050
:10312000030C20F0030021F0030150F8042B08BF2A
:1031300051F8043B0ED08CF0030C6FF07F434FEA44
:10314000CC0C23FA0CFC51F8043B42EA0C0243EA93
:103150000C0300BFA2F1013C9A4201BF2CEA020C11
:103160001CF0803F50F8042B51F8043BF2D04FEA9A
:1031700002604FEA1222012828BFB0EB036F08BF9C
:103180001B0AF4D003F0FF03000EC01A704710F0C2
:10319000030F0AD010F8012B11F8013B012A28BFB8
:1031A0009A42F4D0A2EB030070474DF8045D50F84A
:1031B000042B01F0030521F0030151F8043B022D1B
:1031C00026D04DD822F07F45B5EB132FA2F1013C5C
:1031D0002CEA020C0DD11CF0803C08BF51F8043BD6
:1031E0000AD185EA0205B5EB036F0CD150F8042B28
:1031F000E8E74FEA13235BE03CF07F4C54D10B78B7
:103200004FEA126554E04FEA126503F0FF034FE006
:103210004FEA0245A2F1013C4FEA15452CEA020CA7
:10322000B5EB134F18D11CF0803C08BF51F8043B9C
:1032300007D185EA0205B5EB034F09D150F8042BFD
:10324000E6E75FEA0C4C2FD10B884FEA12452FE0DE
:103250004FEA03434FEA12454FEA134328E000BF09
:1032600002F0FF05B5EB136FA2F1013C2CEA020C52
:103270000DD11CF0803C08BF51F8043B0AD185EA0F
:103280000205B5EB032F0AD150F8042BE8E74FEA0B
:1032900013630DE012F0FF0F06D051F8043B4FEA24
:1032A000122523F07F4303E04FF0000020BC70475D
:1032B00005F0FF0203F0FF00012828BF904204BF81
:1032C0002D0A1B0AF4D0A2EB000020BC704700BFFF
:1032D00080B51B4D1B4CFDF7F1F9FDF779FCFDF7AF
:1032E00069FB4FF4E130FDF719FD2F46FEF716FCA0
:1032F000A046FDF7A3FDFDF74BFAFEF7B7FEFEF77C
:1033000029FB002601E0237853B9FEF729FB2B782F
:10331000002BF8D0FEF77EFC3E702378002BF4D013
:103320000520FDF7D1FBFEF7C7FEFEF7E3FCFEF735
:103330004DFF0548FEF722F9002388F80030E0E74A
:103340001400002015000020C43B0008002103E009
:103350000A4B5B584350043109480A4B42189A42C1
:10336000F6D3094A02E0002342F8043B074B9A4295
:10337000F9D3FCF7E5FEFFF7ABFF7047C83F000845
:103380000000002010000020100000201805002080
:10339000FEE700002DE9F843C1F30A57A7F2FF3515
:1033A000132D0B460446864613DC002D47DB294FC0
:1033B00047FA05F505EA010757EA000E1ED1204637
:1033C000194603F00045C2E9000170462946BDE8F0
:1033D000F883332D1EDCA7F213474FF0FF35FD4075
:1033E00015EA000721D0894620EA0508C2E90089CC
:1033F0000B464246FEF744FFBDE8F8834FF0000855
:1034000021EA0509C2E900894B464246FEF738FF2A
:10341000BDE8F88320461946002403F00045C2E9C0
:10342000000120462946BDE8F8832046194603F0EE
:103430000045C2E9000138462946BDE8F88300206E
:1034400003F0004106460F4620461946C2E90067D0
:10345000BDE700BFFFFF0F00C9B270B4002933D031
:10346000850710D00378002B59D0994218BF431C10
:1034700006D127E013F8012B002A4DD0914221D02C
:103480009A071846F6D141EA0126036846EA06463D
:1034900001E050F8043F83EA0605A5F10134A3F1E9
:1034A000013224EA050422EA0303234313F0803F98
:1034B000EFD0037823B932E010F8013F002B2ED073
:1034C0009942F9D170BC704784070BD00378002B68
:1034D000F8D0431C03E002780133002AF2D09907A8
:1034E0001846F8D10268A2F1013323EA020313F06F
:1034F000803F08D150F8042FA2F1013323EA0203E0
:1035000013F0803FF6D00378002BDBD010F8013F9A
:10351000002BFBD170BC7047104670BC704718463A
:1035200070BC704720F0030110F00300C0F10000F0
:1035300051F8043B00F1040C4FEACC0C6FF0000290
:103540001CBF22FA0CF213434FF0010C4CEA0C2C76
:103550004CEA0C4CA3EB0C0222EA030212EACC1256
:1035600004BF51F8043B0430F4D0C2F1000102EA78
:103570000102B2FA82F2C2F11F0200EBD2007047E0
:1035800099B103789BB110B40144431C02E01C784C
:10359000013334B18B421A46F9D1181A5DF8044B45
:1035A0007047101A5DF8044B70470846704718467C
:1035B000704700BF1000000000000000017A5200B8
:1035C000027C0E011B0C0D00200000001800000002
:1035D00044FBFFFFBA01000000024D0E048501020A
:0C35E0007F0A41C50E00410B4EC50E00D5
:1035F000030406080C101820300000000000000032
:103600000000000001020304060708090000000092
:10361000010203040000000000000080FB380B38AA
:10362000000000409D034138000000A0844475382C
:10363000000000C0A595AA38000000A0879DE038D2
:1036400000000080E9C41439000000E023F6493985
:1036500000000060D6398039000000004C48B439C1
:10366000000000005F5AE939000000C0F6B01F3AC0
:10367000000000409ACE533A000000C040C2883A91
:1036800000000000D1F2BE3A000000A0C257F33A99
:1036900000000040B32D283B0000002020395E3B95
:1036A00000000000B4E3923B00000000A19CC73B77
:1036B00000000040C983FD3B000000E05D72323C29
:1036C00000000040F50E673C000000A0B2D29C3C18
:1036D000000000A0AF03D23C000000809B84063DA8
:1036E00000000060C2253C3D000000809997713DBC
:1036F000000000E07FFDA53D000000E0DF7CDB3D39
:10370000000000E00B2E113E000000E08E79453EE7
:10371000000000A0F2D77A3E000000A0F7C6B03E3D
:1037200000000080B5F8E43E000000E0E2361A3FF9
:10373000000000E04D62503F00000040E17A843F0D
:10374000000000A09999B93F000000000000F03F80
:10375000000000000000244000000000000059406C
:103760000000000000408F40000000000088C340BF
:1037700000000000006AF8400000000080842E4134
:1037800000000000D01263410000000084D7974180
:103790000000000065CDCD41000000205FA0024286
:1037A000000000E076483742000000A0941A6D4205
:1037B000000000E09C30A24200000020C4BCD642C1
:1037C00000000020F56B0C430000004079C341432A
:1037D0000000008057347643000000606DC1AB43A9
:1037E00000000060E458E143000000801DAF154474
:1037F000000000E0E41A4B4400000000CFF08044D9
:10380000000000C0022DB544000000804378EA4467
:10381000000000202A8B2045000000C0F4AD544574
:10382000000000E071D9894500000020E727C0456D
:1038300000000000E131F44500000040593E2946F7
:1038400000000080EF8D5F46000000C0B5B89346D1
:1038500000000020E3A6C846000000E09BD0FE4622
:103860000000008061423347000000C0F912684741
:1038700000000040B8179E4700000020D3CED2477A
:10388000200003008203820340004000400040000B
:10389000400001000100000000000A000A001100C1
:1038A0004000400040008A00010041002202320234
:1038B00001000000400040004000030040004000C4
:1038C00000000000000000000000000000000000F8
:1038D0000000000000000000000011004300430051
:1038E00043004300430043004300430043004300C0
:1038F00043004300430043004300430043004300B0
:1039000043004300430043002300430023002300FF
:10391000230043004300430043000300030003006F
:103920000000000000000000000000000000000097
:1039300000000000000000000000430043004300BE
:1039400043004300000000000000000000000000F1
:103950000000000000000000000000000000000067
:10396000237365742070776D20746F2025640A00BE
:103970001B5B33356D23693263315F726561645F50
:103980007265673A20493243204552524F520A1B12
:103990005B33306D0000000023693263315F777262
:1039A0006974655F7265673A204932432045525217
:1039B0004F520A00493243315F43523120202020C8
:1039C0003A203078253038780A00000049324331F7
:1039D0005F435232202020203A203078253038783A
:1039E0000A000000493243315F4452202020202049
:1039F0003A203078253038780A00000049324331C7
:103A00005F535231202020203A20307825303878FA
:103A10000A000000493243315F53523220202020F7
:103A20003A203078253038780A0000004932433196
:103A30005F434352202020203A20307825303878C8
:103A40000A000000493243315F5452495345202057
:103A50003A203078253038780A0000002D00000028
:103A600025642E25642E25642E25640030313233E2
:103A700034353637383961626364656600000000AA
:103A800023307825303478202D20000025303278FE
:103A9000200000002D2D20003A20000025630000AA
:103AA0002E0000003E0000000A3E00006C6F672000
:103AB00020202020202020202020202020203A20EC
:103AC0007374617274206C6F6767696E6720746FBE
:103AD000205541525420262073656E64696E67201C
:103AE000646174610A0000007120202020202020E1
:103AF000202020202020202020203A2073746F7066
:103B0000206C6F6767696E6720746F20554152544F
:103B100020262073656E64696E6720646174610A93
:103B20000000000068656C702020202020202020EC
:103B30002020202020203A20746869732068656C5A
:103B4000700A000076657273696F6E202020202055
:103B50002020202020203A2076657273696F6E2025
:103B6000696E666F726D6174696F6E0A00000000A5
:103B700070776D0066756C6C00000000726567738D
:103B800000000000636C720068656C70000000004B
:103B900076657273696F6E00232D20536F6C6172AE
:103BA00020436F756E746572202D2076312E302083
:103BB0002D204A756E2031362032303230202D20B3
:103BC0007262202D0A0000002D2D20636F6D6D6F35
:103BD0006E20444D4120726567697374657273206D
:103BE0002D2D0A00444D415F4953522020202020B2
:103BF0002020203A202530386C780A00444D415F5F
:103C000049464352202020202020203A20253038C9
:103C10006C780A002D2D20444D4131204368616E9F
:103C20006E656C3120726567697374657273202DDF
:103C30002D0A0000444D41315F4348315F434352F8
:103C40002020203A202530386C780A00444D41313C
:103C50005F4348315F434E445452203A2025303868
:103C60006C780A00444D41315F4348315F43504115
:103C70005220203A202530386C780A00444D4131DA
:103C80005F4348315F434D415220203A2025303870
:103C90006C780A0056736F6C3A2025312E336620FB
:103CA000566261743A2025312E33662020000000D0
:103CB0002D2D2041444320726567697374657273CA
:103CC000202D2D0A00000000414443315F53522053
:103CD0002020203A202530386C780A0041444331B6
:103CE0005F4352312020203A202530386C780A007A
:103CF000414443315F4352322020203A202530385E
:103D00006C780A00414443315F534D505231203AA0
:103D1000202530386C780A00414443315F534D50C0
:103D20005232203A202530386C780A004144433121
:103D30005F534D505233203A202530386C780A00BA
:103D4000414443315F5351523120203A20253038CD
:103D50006C780A00414443315F5351523220203A7B
:103D6000202530386C780A00414443315F5351526A
:103D70003320203A202530386C780A004144433102
:103D80005F5351523420203A202530386C780A0095
:103D9000414443315F5351523520203A2025303879
:103DA0006C780A00414443315F4452202020203A7D
:103DB000202530386C780A0051746F743A2025330E
:103DC0002E346620496368673A2025332E346620F6
:103DD000497261773A2025332E34660A00000000CC
:103DE000515B435D3A2025322E366620495B754192
:103DF0005D3A2025322E3366000000004C544332D9
:103E00003934312053746174757320526567697356
:103E1000746572202020203A203078253032780ACC
:103E2000000000004C54433239343120436F6E742B
:103E3000726F6C2052656769737465722020203A36
:103E4000203078253032780A000000004C5443328C
:103E50003934312043686172676520526567697340
:103E6000746572202020203A203078253034780A7A
:103E7000000000004C5443323934312054687265DC
:103E8000732E204C6F205265676973746572203AF7
:103E9000203078253034780A000000004C5443323A
:103EA0003934312054687265732E20486920526578
:103EB000676973746572203A203078253034780A47
:103EC0000000000000202020202020202020282882
:103ED00028282820202020202020202020202020CA
:103EE000202020202088101010101010101010100A
:103EF000101010101004040404040404040404103A
:103F000010101010101041414141414101010101C7
:103F10000101010101010101010101010101010191
:103F2000101010101010424242424242020202029D
:103F30000202020202020202020202020202020261
:103F40001010101020000000000000000000000011
:103F50000000000000000000000000000000000061
:103F60000000000000000000000000000000000051
:103F70000000000000000000000000000000000041
:103F80000000000000000000000000000000000031
:103F90000000000000000000000000000000000021
:103FA0000000000000000000000000000000000011
:103FB0000000000000000000000000000000000001
:083FC0000000000000000000F9
:103FC80068FF1F000101010101000000C43E000854
:00000001FF
