:020000040800F2
:1000000000800020F537000839380008393800082A
:100010003938000839380008393800080000000075
:100020000000000000000000000000003938000857
:100030003938000800000000393800083938000855
:1000400039380008393800083938000839380008CC
:1000500039380008393800083938000839380008BC
:1000600039380008393800083938000839380008AC
:10007000393800083938000839380008393800089C
:10008000393800083938000839380008393800088C
:10009000393800083938000839380008393800087C
:1000A00000000000393800083938000839380008E5
:1000B000393800083938000839380008393800085C
:1000C000393800083938000839380008393800084C
:1000D0003938000839380008310C0008710D000863
:1000E000393800083938000839380008393800082C
:1000F000590B0008000000003938000839380008A2
:1001000000000000000000003938000839380008FD
:100110003938000839380008393800080000000074
:100120003938000800000000000000000000000056
:0C01300000000000000000005FF808F173
:10014000104B10B41968104A41F480711960996815
:100150000E480A409A601A68002422F0885222F061
:1001600001121A601A684FF0006122F480221A60AE
:100170009A6822F47D029A60DC6081605DF8044B2D
:10018000704700BF003802400CC0FF8800ED00E05F
:100190001C4B10B49B6803F00C030C2B16D8DFE843
:1001A00003F01515151507151515071515151F005D
:1001B000154A1648134B16499B685DF8044BC3F368
:1001C000031303441B7BDA400A6070470D4B4FF466
:1001D00000425B680D48C3F3423301339A40E9E7BC
:1001E000084B0A489A680849C2F38342845C9A68BB
:1001F00001FB04F1C2F381520132B1FBF2F29B68C0
:10020000D8E700BF0038024000127A00983A000890
:1002100000000020000000002DE9F04F431E83B0D5
:100220008246002400E0013413F8010F2028A0F1D9
:100230000902F8D0012AF6D92B2800F09F802D283A
:1002400000F0A480644B0022CDE90023A0F130032C
:10025000092B4FF000064FF0000700F2B480DFF8E2
:1002600088810AEB040B2625002D05F1FF35A0F14E
:100270003000C5F14B0904F101040DDB02F0B6FBBF
:10028000D8E9002302F018FC02460B4630463946F6
:1002900002F060FA06460F461BF8010FA8F10808A5
:1002A000A0F13003092BDFD92E2808BF01341AF83A
:1002B00004300AEB040BA3F13000C2B2092A1FD8A4
:1002C000464B03EBC508002D04F1010405F1FF3591
:1002D0000DDB02F08BFBD8E9002302F0EDFB0246B8
:1002E0000B463046394602F035FA06460F461BF8F3
:1002F000013FA8F10808A3F13000C2B2092AE2D9EF
:1003000003F0DF03452B18D0B9F14B0F0FDC334B53
:10031000304603EBC9093946D9E9002302F0CCFB8A
:10032000DDE9002302F0C8FB03B0BDE8F08FB9F1AE
:100330004C0F33D000202A49F2E7631C1AF803203F
:100340002B2A35D02D2A38D00121A2F130000928DE
:10035000DAD89A44002303EB830302EB43031AF831
:10036000012F303BA2F130000928F4D903FB019999
:10037000B9F1000FC8DA00200021D1E7164B013493
:1003800000221AF80400CDE900235FE7154B013481
:1003900000221AF80400CDE9002357E70CA3D3E9A3
:1003A00000233046394602F0F9FD0028AFD1C1E7FD
:1003B000A31C1AF803200121C7E7A31C1AF8032085
:1003C0004FF0FF31C1E74FF0250926256CE700BF4C
:1003D000000000A0FB38FB3F0000F03FC03A0008DF
:1003E0000000F07F0000F0BFF03B0008AFF300809A
:1003F0002DE9F04F87B0109F119E04468846009269
:1004000033EA230528BF062538463146002200235B
:1004100002F0C4FD002840F0128138463146002227
:10042000002302F0B1FD00283ED1DFF88C9238465F
:10043000D9E90023314602F0B1FD002800F0218106
:100440004FF04C0B0EE079E90223384631460BF1B0
:10045000FF3B02F0A3FD002800F0BE80BBF1000FBF
:1004600000F0FF80B8F1660FEDD1BBF1260FEADC9A
:10047000ABF1260AABF125094D44009AAB1C93421F
:10048000C0F2E380152300931225BBF1000F00F0AA
:10049000BA80854B4FF0010903EBCB0C03934FF06F
:1004A0006508DCE900231EE04FF001094FF0000A67
:1004B0004FF0260BB8F1670FDED0B8F1660FDBD036
:1004C0000135122DA8BF1225B8F1650F00F0D580B7
:1004D000754BC5F1270203EBCB0C4FF001090393D9
:1004E0000092DCE900233846314602F00FFC039B02
:1004F000009A064603EBC20B0F46DBE9000100221F
:100500006A4B02F0D9FA0B4602463946304602F0F1
:1005100021F904AA03F092F9DDE9042306460F4607
:10052000104619460022624BCDE9000102F04AFD57
:1005300050B1DDE900013123237000225C4B02F051
:1005400007F9CDE904010134002D1BDD4FF0000B4C
:10055000CB45DDE904010BF1010B00F0A18002F0B5
:1005600045FD30302070394630460022504B02F0B5
:10057000A3FA04AA03F062F9AB4504F101040646AC
:100580000F46E5D1B8F1660F21D06523BAF1000F0F
:10059000237004F10201B4BF2D232B2363700C469A
:1005A000444BB8BFCAF1000A83FB0A034FEAEA7260
:1005B000C2EBA303C3EB4312C3EB82020AF1300A7E
:1005C0000AEB420A303304F8023B81F801A0002311
:1005D000237007B0BDE8F08FB8F1670FABF1260AC2
:1005E000ABF125097FF469AFB9F1060F7FF744AF8E
:1005F0000135122DA8BF1225C5F127030093BBF1C9
:10060000000F7FF446AF284B3846D3E900890393A7
:10061000314642464B4602F0C1FC38B338463146BB
:100620000022234B02F048FA6FF0260A42464B465E
:1006300007460E464FF001094FF0650853E72D239A
:10064000237006F100460134E7E6174BC5F1270297
:1006500003EBCB0C039300924FF06608DCE9002318
:1006600041E76FF024096FF0250A23E742464B4625
:100670004FF065084FF0010935E7C5F127030093F6
:1006800003E7B8F1670F06D04FF027094FF0260AAD
:100690004FF04C0B11E74FF0260A4FF04C0BA7E739
:1006A0002E23237001345AE7C03A00080000E03FCF
:1006B0000000244067666666203D00080C4B194622
:1006C0001A6A42F400721A621A6842F001021A6051
:1006D0000B68074A9B07FBD54FF080739360536804
:1006E00023F460435360536843F4004353607047FE
:1006F00000380240064B4FF080729A605A6822F42C
:1007000060425A605A6842F400425A60704700BF23
:1007100000380240104B114A1946586A40F0805088
:100720005862106840F48070106012685A6B42F48E
:1007300080725A634B6B084A9B05FBD5536B074984
:1007400043F480335363536B43F4800353630B6868
:1007500023F480730B607047003802400070004043
:10076000064B1A46196A41F400711962196841F082
:100770000101196013689B07FCD5704700380240DF
:10078000024A136823F001031360704700380240E7
:100790000A494B68094ADB06FBD41146136843F447
:1007A000C05313604B6813F01003FBD1044A054992
:1007B00053609360D3608B60704700BF007000404F
:1007C000002004E000000140094B01225A611A6830
:1007D00022F001021A605A6842F001025A609A68D7
:1007E00022F001029A60DA6842F00102DA60704792
:1007F0000004014008B50E4B1A6822F002021A608C
:100800001A6842F001021A605A6822F001025A6026
:100810001A6842F00C021A6000F0F6F8FFF7D4FFF5
:10082000044A136943F00403136120BF08BD00BFED
:100830000070004000ED00E0094B01225A611A6887
:1008400022F001021A605A6822F001025A609A6886
:1008500022F001029A60DA6822F00102DA60704741
:100860000004014008B5FFF7E7FF074A136923F0CA
:1008700004031361FFF774FF00F0E8F8BDE80840D7
:100880000A2000F0BFB900BF00ED00E0024A136883
:1008900043F400731360704700700040024A13680D
:1008A00023F400731360704700700040044B1A6813
:1008B00042F001021A601A6842F480421A607047DE
:1008C00000700040044B1A6822F480421A601A68D3
:1008D00022F001021A6070470070004006494B6820
:1008E000054AD806FBD41146136843F4C05313607D
:1008F0004B68DB06FCD47047007000402DE9F04FD8
:100900004FF0000E83460F46F446F046F14672461D
:1009100085B000200021CDE900010297CDF80CB090
:100920000299029B31F8020B4FEA820BC0F3C3100D
:100930001B78C0B2ABF120060291CBF1200100FA86
:1009400006F520FA01F103F0030A00FA0BF40D4357
:10095000C3F38100C3F34111C3F300135600934066
:1009600001320AFA06F7B040DDE900ABB1404AEACD
:10097000040A4BEA050B102ACDE900AB49EA070946
:1009800048EA00084EEA010E4CEA030CC8D1DDF833
:100990000CB0DDE90001CBF80090CBF80880CBF873
:1009A0000CE0CBF804C0CBF82000CBF8241005B045
:1009B000BDE8F08F104A70B5D369104C104E43F06B
:1009C0000303104DD36120463146FFF797FF06F130
:1009D00020012846FFF792FF4FF000734FF080622E
:1009E000A261A3616B6943F400736B61636943F4B3
:1009F0000063636170BD00BF003802400000024028
:100A0000283D00080004024010B50B4C0B4804F1CF
:100A10004001FFF773FF04F160010948FFF76EFF23
:100A200004F180010748FFF769FF04F1A0010648BF
:100A3000BDE8104062E700BF283D0008000002400A
:100A400000040240000802400014024010B5054CAA
:100A500005482146FFF752FF04F120010348BDE895
:100A600010404BE7283D000800000240000402400F
:100A7000024B4FF400729A61704700BF00000240C1
:100A8000024B4FF000729A61704700BF00000240B5
:100A9000044B5A6992054CBF4FF000724FF400723C
:100AA0009A6170470000024010B5054C4FF4007386
:100AB000A36100F0A7F84FF00073A36110BD00BF61
:100AC00000000240024B4FF480629A61704700BF01
:100AD00000000240024B4FF080629A61704700BFF5
:100AE00000000240044B5A6952054CBF4FF080622F
:100AF0004FF480629A6170470000024010B5054CC7
:100B00004FF48063A36100F07DF84FF08063A36130
:100B100010BD00BF00000240024A536923F4006385
:100B20005361704700000240024A536943F4006376
:100B30005361704700000240024A536923F4007376
:100B40005361704700040240024A536943F4007342
:100B50005361704700040240114A124B0021116199
:100B60001A780132D2B2092A1A705A7805D90120AE
:100B70000244D2B219705A7098700A2ADA7806D0F4
:100B80000A2A03D1012100225971DA70704701202D
:100B90000244D2B20021DA7018715970F0E700BF38
:100BA0000014004008000020F0B50C4D0C4B686AA2
:100BB0000C490D4E0122002440F030004FF4806EAD
:100BC0004FF4805768628C624A610A609C62C3F885
:100BD0002CE05A61DA601A607760F0BD003802409C
:100BE000001400400010004000E100E0044B1A46F1
:100BF0005B6A184480B2536A1B1A1B04FBD470470B
:100C00000010004010B409494FF6FF7407E04B6A2A
:100C100003F206439BB24A6AD21A1204FBD401388B
:100C200080B2A042F3D15DF8044B70470010004041
:100C3000194A10B41368990606D5184954684868CB
:100C40000A68121A7F2A17DD1B0612D5134BD3F838
:100C50008820D3F88C10914216D0D3F888200E4803
:100C600002F07F01194491F890100132C3F88820F6
:100C700041605DF8044B70470A6802F07F00084449
:100C8000013204720A60DFE7034A5DF8044BD3685F
:100C900023F08003D3607047004400401000002020
:100CA000F0B442F22C060848084B426A084C002176
:100CB0006D27402542F400324262596119619F60FC
:100CC000DE606560F0BC70470038024000440040C0
:100CD00000E100E00A2810B5044616D00D48D0F80F
:100CE0008C20D0F888300B49D31A7F2BF9DC02F026
:100CF0007F030B44084883F89040C368013243F0F7
:100D00008003C1F88C20C36010BD0D20FFF7E2FF07
:100D1000E4E700BF1000002000440040044AD2F87D
:100D20008C10D2F888308B42FBD10020704700BF76
:100D30001000002010B504460078013428B1FFF7F8
:100D4000C9FF14F8010B0028F9D110BD074A11683A
:100D50005368994206D003F07F0111440133087AA9
:100D6000536070474FF0FF30704700BF1000002005
:100D7000194A10B41368990606D51849546848688A
:100D80000A68121A7F2A17DD1B0612D5134BD3F8F7
:100D90008820D3F88C10914216D0D3F888200E48C2
:100DA00002F07F01194491F890100132C3F88820B5
:100DB00041605DF8044B70470A6802F07F00084408
:100DC000013204720A60DFE7034A5DF8044BD3681E
:100DD00023F08003D36070470048004020010020CA
:100DE000F0B442F22C060848084B426A084C002135
:100DF0006D27802542F480224262596119619F600B
:100E0000DE606560F0BC704700380240004800407A
:100E100000E100E00A2810B5044616D00D48D0F8CD
:100E20008C20D0F888300B49D31A7F2BF9DC02F0E4
:100E30007F030B44084883F89040C368013243F0B5
:100E40008003C1F88C20C36010BD0D20FFF7E2FFC6
:100E5000E4E700BF2001002000480040044AD2F827
:100E60008C10D2F888308B42FBD10020704700BF35
:100E70002001002010B504460078013428B1FFF7A6
:100E8000C9FF14F8010B0028F9D110BD074A1168F9
:100E90005368994206D003F07F0111440133087A68
:100EA000536070474FF0FF30704700BF20010020B3
:100EB0000EB400B582B003AB53F8041B1A4601937D
:100EC00000F006F802B05DF804EB03B0704700BF15
:100ED0002DE9F04F8946934604468DB0039099F86A
:100EE000003009F1010253B1252B0ED09146237039
:100EF00099F80030013409F10102002BF4D123707C
:100F0000039BE01A0DB0BDE8F08F99F80130302B4B
:100F100018BF4FF0000E05D112F8013F302BFBD067
:100F20004FF0010EA3F13001C8B209284FF00006BE
:100F30000AD812F8013F06EB860601EB4606A3F13C
:100F40003001C8B20928F4D92E2B32D011784FF0D5
:100F5000FF3501F0FB03682B04BF51780132A1F18A
:100F6000580302F10109202B00F2FD80DFE813F0A5
:100F7000EA00FB00FB00FB00FB00FB00FB00FB00AA
:100F8000FB00FB00FB0092003600D400D400D4002C
:100F9000FB00BC00FB00FB00FB00FB00FB00FB00B8
:100FA000AD00FB00FB009E00FB003600FB00FB00D9
:100FB000EA0051780025A1F13000C3B2092B02F1FB
:100FC0000102C6D812F8011F05EB850500EB4505A7
:100FD000A1F13000C3B2092BF4D9BAE70BF1040335
:100FE00064299A464FF00A00DBF8003000F0B48024
:100FF000DFF8BC8100228DF82F20002B00F0CA8082
:10100000DFF8B0C10DF12F07B3FBF0F200FB123394
:101010001CF80310134607F8011D002AF4D16B1CBD
:1010200000F0A480D3466FF00041384602F0FCFC8B
:1010300002464046AD1A029202F0C8FC029A25EA26
:10104000E57598F80030301AA918401A2BB104F849
:10105000013B18F8013F002BF9D1002D00F09380DF
:101060002544302304F8013BAC42FBD1002A08DDC3
:101070006B1EBC1817F8011BA74203F8011FF9D11A
:10108000154400287DDD2C18202305F8013BA542DE
:10109000FAD124E7DBF800300CAF012107F8203D3E
:1010A0000BF1040B0025DFF80881BEE76A1C0BF189
:1010B0000403DBF8007019BF29469B469B466FF07E
:1010C00000410025DFF8E880AFE70022DBF80030C0
:1010D0008DF82F200BF104029246002B5DD0DFF833
:1010E000D080102008258BE7DBF800300BF1040CD2
:1010F000C3F307411A0E8DE8060004A8DAB22B49A3
:10110000C3F30723E34607460025FFF7D1FEDFF8C8
:10111000A0806FF0004188E70BF1070C2CF0070C62
:10112000DCE900AB2B46CDE900AB04A820220CF192
:10113000080B07460025FFF75BF9DFF874806FF0B6
:10114000004172E70BF1040364299A464FF0100046
:10115000DBF800307FF44CAF002BBFF649AF5B42A9
:10116000DFF8548046E721700134B8E6BEF1000F85
:101170000BD0404602F02AFCD346351A6FF00041EE
:1011800053E72C46ABE6254670E7D3466FF00041A7
:1011900001254AE70DF12F0741E793466FF0004123
:1011A00008250DF12F07DFF808803EE7EC3D000829
:1011B000A03F0008F83D0008E83D00080FB410B556
:1011C00082B004AB53F8041B084C1A462046019326
:1011D000FFF77EFE2046FFF7ADFD204602F0F6FB4E
:1011E00002B0BDE8104004B0704700BF30020020DC
:1011F000A0B10EB400B582B004AB1A4603990948F9
:101200000193FFF765FE0748FFF794FD054802F0DC
:10121000DDFB02B05DF804EB03B070474FF0FF3028
:10122000704700BF300300200EB400B582B004AB9D
:101230001A460449019300F007F802B05DF804EB88
:1012400003B07047EC3D00082DE9F04F8946934606
:1012500004468DB0039099F8003009F1010253B1B2
:10126000252B0ED09146237099F80030013409F1F6
:101270000102002BF4D12370039BE01A0DB0BDE8EE
:10128000F08F99F80130302B18BF4FF0000E05D1C8
:1012900012F8013F302BFBD04FF0010EA3F13001CB
:1012A000C8B209284FF000060AD812F8013F06EB31
:1012B000860601EB4606A3F13001C8B20928F4D92D
:1012C0002E2B32D011784FF0FF3501F0FB03682B45
:1012D00004BF51780132A1F1580302F10109202B1A
:1012E00000F2FD80DFE813F0EA00FB00FB00FB00EA
:1012F000FB00FB00FB00FB00FB00FB00FB0092007F
:101300003600D400D400D400FB00BC00FB00FB007E
:10131000FB00FB00FB00FB00AD00FB00FB009E00A0
:10132000FB003600FB00FB00EA0051780025A1F12C
:101330003000C3B2092B02F10102C6D812F8011F16
:1013400005EB850500EB4505A1F13000C3B2092B83
:10135000F4D9BAE70BF1040364299A464FF00A0066
:10136000DBF8003000F0B480DFF8BC8100228DF89B
:101370002F20002B00F0CA80DFF8B0C10DF12F073D
:10138000B3FBF0F200FB12331CF80310134607F80E
:10139000011D002AF4D16B1C00F0A480D3466FF02D
:1013A0000041384602F040FB02464046AD1A029228
:1013B00002F00CFB029A25EAE57598F80030301A25
:1013C000A918401A2BB104F8013B18F8013F002B73
:1013D000F9D1002D00F093802544302304F8013B1F
:1013E000AC42FBD1002A08DD6B1EBC1817F8011BAC
:1013F000A74203F8011FF9D1154400287DDD2C1800
:10140000202305F8013BA542FAD124E7DBF80030A0
:101410000CAF012107F8203D0BF1040B0025DFF88C
:101420000881BEE76A1C0BF10403DBF8007019BFEA
:1014300029469B469B466FF000410025DFF8E88077
:10144000AFE70022DBF800308DF82F200BF104020B
:101450009246002B5DD0DFF8D080102008258BE766
:10146000DBF800300BF1040CC3F307411A0E8DE8D2
:10147000060004A8DAB22B49C3F30723E346074664
:101480000025FFF7D1FEDFF8A0806FF0004188E76C
:101490000BF1070C2CF0070CDCE900AB2B46CDE977
:1014A00000AB04A820220CF1080B07460025FEF72C
:1014B0009FFFDFF874806FF0004172E70BF10403C7
:1014C00064299A464FF01000DBF800307FF44CAFEF
:1014D000002BBFF649AF5B42DFF8548046E721702E
:1014E0000134B8E6BEF1000F0BD0404602F06EFAB0
:1014F000D346351A6FF0004153E72C46ABE625463C
:1015000070E7D3466FF0004101254AE70DF12F0740
:1015100041E793466FF0004108250DF12F07DFF8F2
:1015200008803EE7EC3D0008A03F0008F83D0008B9
:10153000E83D00080FB410B582B004AB53F8041BAB
:10154000084C1A4620460193FFF77EFE2046FFF71F
:1015500091FC204602F03AFA02B0BDE8104004B017
:10156000704700BFB003002000232DE9F04F8146F3
:101570000F4698468BB0464E00930DF126050DF1AF
:10158000060423464FF6FF7223F8022FAB42FBD12D
:10159000102F61D8002367B109EB030212F808107D
:1015A000581C0AAA02EB4302C3B2BB4222F8201C19
:1015B000F2D3012301939DF8001036480901FFF78B
:1015C000FDFD0DF1060A4FF0000B0AE0FFF7F6FDF6
:1015D0000BF1010355455FFA83FB14D0BBF1080FF3
:1015E00051D03AF8021F2C480FFA81FEBEF1FF3F9E
:1015F000C9B2EBD12948FFF7E1FD0BF101035545D5
:101600005FFA83FBEAD12648FFF7D8FD03E0FFF736
:10161000D5FDAC4210D034F8021F2248C9B22A29A5
:1016200016D033680B445B7813F0970FEFD11E4848
:10163000FFF7C4FDAC42EED1009B1C480133009380
:10164000FFF7BCFD019B002B99D00BB0BDE8F08FDC
:101650001748FFF7B3FDDCE708F1FF3308F10F008F
:101660000DF106024B44484413F8011F834222F84F
:10167000021FF9D1103F08F110080023BFB21FFA72
:1016800088F8019397E70B48FFF798FDA9E700BF9B
:10169000040000200C3E0008183E0008203E000810
:1016A000243E0008283E00082C3E0008703E00083A
:1016B000E83D0008143E00080148FFF77FBD00BF69
:1016C000303E00080148FFF779BD00BF343E0008F6
:1016D00030B403782D2B18D0002211460125825CEE
:1016E000A2F13004092C15D80144002303EB830335
:1016F00002EB430311F8012F303BA2F13004092C17
:10170000F4D903FB05F030BC7047012211464FF0BD
:10171000FF35E4E70020F6E730B403782D2B18D02E
:10172000002211460125825CA2F13004092C15D853
:101730000144002303EB830302EB430311F8012F61
:10174000303BA2F13004092CF4D903FB05F030BC86
:101750007047012211464FF0FF35E4E70020F6E71D
:1017600030B10378202B03D110F8013F202BFBD0A0
:10177000704700BF10B32DE9F041002588462F4681
:101780000E1F03780446202B03D114F8013F202BB1
:10179000FBD05BB12046202102F0B2F848B10770BF
:1017A000013005F1010546F8044FEAD12846BDE8AD
:1017B000F08148F82540681CBDE8F081704700BF03
:1017C00008B50748FFF7FAFC0648FFF7F7FC06489C
:1017D000FFF7F4FCBDE808400448FFF7EFBC00BF8A
:1017E000383E0008743E0008B03E0008D03E0008B5
:1017F00038B5046805464D49204601F0F3FE00283F
:1018000000F0908020464A4901F0ECFE002800F0EC
:1018100085802046474901F0E5FE00287AD0204621
:10182000454901F0DFFE002870D02046434901F011
:10183000D9FE002866D02046414901F0D3FE002899
:101840005CD020463F4901F0CDFE002852D0204612
:101850003D4901F0C7FE002848D020463B4901F031
:10186000C1FE00283ED02046394901F0BBFE0028C9
:1018700034D02046374901F0B5FE58B320463649EA
:1018800001F0B0FE10B9354B01221A7020463449E0
:1018900001F0A8FE10B9314B01225A70204631499F
:1018A00001F0A0FE10B92D4B5870187020462E493B
:1018B00001F098FE50B120462C4901F093FE00B192
:1018C00038BD2B48BDE83840FFF778BCFFF778FFFC
:1018D0002C68F0E7FEF78EFF2C68CFE700F00CFDD8
:1018E0002C68C6E700F0FEFC2C68BCE700F01CFD8D
:1018F0002C68B2E700F00AFD2C68A8E700F092FB24
:101900002C689EE700F080FB2C6894E700F062FBF7
:101910002C688AE700F050FB2C6880E700F038FB69
:101920002C6876E700F00CFB2C686BE7FC3E0008A7
:10193000043F00080C3F0008143F00081C3F00084B
:10194000243F00082C3F0008343F00083C3F0008BB
:10195000443F0008503F0008543F0008B0040020F6
:101960005C3F0008603F0008643F00086C3F0008CF
:10197000743F000808B108463AE770470148FFF78E
:101980001DBC00BF743F000838B5FFF7DFF9041E27
:101990001FDB7E2C1ED02A4B9B783BBB0A2C37D0FA
:1019A0000D2C35D0082C11D07F2C0FD0254B1B6867
:1019B00023445B7813F0970F0BD0234A1378190652
:1019C00007D42248591CC454117038BD1E4A1378DC
:1019D000DBB938BD1A4DAB7883B100231C481D49D3
:1019E000AB70FFF7EBFBAB78002BDFD02046FFF7A7
:1019F00011FA2046BDE83840FFF76CB901231649BB
:101A00001348AB70FFF7DAFBEDE7013B137038BD0D
:101A10001248FFF7D3FB0C4B0C4C1D7800222046DC
:101A20000F491A706255FFF7A5FE0E4B186010B1F2
:101A30000B48FFF7DDFEBDE838400B48FFF7BEBBA3
:101A4000B004002004000020100500201405002030
:101A5000A43F0008C83F0008B43F0008703E0008DB
:101A6000E40400200C050020303E00080B4A70B44E
:101A7000D4690B4B0B4D44F08074D46100264FF4B5
:101A80002A64D2691E609D60D86059601C601A6823
:101A900070BC42F001021A60704700BF003802407B
:101AA0000860024058240140024A136843F00103D1
:101AB00013607047086002400549064A0B6823F02E
:101AC00001030B60D36923F08073D361704700BFBB
:101AD000086002400038024010B5104C1048FFF773
:101AE0006DFB21680F48FFF769FB61680E48FFF73F
:101AF00065FB0E48FFF762FBA1680D48FFF75EFB30
:101B0000E1680C48FFF75AFB21690B48FFF756FBC9
:101B100061690A48BDE81040FFF750BB0060024011
:101B2000D83F0008F43F00080C400008244000089B
:101B3000444000085C400008744000088C400008E5
:101B40002DE9F0431448154B016ADFF86080DFF897
:101B500060E0134F134DDFF85CC0002241F40071C8
:101B60004FF400394FF440164FF480740162C8F806
:101B700004900D48C3F80CC00421C3F810E05F6165
:101B80001E635A639A63DA631D645C609A60BDE801
:101B9000F043FFF76BBF00BF003802400024014054
:101BA0009224491271520200A8050020002701402A
:101BB0009224493A97244912F0B4134E33885D1C9D
:101BC000ADB20F2B35800AD8041F321D0C3054F8EB
:101BD000043F176884423B4442F8043BF7D1102D80
:101BE00001D0F0BC704709480A1F00250C3103687A
:101BF00000241B0942F8043F8A4240F8045BF6D1F6
:101C00003480F0BC704700BFB4040020B80400204A
:101C100070B5FEF781FFC820FEF7F4FF144B0122D8
:101C20001E46144C9A601025B36843F0804343F479
:101C30004073B3602368990705D40A20FEF7D6FFE6
:101C400023689A07F9D563680B4843F00203636081
:101C50000A49FFF7B1FF013DE6D105490B68044A87
:101C60005B06FBD500239360BDE87040FEF75CBFC8
:101C70000024014000600240A805002098050020D3
:101C80002DE9F041264E3368002B3DD140F2A4628D
:101C9000244B254FDFF8A4801A60244B244C18886D
:101CA00001F086FA234901F0D7FA0546706801F081
:101CB0007BFA0146284601F0CFFA014601F0C4F94B
:101CC000394601F07DFB6061B06801F06DFA0146B4
:101CD000284601F0C1FA014601F0B6F9394601F093
:101CE0006FFB4146A061284601F06AFBE061F068A5
:101CF00001F05AFA0146284601F0AEFA394601F0E1
:101D00005FFB2062BDE8F081064A1846136001F0CF
:101D10004BFA0949804601F09FFA0746BDE700BF2C
:101D20009805002094050020B872D44AF800F81FE6
:101D3000B40400200000404000F07F450080D444FF
:101D400008B5FFF765FFBDE80840FFF799BF00BF82
:101D500008B5FEF7E1FEC820FEF754FF014B012253
:101D60009A6008BD0024014004490B68034A5B06E1
:101D7000FBD500239360FEF7D7BE00BF00240140CF
:101D8000034A0520536843F400035360FEF73ABF4B
:101D900000270140024A536823F400035360704750
:101DA00000270140D0B50E4C86B0E06900F030FE4F
:101DB0000646A0690F4600F02BFECDE900016069E0
:101DC00000F026FECDE90201206A00F021FE324635
:101DD000CDE904013B460348FFF7F0F906B0D0BD5A
:101DE000B4040020A4400008D0B50E4C86B0E069D1
:101DF00000F00EFE0646A0690F4600F009FECDE990
:101E00000001606900F004FECDE90201206A00F0E3
:101E1000FFFD3246CDE904013B460348FFF78AFB4C
:101E200006B0D0BDB4040020A440000838B50E4C64
:101E300004F1100554F8041B0C48FFF7BFF9AC423D
:101E4000F8D10B48FFF7BAF90A4C04F1100554F821
:101E5000041B0648FFF7B2F9AC42F8D1BDE83840A0
:101E60000548FFF7ABB900BFA8050020D84000081F
:101E7000DC40000898050020703E000810B5204C9A
:101E80002048FFF79BF921681F48FFF797F9616821
:101E90001E48FFF793F9A1681D48FFF78FF9E16825
:101EA0001C48FFF78BF921691B48FFF787F9616927
:101EB0001A48FFF783F9216B1948FFF77FF9616B27
:101EC0001848FFF77BF9A16B1748FFF777F9E16B2B
:101ED0001648FFF773F9216C1548FFF76FF9A16DEC
:101EE0001448FFF76BF9D4F800131348FFF766F9AD
:101EF000D4F804131148BDE81040FFF75FB900BFE4
:101F000000240140E0400008F84000080C410008AF
:101F10002041000834410008484100085C410008A5
:101F2000704100088441000898410008AC41000855
:101F3000C0410008D4410008E8410008FC41000805
:101F400010B50A4C3220636923F002036361FEF787
:101F500059FE6369642043F002036361FEF752FE99
:101F6000BDE8104000200249FFF742B900040240DA
:101F700010420008054B5A6942F001025A615A6941
:101F800022F480525A61FFF7DBBF00BF0004024019
:101F900008B56420FEF736FE0548FFF7CBFA64204B
:101FA000FEF730FEBDE8084000200249FFF720B9E7
:101FB000284200082C42000808B50448FFF7BAFA86
:101FC000BDE8084000200249FFF712B94842000866
:101FD0005042000808B509490020FFF709F9FFF74A
:101FE000D7FF0748FFF7A6FA4FF4FA70FEF70AFE8C
:101FF000044A536943F48053536108BD68420008A2
:102000008442000800040240044A00205369044945
:1020100023F480535361FFF7EBB800BF0004024084
:102020008C42000808B5FFF7B3FF0648FFF782FAB5
:102030006420FEF7E7FDBDE8084000200249FFF7F5
:10204000D7B800BFA8420008B042000838B5344CE9
:102050000120FEF753FD2388052B04D8DFE803F0A9
:10206000040D1B26414638BD0120FEF71DFD01234E
:102070002380FFF7AFFFFEF7BDFBFEF7F3FB294A16
:1020800000205369284923F480535361FFF7B0F8C7
:102090000223238038BDFEF74FFDFFF751FE00F00D
:1020A000CBFAFEF751FD0323238038BDA3781C4AE9
:1020B0003BB151681D48FFF781F800F003FBFFF7C3
:1020C00071FE1B48FFF736FA616818484B1C6360C5
:1020D000FFF730FA00F012FBFFF786FE042323809F
:1020E00038BDFFF79FFF0523238038BD0D4D4FF40A
:1020F000FA702B6823F040732B60FEF783FDFFF727
:102100001FFF6B69002243F480536B612B68012031
:1021100043F080732B602280BDE83840FEF7C4BCDA
:10212000D8040020000402408C420008D840000877
:10213000D8420008F8B50546FEF7A8FE021E2CDBC3
:10214000594C2389591C322B21817DD8638933B99D
:1021500015F0FD0F23D10123638100212181013B73
:102160001F2B1AD8DFE803F0102A191919191919A9
:1021700019193B461919191919191919545F1919FF
:10218000191919191919626D252A06D147484849A4
:102190000125022305700A7063810020F8BD691FC4
:1021A0000129D8D9082DD6D0012D70D0092D78D08D
:1021B000072DD2D11F210B466181CEE7252A4CD0B5
:1021C0003C4B1B6813445B7813F0970FE5D03749FD
:1021D000374C0B7800205D1C0D70E254F8BD432A8B
:1021E000DBD13248324901250C2305700A70638126
:1021F0000020F8BD202AE3D12C4D2D482E78002157
:10220000731CDBB282552B70C15461810120F8BD73
:10221000412AC2D1254826490125162305700A7096
:1022200063810020F8BD4B2ACAD1E5E7452AB4D125
:102230001E481F490125202305700A706381002074
:10224000F8BD442ABCD1D7E71B490020FEF7D0FFD8
:102250000023638123810120F8BD144E1448377890
:1022600000217B1CDBB2C2553370C1546181B5B112
:10227000052D14D0082D0DD0062D8ED10F490C48F8
:1022800001F0B0F900280CBF02200020F8BD0B239C
:10229000638162E70A4901F0A5F90028EED1012027
:1022A000F8BD1523638158E7D8040020B805002045
:1022B000BC05002004000020DC4200081443000894
:1022C0000443000808B5064B9B7803B908BDFEF728
:1022D000DDFD0028FADBBDE80840FEF7FBBC00BFCF
:1022E000D8040020024B012202489A70FEF766BF14
:1022F000D804002024430008024B002202489A70B0
:10230000FEF75CBFD80400203443000808B5044839
:10231000FFF710F9BDE8084000200249FEF768BF4A
:10232000444300084C43000808B50448FFF702F98D
:10233000BDE8084000200249FEF75ABF6843000884
:102340006C43000870B50B4D8023AB610A20FEF78B
:102350004DFC09244FF480760A20AE61FEF746FC5E
:102360004FF08073AB610A20FEF740FC013CF3D1D3
:1023700070BD00BF0004024070B5114C4FF4807670
:10238000A6610A20FEF732FC4FF40003A3614FF070
:1023900080750A20FEF72AFCA5610A20FEF726FCBC
:1023A000A6610A20FEF722FC8023A3610A20FEF723
:1023B0001DFCA5610A20BDE87040FEF717BC00BFF8
:1023C00000040240704700BF2DE9F843254D8023EB
:1023D0000746AB610A20FEF709FC4FF0080800240D
:1023E0004FF480760A20AE61FEF700FC2A69640093
:1023F00012F0800F4FF08073E4B218BF0134AB616C
:102400004FF00A0018BFE4B2FEF7F0FB08F1FF330B
:1024100013F0FF08DFF84C90E4D1D7B98023C9F856
:1024200018300A20FEF7E2FB0E4D4FF48073AB61CB
:102430000A20FEF7DBFB4FF08073AB610A20FEF74A
:10244000D5FB8023AB610A20FEF7D0FB2046BDE818
:10245000F8834FF40003C9F818300A20FEF7C6FBD2
:10246000E2E700BF000402402DE9F8430546224F91
:1024700008244FF080790A20C7F81890FEF7B6FBC1
:1024800015F0800F4FF4000318BF8023BB610A20B2
:102490004FF48076FEF7AAFBBE610A20FEF7A6FB8A
:1024A000631E6D0013F0FF04EDB2DFF84C80E2D143
:1024B0004FF080778025C8F818700A20FEF796FB49
:1024C000C8F818500A20FEF791FBC8F818600A20D7
:1024D000FEF78CFBD8F810400A20C8F81870FEF7F9
:1024E00085FBC8F818500A20FEF780FB84EA050037
:1024F000C0F3C010BDE8F8830004024008B5FFF740
:1025000021FFFFF739FF0620FFF7AEFFBDE80840C7
:102510000020FFF7A9BF00BF38B50446134DFFF7F1
:102520002BFF2046FFF7A0FF2B691A060ED50120CE
:10253000FEF768FB4FF4AF7404E0013CA4B2FEF771
:1025400061FB8CB12B6901201B06F6D40120FFF73B
:102550003BFF05460120FFF737FF04460020FFF749
:1025600033FF04EB0524A4B2204638BD000402402A
:1025700008B50320FFF7D0FF00F016FE044900F075
:102580001FFF044900F05EFD034900F05BFD08BD3C
:102590000000C84266662042CDCCCC3D70B5052017
:1025A000FFF7BAFF00F004FE1C49044600F054FE99
:1025B0004FF0814100F046FD19490546204600F0E4
:1025C0004BFE0146204600F047FE0146284600F03B
:1025D00039FD144B05461449186800F033FD1349C2
:1025E0000646204600F038FE114900F02DFD014658
:1025F000304600F031FE294600F026FD0021044659
:1026000000F0C8FF38B920460A4900F0E1FF00B1E8
:10261000084C204670BD0024204670BD54E3253D83
:10262000A2E73B36C00600200000C841ACC5A73871
:102630000AD7233C0000C84208B50320FFF76CFF0F
:1026400000F0B2FD074900F0BBFE074900F0FAFCBC
:10265000064900F0F7FC064B1860FFF79FFF054B9B
:10266000186008BD0000C84266662042CDCCCC3D53
:10267000C0060020BC060020034B4FF080729A6118
:102680000A20FEF7B3BA00BF00040240034B4FF428
:1026900080729A610A20FEF7A9BA00BF00040240C6
:1026A000034B4FF400029A610A20FEF79FBA00BF65
:1026B00000040240024B80229A610A20FEF796BA7B
:1026C0000004024030B50A4B83B0186800F0A0F94E
:1026D000084B044618680D4600F09AF92246CDE9E9
:1026E00000012B460448FEF769FD03B030BD00BF72
:1026F000C0060020BC0600208443000830B50A4B09
:1027000083B0186800F084F9084B044618680D4639
:1027100000F07EF92246CDE900012B460448FEF781
:1027200009FF03B030BD00BFC0060020BC0600207A
:1027300084430008A0440008000000200800002096
:1027400008000020C406002081F0004102E000BF24
:1027500083F0004330B54FEA41044FEA430594EA61
:10276000050F08BF90EA020F1FBF54EA000C55EA9C
:10277000020C7FEA645C7FEA655C00F0E2804FEA6D
:102780005454D4EB5555B8BF6D420CDD2C4480EA4F
:10279000020281EA030382EA000083EA010180EA7F
:1027A000020281EA0303362D88BF30BD11F0004FCD
:1027B0004FEA01314FF4801C4CEA113102D0404203
:1027C00061EB410113F0004F4FEA03334CEA13333E
:1027D00002D0524263EB430394EA050F00F0A78056
:1027E000A4F10104D5F1200E0DDB02FA0EFC22FA51
:1027F00005F2801841F1000103FA0EF2801843FA45
:1028000005F359410EE0A5F120050EF1200E012A35
:1028100003FA0EFC28BF4CF0020C43FA05F3C01873
:1028200051EBE37101F0004507D54FF0000EDCF1EC
:10283000000C7EEB00006EEB0101B1F5801F1BD395
:10284000B1F5001F0CD349085FEA30004FEA3C0C99
:1028500004F101044FEA445212F5800F80F09A808F
:10286000BCF1004F08BF5FEA500C50F1000041EB93
:10287000045141EA050130BD5FEA4C0C404141EB97
:10288000010111F4801FA4F10104E9D191F0000FBE
:1028900004BF01460020B1FA81F308BF2033A3F141
:1028A0000B03B3F120020CDA0C3208DD02F1140C38
:1028B000C2F10C0201FA0CF021FA02F10CE002F173
:1028C0001402D8BFC2F1200C01FA02F120FA0CFC6C
:1028D000DCBF41EA0C019040E41AA2BF01EB0451B5
:1028E000294330BD6FEA04041F3C1CDA0C340EDCB3
:1028F00004F11404C4F1200220FA04F001FA02F3F6
:1029000040EA030021FA04F345EA030130BDC4F1B3
:102910000C04C4F1200220FA02F001FA04F340EAA8
:102920000300294630BD21FA04F0294630BD94F059
:10293000000F83F4801306BF81F480110134013D40
:102940004EE77FEA645C18BF7FEA655C29D094EAB1
:10295000050F08BF90EA020F05D054EA000C04BF2F
:102960001946104630BD91EA030F1EBF002100201A
:1029700030BD5FEA545C05D14000494128BF41F0B9
:10298000004130BD14F580043CBF01F5801130BD1D
:1029900001F0004545F0FE4141F470014FF00000A8
:1029A00030BD7FEA645C1ABF194610467FEA655C59
:1029B0001CBF0B46024650EA013406BF52EA0335FB
:1029C00091EA030F41F4002130BD00BF90F0000FE9
:1029D00004BF0021704730B54FF4806404F1320425
:1029E0004FF000054FF0000150E700BF90F0000FDE
:1029F00004BF0021704730B54FF4806404F1320405
:102A000010F0004548BF40424FF000013EE700BFD4
:102A100042004FEAE2014FEA31014FEA02701FBF64
:102A200012F07F4393F07F4F81F06051704792F036
:102A3000000F14BF93F07F4F704730B54FF46074B0
:102A400001F0004521F0004120E700BF50EA0102FB
:102A500008BF704730B54FF000050AE050EA0102A8
:102A600008BF704730B511F0004502D5404261EB18
:102A700041014FF4806404F132045FEA915C3FF459
:102A8000DCAE4FF003025FEADC0C18BF03325FEAF2
:102A9000DC0C18BF033202EBDC02C2F1200300FAA7
:102AA00003FC20FA02F001FA03FE40EA0E0021FACC
:102AB00002F11444C1E600BF70B54FF0FF0C4CF4B6
:102AC000E06C1CEA11541DBF1CEA135594EA0C0F6C
:102AD00095EA0C0F00F0DEF82C4481EA030621EAA7
:102AE0004C5123EA4C5350EA013518BF52EA0335E2
:102AF00041F4801143F4801338D0A0FB02CE4FF094
:102B00000005E1FB02E506F00042E0FB03E54FF0C3
:102B10000006E1FB03569CF0000F18BF4EF0010EBB
:102B2000A4F1FF04B6F5007F64F5407404D25FEAB7
:102B30004E0E6D4146EB060642EAC62141EA55516A
:102B40004FEAC52040EA5E504FEACE2EB4F1FD0CAC
:102B500088BFBCF5E06F1ED8BEF1004F08BF5FEA2A
:102B6000500E50F1000041EB045170BD06F00046DC
:102B700046EA010140EA020081EA0301B4EB5C0489
:102B8000C2BFD4EB0C0541EA045170BD41F4801181
:102B90004FF0000E013C00F3AB8014F1360FDEBFA6
:102BA000002001F0004170BDC4F10004203C35DA82
:102BB0000C341BDC04F11404C4F1200500FA05F305
:102BC00020FA04F001FA05F240EA020001F00042A6
:102BD00021F0004110EBD37021FA04F642EB06011C
:102BE0005EEA430E08BF20EAD37070BDC4F10C0446
:102BF000C4F1200500FA04F320FA05F001FA04F20A
:102C000040EA020001F0004110EBD37041F10001F5
:102C10005EEA430E08BF20EAD37070BDC4F1200500
:102C200000FA05F24EEA020E20FA04F301FA05F268
:102C300043EA020321FA04F001F0004121FA04F210
:102C400020EA020000EBD3705EEA430E08BF20EAE0
:102C5000D37070BD94F0000F0FD101F0004640001A
:102C600041EB010111F4801F08BF013CF7D041EA9C
:102C7000060195F0000F18BF704703F000465200A0
:102C800043EB030313F4801F08BF013DF7D043EA71
:102C90000603704794EA0C0F0CEA135518BF95EA27
:102CA0000C0F0CD050EA410618BF52EA4306D1D1AE
:102CB00081EA030101F000414FF0000070BD50EACD
:102CC000410606BF1046194652EA430619D094EA57
:102CD0000C0F02D150EA013613D195EA0C0F05D141
:102CE00052EA03361CBF104619460AD181EA030195
:102CF00001F0004141F0FE4141F470014FF000004D
:102D000070BD41F0FE4141F4780170BD70B54FF0E7
:102D1000FF0C4CF4E06C1CEA11541DBF1CEA135567
:102D200094EA0C0F95EA0C0F00F0A7F8A4EB050449
:102D300081EA030E52EA03354FEA013100F0888040
:102D40004FEA03334FF0805545EA131343EA126309
:102D50004FEA022245EA111545EA10654FEA0026BE
:102D60000EF000419D4208BF964244F1FD0404F577
:102D7000407402D25B084FEA3202B61A65EB0305D3
:102D80005B084FEA32024FF480104FF4002CB6EB90
:102D9000020E75EB030E22BFB61A754640EA0C0010
:102DA0005B084FEA3202B6EB020E75EB030E22BF50
:102DB000B61A754640EA5C005B084FEA3202B6EB91
:102DC000020E75EB030E22BFB61A754640EA9C0050
:102DD0005B084FEA3202B6EB020E75EB030E22BF20
:102DE000B61A754640EADC0055EA060E18D04FEADE
:102DF000051545EA16754FEA06164FEAC30343EA7E
:102E000052734FEAC2025FEA1C1CC0D111F4801F4A
:102E10000BD141EA00014FF000004FF0004CB6E743
:102E200011F4801F04BF01430020B4F1FD0C88BFE2
:102E3000BCF5E06F3FF6AFAEB5EB030C04BFB6EBED
:102E4000020C5FEA500C50F1000041EB045170BDE0
:102E50000EF0004E4EEA113114EB5C04C2BFD4EB0D
:102E60000C0541EA045170BD41F480114FF0000E91
:102E7000013C90E645EA060E8DE60CEA135594EA0D
:102E80000C0F08BF95EA0C0F3FF43BAF94EA0C0F10
:102E90000AD150EA01347FF434AF95EA0C0F7FF485
:102EA00025AF104619462CE795EA0C0F06D152EAD9
:102EB00003353FF4FDAE1046194622E750EA4106BD
:102EC00018BF52EA43067FF4C5AE50EA41047FF4CE
:102ED0000DAF52EA43057FF4EBAE12E74FF0FF3C33
:102EE00006E000BF4FF0010C02E000BF4FF0010C04
:102EF0004DF804CD4FEA410C7FEA6C5C4FEA430C7D
:102F000018BF7FEA6C5C1BD001B050EA410C0CBFCB
:102F100052EA430C91EA030F02BF90EA020F00202D
:102F2000704710F1000F91EA030F58BF994208BF94
:102F300090422CBFD8176FEAE37040F00100704751
:102F40004FEA410C7FEA6C5C02D150EA013C07D1A8
:102F50004FEA430C7FEA6C5CD6D152EA033CD3D0F3
:102F60005DF8040B704700BF8446104662468C46ED
:102F70001946634600E000BF01B5FFF7B7FF002820
:102F800048BF10F1000F01BD4DF808EDFFF7F4FF49
:102F90000CBF012000205DF808FB00BF4DF808EDD4
:102FA000FFF7EAFF34BF012000205DF808FB00BFF7
:102FB0004DF808EDFFF7E0FF94BF012000205DF819
:102FC00008FB00BF4DF808EDFFF7CEFF94BF0120CE
:102FD00000205DF808FB00BF4DF808EDFFF7C4FFC7
:102FE00034BF012000205DF808FB00BF4FEA41021A
:102FF00012F5001215D211D56FF47873B3EB62524B
:1030000012D94FEAC12343F0004343EA505311F071
:10301000004F23FA02F018BF404270474FF0000003
:10302000704750EA013005D111F0004008BF6FF041
:10303000004070474FF00000704700BF80F0004034
:1030400002E000BF81F0004142001FBF5FEA410380
:1030500092EA030F7FEA226C7FEA236C6AD04FEA80
:103060001262D2EB1363C1BFD218414048404140C5
:10307000B8BF5B42192B88BF704710F0004F40F477
:10308000000020F07F4018BF404211F0004F41F493
:10309000000121F07F4118BF494292EA030F3FD05F
:1030A000A2F1010241FA03FC10EB0C00C3F1200372
:1030B00001FA03F100F0004302D5494260EB400001
:1030C000B0F5000F13D3B0F1807F06D340084FEA6C
:1030D000310102F10102FE2A51D2B1F1004F40EB61
:1030E000C25008BF20F0010040EA030070474900C9
:1030F00040EB000010F4000FA2F10102EDD1B0FA94
:1031000080FCACF1080CB2EB0C0200FA0CF0AABF88
:1031100000EBC25052421843BCBFD0401843704726
:1031200092F0000F81F4000106BF80F4000001322C
:10313000013BB5E74FEA41037FEA226C18BF7FEA03
:10314000236C21D092EA030F04D092F0000F08BF45
:103150000846704790EA010F1CBF0020704712F02C
:103160007F4F04D1400028BF40F00040704712F16B
:1031700000723CBF00F50000704700F0004343F0D0
:10318000FE4040F4000070477FEA226216BF084606
:103190007FEA23630146420206BF5FEA412390EAC9
:1031A000010F40F4800070474FF0000304E000BFBF
:1031B00010F0004348BF40425FEA000C08BF704770
:1031C00043F0964301464FF000001CE050EA010234
:1031D00008BF70474FF000030AE000BF50EA010249
:1031E00008BF704711F0004302D5404261EB410136
:1031F0005FEA010C02BF84460146002043F0B6435B
:1032000008BFA3F18053A3F50003BCFA8CF2083A7F
:10321000A3EBC25310DB01FA02FC634400FA02FC88
:10322000C2F12002BCF1004F20FA02F243EB02008F
:1032300008BF20F00100704702F1200201FA02FCF1
:10324000C2F1200250EA4C0021FA02F243EB0200E4
:1032500008BF20EADC7070474FF0FF0C1CEAD05228
:103260001EBF1CEAD15392EA0C0F93EA0C0F6FD0E9
:103270001A4480EA010C400218BF5FEA41211ED0C7
:103280004FF0006343EA501043EA5111A0FB0131B3
:103290000CF00040B1F5000F3EBF490041EAD37188
:1032A0005B0040EA010062F17F02FD2A1DD8B3F104
:1032B000004F40EBC25008BF20F00100704790F073
:1032C000000F0CF0004C08BF49024CEA502040EAC5
:1032D00051207F3AC2BFD2F1FF0340EAC25070478B
:1032E00040F400004FF00003013A5DDC12F1190FC9
:1032F000DCBF00F000407047C2F10002410021FA3B
:1033000002F1C2F1200200FA02FC5FEA310040F152
:10331000000053EA4C0308BF20EADC70704792F0CB
:10332000000F00F0004C02BF400010F4000F013A03
:10333000F9D040EA0C0093F0000F01F0004C02BFFE
:10334000490011F4000F013BF9D041EA0C018FE76D
:103350000CEAD15392EA0C0F18BF93EA0C0F0AD073
:1033600030F0004C18BF31F0004CD8D180EA010099
:1033700000F00040704790F0000F17BF90F0004F32
:10338000084691F0000F91F0004F14D092EA0C0F14
:1033900001D142020FD193EA0C0F03D14B0218BFA7
:1033A000084608D180EA010000F0004040F0FE40ED
:1033B00040F40000704740F0FE4040F44000704789
:1033C0004FF0FF0C1CEAD0521EBF1CEAD15392EA08
:1033D0000C0F93EA0C0F69D0A2EB030280EA010CF8
:1033E00049024FEA402037D04FF0805343EA111191
:1033F00043EA10130CF000408B4238BF5B0042F1EF
:103400007D024FF4000C8B4224BF5B1A40EA0C0093
:10341000B3EB510F24BFA3EB510340EA5C00B3EBC5
:10342000910F24BFA3EB910340EA9C00B3EBD10FB3
:1034300024BFA3EBD10340EADC001B0118BF5FEA05
:103440001C1CE0D1FD2A3FF650AF8B4240EBC2502E
:1034500008BF20F0010070470CF0004C4CEA5020EF
:103460007F32C2BFD2F1FF0340EAC250704740F43E
:1034700000004FF00003013A37E792F0000F00F030
:10348000004C02BF400010F4000F013AF9D040EAAE
:103490000C0093F0000F01F0004C02BF490011F442
:1034A000000F013BF9D041EA0C0195E70CEAD1533A
:1034B00092EA0C0F08D142027FF47DAF93EA0C0F21
:1034C0007FF470AF084676E793EA0C0F04D14B0205
:1034D0003FF44CAF08466EE730F0004C18BF31F0B7
:1034E000004CCAD130F000427FF45CAF31F00043B1
:1034F0007FF43CAF5FE700BF4FF0FF3C06E000BF4A
:103500004FF0010C02E000BF4FF0010C4DF804CD6C
:103510004FEA40024FEA41037FEA226C18BF7FEA7C
:10352000236C11D001B052EA530C18BF90EA010F7E
:1035300058BFB2EB030088BFC81738BF6FEAE1700D
:1035400018BF40F0010070477FEA226C02D15FEAA9
:10355000402C05D17FEA236CE4D15FEA412CE1D015
:103560005DF8040B704700BF844608466146FFE7DC
:103570000FB5FFF7C9FF002848BF10F1000F0FBDBE
:103580004DF808EDFFF7F4FF0CBF012000205DF8B7
:1035900008FB00BF4DF808EDFFF7EAFF34BF01203C
:1035A00000205DF808FB00BF4DF808EDFFF7E0FFD5
:1035B00094BF012000205DF808FB00BF4DF808ED26
:1035C000FFF7D2FF94BF012000205DF808FB00BF89
:1035D0004DF808EDFFF7C8FF34BF012000205DF86B
:1035E00008FB00BF80EA010C1CF0030F37D110F07C
:1035F000030C20F0030021F0030150F8042B08BF56
:1036000051F8043B0ED08CF0030C6FF07F434FEA6F
:10361000CC0C23FA0CFC51F8043B42EA0C0243EABE
:103620000C0300BFA2F1013C9A4201BF2CEA020C3C
:103630001CF0803F50F8042B51F8043BF2D04FEAC5
:1036400002604FEA1222012828BFB0EB036F08BFC7
:103650001B0AF4D003F0FF03000EC01A704710F0ED
:10366000030F0AD010F8012B11F8013B012A28BFE3
:103670009A42F4D0A2EB030070474DF8045D50F875
:10368000042B01F0030521F0030151F8043B022D46
:1036900026D04DD822F07F45B5EB132FA2F1013C87
:1036A0002CEA020C0DD11CF0803C08BF51F8043B01
:1036B0000AD185EA0205B5EB036F0CD150F8042B53
:1036C000E8E74FEA13235BE03CF07F4C54D10B78E2
:1036D0004FEA126554E04FEA126503F0FF034FE032
:1036E0004FEA0245A2F1013C4FEA15452CEA020CD3
:1036F000B5EB134F18D11CF0803C08BF51F8043BC8
:1037000007D185EA0205B5EB034F09D150F8042B28
:10371000E6E75FEA0C4C2FD10B884FEA12452FE009
:103720004FEA03434FEA12454FEA134328E000BF34
:1037300002F0FF05B5EB136FA2F1013C2CEA020C7D
:103740000DD11CF0803C08BF51F8043B0AD185EA3A
:103750000205B5EB032F0AD150F8042BE8E74FEA36
:1037600013630DE012F0FF0F06D051F8043B4FEA4F
:10377000122523F07F4303E04FF0000020BC704788
:1037800005F0FF0203F0FF00012828BF904204BFAC
:103790002D0A1B0AF4D0A2EB000020BC704700BF2A
:1037A00008B5FCF78BFF124CFDF7FEF9FDF702F9A7
:1037B0004FF41650FDF774FA4FF41650FDF710FB56
:1037C0002646FEF7BDF9FCF7E3FFFEF7D3FBFEF755
:1037D00095FEFEF7D3F80025FEF7D6F8FEF772FD4A
:1037E0002378002BF8D0FEF731FC3570F4E700BFEA
:1037F0000D000020002103E00A4B5B5843500431C8
:1038000009480A4B42189A42F6D3094A02E00023BB
:1038100042F8043B074B9A42F9D3FCF791FCFFF7BF
:10382000BFFF7047A04400080000002008000020EF
:1038300008000020C4060020FEE700002DE9F84340
:10384000C1F30A57A7F2FF35132D0B4604468646EF
:1038500013DC002D47DB294F47FA05F505EA010780
:1038600057EA000E1ED12046194603F00045C2E972
:10387000000170462946BDE8F883332D1EDCA7F20F
:1038800013474FF0FF35FD4015EA000721D0894668
:1038900020EA0508C2E900890B464246FEF758FFB8
:1038A000BDE8F8834FF0000821EA0509C2E9008964
:1038B0004B464246FEF74CFFBDE8F88320461946CA
:1038C000002403F00045C2E9000120462946BDE876
:1038D000F8832046194603F00045C2E90001384646
:1038E0002946BDE8F883002003F0004106460F4654
:1038F00020461946C2E90067BDE700BFFFFF0F0081
:10390000C9B270B4002933D0850710D00378002BDA
:1039100059D0994218BF431C06D127E013F8012B58
:10392000002A4DD0914221D09A071846F6D141EA9B
:103930000126036846EA064601E050F8043F83EAA0
:103940000605A5F10134A3F1013224EA050422EAB7
:103950000303234313F0803FEFD0037823B932E011
:1039600010F8013F002B2ED09942F9D170BC70475E
:1039700084070BD00378002BF8D0431C03E00278B7
:103980000133002AF2D099071846F8D10268A2F153
:10399000013323EA020313F0803F08D150F8042FCB
:1039A000A2F1013323EA020313F0803FF6D003783B
:1039B000002BDBD010F8013F002BFBD170BC70470F
:1039C000104670BC7047184670BC704720F0030169
:1039D00010F00300C0F1000051F8043B00F1040CAA
:1039E0004FEACC0C6FF000021CBF22FA0CF213431A
:1039F0004FF0010C4CEA0C2C4CEA0C4CA3EB0C02E3
:103A000022EA030212EACC1204BF51F8043B04304C
:103A1000F4D0C2F1000102EA0102B2FA82F2C2F16C
:103A20001F0200EBD200704799B103789BB110B42C
:103A30000144431C02E01C78013334B18B421A4626
:103A4000F9D1181A5DF8044B7047101A5DF8044B51
:103A50007047084670471846704700BF10000000C6
:103A600000000000017A5200027C0E011B0C0D00C8
:103A700020000000180000006CFBFFFFBA010000EE
:103A800000024D0E048501027F0A41C50E00410B64
:043A90004EC50E0011
:103A9800030406080C101820300000000000000085
:103AA80000000000010203040607080900000000E6
:103AB800010203040000000000000080FB380B38FE
:103AC800000000409D034138000000A08444753880
:103AD800000000C0A595AA38000000A0879DE03826
:103AE80000000080E9C41439000000E023F64939D9
:103AF80000000060D6398039000000004C48B43915
:103B0800000000005F5AE939000000C0F6B01F3A13
:103B1800000000409ACE533A000000C040C2883AE4
:103B280000000000D1F2BE3A000000A0C257F33AEC
:103B380000000040B32D283B0000002020395E3BE8
:103B480000000000B4E3923B00000000A19CC73BCA
:103B580000000040C983FD3B000000E05D72323C7C
:103B680000000040F50E673C000000A0B2D29C3C6B
:103B7800000000A0AF03D23C000000809B84063DFB
:103B880000000060C2253C3D000000809997713D0F
:103B9800000000E07FFDA53D000000E0DF7CDB3D8C
:103BA800000000E00B2E113E000000E08E79453E3B
:103BB800000000A0F2D77A3E000000A0F7C6B03E91
:103BC80000000080B5F8E43E000000E0E2361A3F4D
:103BD800000000E04D62503F00000040E17A843F61
:103BE800000000A09999B93F000000000000F03FD4
:103BF80000000000000024400000000000005940C0
:103C08000000000000408F40000000000088C34012
:103C180000000000006AF8400000000080842E4187
:103C280000000000D01263410000000084D79741D3
:103C38000000000065CDCD41000000205FA00242D9
:103C4800000000E076483742000000A0941A6D4258
:103C5800000000E09C30A24200000020C4BCD64214
:103C680000000020F56B0C430000004079C341437D
:103C78000000008057347643000000606DC1AB43FC
:103C880000000060E458E143000000801DAF1544C7
:103C9800000000E0E41A4B4400000000CFF080442C
:103CA800000000C0022DB544000000804378EA44BB
:103CB800000000202A8B2045000000C0F4AD5445C8
:103CC800000000E071D9894500000020E727C045C1
:103CD80000000000E131F44500000040593E29464B
:103CE80000000080EF8D5F46000000C0B5B8934625
:103CF80000000020E3A6C846000000E09BD0FE4676
:103D08000000008061423347000000C0F912684794
:103D180000000040B8179E4700000020D3CED247CD
:103D2800200003008203820303004000400040009B
:103D3800020001000100110040000A000A00010011
:103D480020002100400040004000400040001100D9
:103D58000100010082038203010003000300400008
:103D68002000430043004300430043004300430056
:103D78004300430003004300430040004000430069
:103D88002300230043004300430043004300430053
:103D98004300430003000300430003000300430003
:103DA800000000000000000000000000000000000B
:103DB8000000000000000000000043004300430032
:103DC8004300430000000000000000000000000065
:103DD80000000000000000000000000000000000DB
:103DE8002D00000025642E25642E25642E256400F0
:103DF8003031323334353637383961626364656659
:103E08000000000023307825303478202D20000071
:103E180025303278200000002D2D20003A200000A7
:103E2800256300002E0000003E0000000A3E00004E
:103E38006C6F672020202020202020202020202098
:103E480020203A207374617274206C6F6767696E02
:103E58006720746F205541525420262073656E6484
:103E6800696E6720646174610A0000007120202077
:103E780020202020202020202020202020203A2020
:103E880073746F70206C6F6767696E6720746F203A
:103E98005541525420262073656E64696E6720640C
:103EA8006174610A0000000068656C7020202020A1
:103EB800202020202020202020203A2074686973A8
:103EC8002068656C700A000076657273696F6E20F1
:103ED800202020202020202020203A207665727380
:103EE800696F6E20696E666F726D6174696F6E0AB4
:103EF80000000000625F726573657400625F636D45
:103F080064000000625F646174000000625F7064B6
:103F180000000000625F707500000000625F636C63
:103F280000000000625F616476000000625F616407
:103F3800766F0000706F6C6C5F6F6E00706F6C6CEA
:103F48005F6F666600000000706400007374617241
:103F5800740000006C6F67007100000068656C7089
:103F68000000000076657273696F6E002D20536F34
:103F78006C617220424C45204A6967202D207631B9
:103F88002E30202D204170722031312032303230D5
:103F9800202D207262202D0A000000001B5B3335A3
:103FA8006D25731B5B33306D0A000000656E61621E
:103FB8006C6520706173732D746872750000000061
:103FC8006C6561766520706173732D746872750015
:103FD8002D2D20636F6D6D6F6E20444D41207265ED
:103FE80067697374657273202D2D0A00444D415F13
:103FF80049535220202020202020203A20253038E4
:104008006C780A00444D415F4946435220202020E5
:104018002020203A202530386C780A002D2D2044A5
:104028004D4131204368616E6E656C312072656761
:10403800697374657273202D2D0A0000444D413157
:104048005F4348315F4343522020203A20253038CF
:104058006C780A00444D41315F4348315F434E4418
:104068005452203A202530386C780A00444D4131AA
:104078005F4348315F4350415220203A2025303871
:104088006C780A00444D41315F4348315F434D41EC
:104098005220203A202530386C780A005644444192
:1040A8003A2025312E32662056736F6C3A2025311E
:1040B8002E326620566261743A2025312E326620EF
:1040C80056616D623A2025312E32660A00000000E2
:1040D80025642000202000002D2D2041444320721B
:1040E8006567697374657273202D2D0A00000000DE
:1040F800414443315F5352202020203A2025303854
:104108006C780A00414443315F4352312020203A01
:10411800202530386C780A00414443315F435232DD
:104128002020203A202530386C780A004144433159
:104138005F534D505231203A202530386C780A00B0
:10414800414443315F534D505232203A2025303894
:104158006C780A00414443315F534D505233203A42
:10416800202530386C780A00414443315F5351525E
:104178003120203A202530386C780A0041444331F8
:104188005F5351523220203A202530386C780A008B
:10419800414443315F5351523320203A202530386F
:1041A8006C780A00414443315F5351523420203A1D
:1041B800202530386C780A00414443315F5351520E
:1041C8003520203A202530386C780A0041444331A4
:1041D8005F4452202020203A202530386C780A008D
:1041E8004144435F435352202020203A2025303851
:1041F8006C780A004144435F434352202020203A10
:10420800202530386C780A0023424C453A206861F2
:104218007264776172652072657365740A000000C4
:104228002424240023424C453A20656E746572208C
:10423800636F6D6D616E64206D6F64650A000000C8
:104248002D2D2D0D0000000023424C453A20656EAF
:104258007465722064617461206D6F64650A000082
:1042680023424C453A20656E746572206C6F772046
:10427800706F776572206D6F64650A00534F2C313B
:104288000D00000023424C453A206C65617665209C
:104298006C6F7720706F776572206D6F64650A00A8
:1042A8004B2C310D0000000023424C453A20636C32
:1042B8006F736520636F6E6E656374696F6E2077C8
:1042C8006974682043656E7472616C0A00000000AE
:1042D8007E00000023424C453A204552524F52205E
:1042E8002D206D6F64756C6520726573706F6E73C9
:1042F800652074696D656F75740A00002553545202
:1043080045414D5F4F50454E250000002544495317
:10431800434F4E4E4543542500000000424C452073
:10432800706F6C6C206F6E0A00000000424C4520D4
:10433800706F6C6C206F66660A000000412C30318B
:1043480030300D0023424C453A207374617274205A
:10435800616476657274697A696E670A00000000A4
:10436800590D000023424C453A2073746F70206148
:104378006476657274697A696E670A00543A202512
:10438800322E3266202552483A2025322E316620B8
:1043980000000000002020202020202020202828A5
:1043A80028282820202020202020202020202020ED
:1043B800202020202088101010101010101010102D
:1043C800101010101004040404040404040404105D
:1043D80010101010101041414141414101010101EB
:1043E80001010101010101010101010101010101B5
:1043F80010101010101042424242424202020202C1
:104408000202020202020202020202020202020284
:104418001010101020000000000000000000000034
:104428000000000000000000000000000000000084
:104438000000000000000000000000000000000074
:104448000000000000000000000000000000000064
:104458000000000000000000000000000000000054
:104468000000000000000000000000000000000044
:104478000000000000000000000000000000000034
:104488000000000000000000000000000000000024
:0844980000000000000000001C
:0844A00068FF1F009C430008A7
:00000001FF
