:020000040800F2
:10000000008000200D3800085138000851380008E1
:10001000513800085138000851380008000000002D
:10002000000000000000000000000000513800083F
:10003000513800080000000051380008513800080D
:10004000513800085138000851380008513800086C
:10005000513800085138000851380008513800085C
:10006000513800085138000851380008513800084C
:10007000513800085138000851380008513800083C
:10008000513800085138000851380008513800082C
:10009000513800085138000851380008513800081C
:1000A000000000005138000851380008513800089D
:1000B00051380008513800085138000851380008FC
:1000C00051380008513800085138000851380008EC
:1000D0005138000851380008350C00087D0D000823
:1000E00051380008513800085138000851380008CC
:1000F0005D0B00080000000051380008513800086E
:1001000000000000000000005138000851380008CD
:10011000513800085138000851380008000000002C
:10012000513800080000000000000000000000003E
:0C01300000000000000000005FF808F173
:10014000104B10B41968104A41F480711960996815
:100150000E480A409A601A68002422F0885222F061
:1001600001121A601A684FF0006122F480221A60AE
:100170009A6822F47D029A60DC6081605DF8044B2D
:10018000704700BF003802400CC0FF8800ED00E05F
:100190001C4B10B49B6803F00C030C2B16D8DFE843
:1001A00003F01515151507151515071515151F005D
:1001B000154A1648134B16499B685DF8044BC3F368
:1001C000031303441B7BDA400A6070470D4B4FF466
:1001D00000425B680D48C3F3423301339A40E9E7BC
:1001E000084B0A489A680849C2F38342845C9A68BB
:1001F00001FB04F1C2F381520132B1FBF2F29B68C0
:10020000D8E700BF0038024000127A00B03A000878
:1002100000000020000000002DE9F04F431E83B0D5
:100220008246002400E0013413F8010F2028A0F1D9
:100230000902F8D0012AF6D92B2800F09F802D283A
:1002400000F0A480644B0022CDE90023A0F130032C
:10025000092B4FF000064FF0000700F2B480DFF8E2
:1002600088810AEB040B2625002D05F1FF35A0F14E
:100270003000C5F14B0904F101040DDB02F0CCFBA9
:10028000D8E9002302F02EFC02460B4630463946E0
:1002900002F076FA06460F461BF8010FA8F108088F
:1002A000A0F13003092BDFD92E2808BF01341AF83A
:1002B00004300AEB040BA3F13000C2B2092A1FD8A4
:1002C000464B03EBC508002D04F1010405F1FF3591
:1002D0000DDB02F0A1FBD8E9002302F003FC02468B
:1002E0000B463046394602F04BFA06460F461BF8DD
:1002F000013FA8F10808A3F13000C2B2092AE2D9EF
:1003000003F0DF03452B18D0B9F14B0F0FDC334B53
:10031000304603EBC9093946D9E9002302F0E2FB74
:10032000DDE9002302F0DEFB03B0BDE8F08FB9F198
:100330004C0F33D000202A49F2E7631C1AF803203F
:100340002B2A35D02D2A38D00121A2F130000928DE
:10035000DAD89A44002303EB830302EB43031AF831
:10036000012F303BA2F130000928F4D903FB019999
:10037000B9F1000FC8DA00200021D1E7164B013493
:1003800000221AF80400CDE900235FE7154B013481
:1003900000221AF80400CDE9002357E70CA3D3E9A3
:1003A00000233046394602F00FFE0028AFD1C1E7E6
:1003B000A31C1AF803200121C7E7A31C1AF8032085
:1003C0004FF0FF31C1E74FF0250926256CE700BF4C
:1003D000000000A0FB38FB3F0000F03FD83A0008C7
:1003E0000000F07F0000F0BF083C0008AFF3008081
:1003F0002DE9F04F87B0109F119E04468846009269
:1004000033EA230528BF062538463146002200235B
:1004100002F0DAFD002840F0128138463146002211
:10042000002302F0C7FD00283ED1DFF88C92384649
:10043000D9E90023314602F0C7FD002800F02181F0
:100440004FF04C0B0EE079E90223384631460BF1B0
:10045000FF3B02F0B9FD002800F0BE80BBF1000FA9
:1004600000F0FF80B8F1660FEDD1BBF1260FEADC9A
:10047000ABF1260AABF125094D44009AAB1C93421F
:10048000C0F2E380152300931225BBF1000F00F0AA
:10049000BA80854B4FF0010903EBCB0C03934FF06F
:1004A0006508DCE900231EE04FF001094FF0000A67
:1004B0004FF0260BB8F1670FDED0B8F1660FDBD036
:1004C0000135122DA8BF1225B8F1650F00F0D580B7
:1004D000754BC5F1270203EBCB0C4FF001090393D9
:1004E0000092DCE900233846314602F025FC039BEC
:1004F000009A064603EBC20B0F46DBE9000100221F
:100500006A4B02F0EFFA0B4602463946304602F0DB
:1005100037F904AA03F09EF9DDE9042306460F46E5
:10052000104619460022624BCDE9000102F060FD41
:1005300050B1DDE900013123237000225C4B02F051
:100540001DF9CDE904010134002D1BDD4FF0000B36
:10055000CB45DDE904010BF1010B00F0A18002F0B5
:100560005BFD30302070394630460022504B02F09F
:10057000B9FA04AA03F06EF9AB4504F1010406468A
:100580000F46E5D1B8F1660F21D06523BAF1000F0F
:10059000237004F10201B4BF2D232B2363700C469A
:1005A000444BB8BFCAF1000A83FB0A034FEAEA7260
:1005B000C2EBA303C3EB4312C3EB82020AF1300A7E
:1005C0000AEB420A303304F8023B81F801A0002311
:1005D000237007B0BDE8F08FB8F1670FABF1260AC2
:1005E000ABF125097FF469AFB9F1060F7FF744AF8E
:1005F0000135122DA8BF1225C5F127030093BBF1C9
:10060000000F7FF446AF284B3846D3E900890393A7
:10061000314642464B4602F0D7FC38B338463146A5
:100620000022234B02F05EFA6FF0260A42464B4648
:1006300007460E464FF001094FF0650853E72D239A
:10064000237006F100460134E7E6174BC5F1270297
:1006500003EBCB0C039300924FF06608DCE9002318
:1006600041E76FF024096FF0250A23E742464B4625
:100670004FF065084FF0010935E7C5F127030093F6
:1006800003E7B8F1670F06D04FF027094FF0260AAD
:100690004FF04C0B11E74FF0260A4FF04C0BA7E739
:1006A0002E23237001345AE7D83A00080000E03FB7
:1006B0000000244067666666383D00080C4B19460A
:1006C0001A6A42F400721A621A6842F001021A6051
:1006D0000B68074A9B07FBD54FF080739360536804
:1006E00023F460435360536843F4204353607047DE
:1006F00000380240064B4FF080729A605A6822F42C
:1007000060425A605A6842F420425A60704700BF03
:1007100000380240104B114A1946586A40F0805088
:100720005862106840F48070106012685A6B42F48E
:1007300080725A634B6B084A9B05FBD5536B074984
:1007400043F480335363536B43F4800353630B6868
:1007500023F480730B607047003802400070004043
:10076000064B1A46196A41F400711962196841F082
:100770000101196013689B07FCD5704700380240DF
:10078000024A136823F001031360704700380240E7
:100790000B494B680A4ADB06FBD41146136823F465
:1007A000C05343F4006313604B6813F01003FBD194
:1007B000044A054953609360D3608B60704700BF63
:1007C00000700040002004E000000140094B0122BD
:1007D0005A611A6822F001021A605A6842F0010256
:1007E0005A609A6842F001029A60DA6822F00102C7
:1007F000DA6070470004014008B50E4B1A6822F019
:1008000002021A601A6842F001021A605A6822F065
:1008100001025A601A6842F00C021A6000F0F6F801
:10082000FFF7D4FF044A136943F00403136120BFA8
:1008300008BD00BF0070004000ED00E0094B012240
:100840005A611A6822F001021A605A6822F0010205
:100850005A609A6822F001029A60DA6822F0010276
:10086000DA6070470004014008B5FFF7E7FF074A68
:10087000136923F004031361FFF772FF00F0E8F837
:10088000BDE808400A2000F0BFB900BF00ED00E05D
:10089000024A136843F4007313607047007000400D
:1008A000024A136823F4007313607047007000401D
:1008B000044B1A6842F001021A601A6842F480423E
:1008C0001A60704700700040044B1A6822F480429E
:1008D0001A601A6822F001021A6070470070004026
:1008E00007494B68064AD806FBD41146136823F41F
:1008F000C05343F4006313604B68DB06FCD47047BD
:10090000007000402DE9F04F4FF0000E83460F4677
:10091000F446F046F146724685B000200021CDE94C
:1009200000010297CDF80CB00299029B31F8020B3E
:100930004FEA820BC0F3C3101B78C0B2ABF12006A4
:100940000291CBF1200100FA06F520FA01F103F043
:10095000030A00FA0BF40D43C3F38100C3F3411102
:10096000C3F300135600934001320AFA06F7B04071
:10097000DDE900ABB1404AEA040A4BEA050B102A54
:10098000CDE900AB49EA070948EA00084EEA010E42
:100990004CEA030CC8D1DDF80CB0DDE90001CBF85E
:1009A0002000CBF82410CBF80090CBF80880CBF8CF
:1009B0000CE0CBF804C005B0BDE8F08F0F4A70B56D
:1009C000D3690F4C0F4E43F003030F4DD361204604
:1009D0003146FFF797FF06F120012846FFF792FF07
:1009E0004FF080604FF000714FF400724FF40063DD
:1009F000A061A161AA61A36170BD00BF003802407F
:100A000000000240403D00080004024010B50B4CBD
:100A10000B4804F14001FFF775FF04F1600109483C
:100A2000FFF770FF04F180010748FFF76BFF04F147
:100A3000A0010648BDE8104064E700BF403D000843
:100A4000000002400004024000080240001402407E
:100A500010B5054C05482146FFF754FF04F120016D
:100A60000348BDE810404DE7403D0008000002404B
:100A700000040240024B4FF400729A61704700BFBD
:100A800000000240024B4FF000729A61704700BFB5
:100A900000000240044B5A6992054CBF4FF00072AF
:100AA0004FF400729A6170470000024010B5054C87
:100AB0004FF40073A36100F0A7F84FF00073A36137
:100AC00010BD00BF00000240024B4FF480629A61EB
:100AD000704700BF00000240024B4FF080629A61F5
:100AE000704700BF00000240044B5A6952054CBFDA
:100AF0004FF080624FF480629A61704700000240BC
:100B000010B5054C4FF48063A36100F07DF84FF001
:100B10008063A36110BD00BF00000240024B4FF094
:100B200000629A61704700BF00000240024B4FF420
:100B300000629A61704700BF00000240024B4FF014
:100B400000729A61704700BF00040240024B4FF4EC
:100B500000729A61704700BF00040240114A124BB4
:100B6000002111611A780132D2B2092A1A705A781A
:100B700005D901200244D2B219705A7098700A2A1D
:100B8000DA7806D00A2A03D1012100225971DA70DD
:100B9000704701200244D2B20021DA7018715970F6
:100BA000F0E700BF0014004018000020F0B50C4D25
:100BB0000C4B686A0C490D4E0122002440F03000B5
:100BC0004FF4806E4FF4805768628C624A610A600D
:100BD0009C62C3F82CE05A61DA601A607760F0BD5D
:100BE00000380240001400400010004000E100E026
:100BF000044B1A465B6A184480B2536A1B1A1B04E2
:100C0000FBD470470010004010B409494FF6FF7440
:100C100007E04B6A03F206439BB24A6AD21A1204F7
:100C2000FBD4013880B2A042F3D15DF8044B704789
:100C300000100040194A10B41368990606D51849E7
:100C4000546848680A68121A7F2A17DD1B0612D5F5
:100C5000134BD3F88820D3F88C10914216D0D3F8D8
:100C600088200E4802F07F01194491F8901001325B
:100C7000C3F8882041605DF8044B70470A6802F0B1
:100C80007F000844013204720A60DFE7034A5DF81E
:100C9000044BD36823F08003D360704700440040C6
:100CA000200000204FF0FA73B3FBF0F0F0B44AF2EA
:100CB0002C07084C084B626A084D0021402642F47C
:100CC0000032C0086262596119619860DF606E602D
:100CD000F0BC7047003802400044004000E100E0F2
:100CE0000A2810B5044616D00D48D0F88C20D0F84C
:100CF00088300B49D31A7F2BF9DC02F07F030B44B9
:100D0000084883F89040C368013243F08003C1F87B
:100D10008C20C36010BD0D20FFF7E2FFE4E700BFA9
:100D2000200000200044004010B504460078013443
:100D300028B1FFF7D5FF14F8010B0028F9D110BD39
:100D4000074A11685368994206D003F07F011144A5
:100D50000133087A536070474FF0FF30704700BF8F
:100D600020000020044AD2F88C10D2F888308B4240
:100D7000FBD10020704700BF20000020194A10B4AA
:100D80001368990606D51849546848680A68121A03
:100D90007F2A17DD1B0612D5134BD3F88820D3F812
:100DA0008C10914216D0D3F888200E4802F07F01B3
:100DB000194491F890100132C3F8882041605DF821
:100DC000044B70470A6802F07F0008440132047245
:100DD0000A60DFE7034A5DF8044BD36823F0800321
:100DE000D360704700480040300100204FF0FA7394
:100DF000B3FBF0F0F0B44AF22C07084C084B626ADF
:100E0000084D0021802642F48022C00862625961A8
:100E100019619860DF606E60F0BC70470038024076
:100E20000048004000E100E00A2810B5044616D052
:100E30000D48D0F88C20D0F888300B49D31A7F2B7E
:100E4000F9DC02F07F030B44084883F89040C36844
:100E5000013243F08003C1F88C20C36010BD0D2027
:100E6000FFF7E2FFE4E700BF300100200048004048
:100E7000044AD2F88C10D2F888308B42FBD1002083
:100E8000704700BF3001002010B5044600780134DF
:100E900028B1FFF7C9FF14F8010B0028F9D110BDE4
:100EA000074A11685368994206D003F07F01114444
:100EB0000133087A536070474FF0FF30704700BF2E
:100EC000300100200EB400B582B003AB53F8041B10
:100ED0001A46019300F006F802B05DF804EB03B087
:100EE000704700BF2DE9F04F8946934604468DB008
:100EF000039099F8003009F1010253B1252B0ED06F
:100F00009146237099F80030013409F10102002B59
:100F1000F4D12370039BE01A0DB0BDE8F08F99F86F
:100F20000130302B18BF4FF0000E05D112F8013FF1
:100F3000302BFBD04FF0010EA3F13001C8B20928CD
:100F40004FF000060AD812F8013F06EB860601EBC7
:100F50004606A3F13001C8B20928F4D92E2B32D0AD
:100F600011784FF0FF3501F0FB03682B04BF517877
:100F70000132A1F1580302F10109202B00F2FD809A
:100F8000DFE813F0EA00FB00FB00FB00FB00FB00C6
:100F9000FB00FB00FB00FB00FB0092003600D400CE
:100FA000D400D400FB00BC00FB00FB00FB00FB00F6
:100FB000FB00FB00AD00FB00FB009E00FB003600C9
:100FC000FB00FB00EA0051780025A1F13000C3B21C
:100FD000092B02F10102C6D812F8011F05EB8505A5
:100FE00000EB4505A1F13000C3B2092BF4D9BAE7F3
:100FF0000BF1040364299A464FF00A00DBF8003035
:1010000000F0B480DFF8BC8100228DF82F20002B87
:1010100000F0CA80DFF8B0C10DF12F07B3FBF0F28A
:1010200000FB12331CF80310134607F8011D002AB9
:10103000F4D16B1C00F0A480D3466FF00041384619
:1010400002F0FEFC02464046AD1A029202F0CAFCD3
:10105000029A25EAE57598F80030301AA918401A66
:101060002BB104F8013B18F8013F002BF9D1002DFA
:1010700000F093802544302304F8013BAC42FBD1BF
:10108000002A08DD6B1EBC1817F8011BA74203F8E5
:10109000011FF9D1154400287DDD2C18202305F807
:1010A000013BA542FAD124E7DBF800300CAF012167
:1010B00007F8203D0BF1040B0025DFF80881BEE79F
:1010C0006A1C0BF10403DBF8007019BF29469B462C
:1010D0009B466FF000410025DFF8E880AFE7002273
:1010E000DBF800308DF82F200BF104029246002B24
:1010F0005DD0DFF8D080102008258BE7DBF80030CA
:101100000BF1040CC3F307411A0E8DE8060004A886
:10111000DAB22B49C3F30723E34607460025FFF75E
:10112000D1FEDFF8A0806FF0004188E70BF1070CDB
:101130002CF0070CDCE900AB2B46CDE900AB04A892
:1011400020220CF1080B07460025FFF751F9DFF8C4
:1011500074806FF0004172E70BF1040364299A4632
:101160004FF01000DBF800307FF44CAF002BBFF6DF
:1011700049AF5B42DFF8548046E721700134B8E69E
:10118000BEF1000F0BD0404602F02CFCD346351ABE
:101190006FF0004153E72C46ABE6254670E7D34697
:1011A0006FF0004101254AE70DF12F0741E7934613
:1011B0006FF0004108250DF12F07DFF808803EE7AA
:1011C000043E000848400008103E0008003E0008A9
:1011D0000FB410B582B004AB53F8041B084C1A4688
:1011E00020460193FFF77EFE2046FFF79DFD204637
:1011F00002F0F8FB02B0BDE8104004B0704700BF39
:1012000040020020A0B10EB400B582B004AB1A4673
:10121000039909480193FFF765FE0748FFF784FD2E
:10122000054802F0DFFB02B05DF804EB03B0704745
:101230004FF0FF30704700BF400300200EB400B5F0
:1012400082B004AB1A460449019300F007F802B0DB
:101250005DF804EB03B07047043E00082DE9F04F41
:101260008946934604468DB0039099F8003009F101
:10127000010253B1252B0ED09146237099F800300E
:10128000013409F10102002BF4D12370039BE01A11
:101290000DB0BDE8F08F99F80130302B18BF4FF03A
:1012A000000E05D112F8013F302BFBD04FF0010E9C
:1012B000A3F13001C8B209284FF000060AD812F88D
:1012C000013F06EB860601EB4606A3F13001C8B2EA
:1012D0000928F4D92E2B32D011784FF0FF3501F0C8
:1012E000FB03682B04BF51780132A1F1580302F1CE
:1012F0000109202B00F2FD80DFE813F0EA00FB007B
:10130000FB00FB00FB00FB00FB00FB00FB00FB0005
:10131000FB0092003600D400D400D400FB00BC00D7
:10132000FB00FB00FB00FB00FB00FB00AD00FB0033
:10133000FB009E00FB003600FB00FB00EA0051783A
:101340000025A1F13000C3B2092B02F10102C6D879
:1013500012F8011F05EB850500EB4505A1F13000F2
:10136000C3B2092BF4D9BAE70BF1040364299A46F6
:101370004FF00A00DBF8003000F0B480DFF8BC81E9
:1013800000228DF82F20002B00F0CA80DFF8B0C1BA
:101390000DF12F07B3FBF0F200FB12331CF8031022
:1013A000134607F8011D002AF4D16B1C00F0A4803D
:1013B000D3466FF00041384602F042FB02464046F9
:1013C000AD1A029202F00EFB029A25EAE57598F832
:1013D0000030301AA918401A2BB104F8013B18F854
:1013E000013F002BF9D1002D00F0938025443023DC
:1013F00004F8013BAC42FBD1002A08DD6B1EBC188F
:1014000017F8011BA74203F8011FF9D11544002862
:101410007DDD2C18202305F8013BA542FAD124E7F5
:10142000DBF800300CAF012107F8203D0BF1040B75
:101430000025DFF80881BEE76A1C0BF10403DBF826
:10144000007019BF29469B469B466FF0004100255E
:10145000DFF8E880AFE70022DBF800308DF82F20BE
:101460000BF104029246002B5DD0DFF8D0801020F3
:1014700008258BE7DBF800300BF1040CC3F30741C0
:101480001A0E8DE8060004A8DAB22B49C3F307232D
:10149000E34607460025FFF7D1FEDFF8A0806FF096
:1014A000004188E70BF1070C2CF0070CDCE900ABDE
:1014B0002B46CDE900AB04A820220CF1080B07460F
:1014C0000025FEF795FFDFF874806FF0004172E7AA
:1014D0000BF1040364299A464FF01000DBF800304A
:1014E0007FF44CAF002BBFF649AF5B42DFF854806E
:1014F00046E721700134B8E6BEF1000F0BD040463C
:1015000002F070FAD346351A6FF0004153E72C46CB
:10151000ABE6254670E7D3466FF0004101254AE768
:101520000DF12F0741E793466FF0004108250DF1BB
:101530002F07DFF808803EE7043E00084840000817
:10154000103E0008003E00080FB410B582B004AB96
:1015500053F8041B084C1A4620460193FFF77EFE01
:101560002046FFF791FC204602F03CFA02B0BDE8AD
:10157000104004B0704700BFC003002000232DE9D5
:10158000F04F81460F4698468BB0464E00930DF1C2
:1015900026050DF1060423464FF6FF7223F8022FAD
:1015A000AB42FBD1102F61D8002367B109EB0302D6
:1015B00012F80810581C0AAA02EB4302C3B2BB423D
:1015C00022F8201CF2D3012301939DF80010364825
:1015D0000901FFF7FDFD0DF1060A4FF0000B0AE0CF
:1015E000FFF7F6FD0BF1010355455FFA83FB14D0BD
:1015F000BBF1080F51D03AF8021F2C480FFA81FEB8
:10160000BEF1FF3FC9B2EBD12948FFF7E1FD0BF175
:10161000010355455FFA83FBEAD12648FFF7D8FD61
:1016200003E0FFF7D5FDAC4210D034F8021F22488A
:10163000C9B22A2916D033680B445B7813F0970F90
:10164000EFD11E48FFF7C4FDAC42EED1009B1C4811
:1016500001330093FFF7BCFD019B002B99D00BB029
:10166000BDE8F08F1748FFF7B3FDDCE708F1FF3363
:1016700008F10F000DF106024B44484413F8011F16
:10168000834222F8021FF9D1103F08F1100800230D
:10169000BFB21FFA88F8019397E70B48FFF798FD50
:1016A000A9E700BF14000020243E0008303E0008D7
:1016B000383E00083C3E0008403E0008443E00081A
:1016C00078430008003E00082C3E0008F8B50C687E
:1016D0000D4606469449204601F09AFF002800F086
:1016E000D7802046914901F093FF002800F0C88080
:1016F00020468F4901F08CFF002800F0BA80204678
:101700008C4901F085FF28B9022E60D08A48FFF786
:101710001BFF2C682046894901F07AFF00287ED003
:101720002046874901F074FF002800F0838020469E
:10173000844901F06DFF002800F08780204682492F
:1017400001F066FF002800F08B8020467F4901F001
:101750005FFF30B9022E00F0D6807D48FFF7F4FE1F
:101760002C6820467B4901F053FF002800F0C6801A
:101770002046794901F04CFF002800F0B780204650
:10178000764901F045FF002800F0AB8020467449FF
:1017900001F03EFF002800F098802046714901F0DA
:1017A00037FF002800F0858020466F4901F030FFA8
:1017B00000287AD020466D4901F02AFF00286CD01D
:1017C00020466B4901F024FF00284DD0F8BD696820
:1017D0000B782D2B00F0A280034604460127CA5C3B
:1017E000A2F13003092B0FD82144002303EB83031C
:1017F00002EB430311F8012F303BA2F13004092C16
:10180000F4D907FB03F080B201465A48FFF79CFE6B
:101810002C684A49204601F0FBFE002880D156483A
:10182000FFF792FE2C684649204601F0F1FE0028A1
:101830007FF47DAF5148FFF787FE2C684149204671
:1018400001F0E6FE00287FF479AF4D48FFF77CFEFB
:101850002C683D49204601F0DBFE00287FF475AF7F
:1018600000F0CCFC2C6870E74648BDE8F840FFF774
:10187000AFBC4548FFF7ACFC00F000FC2C683EE72D
:101880004248FFF7A5FC4248FFF75EFE2C682FE7B1
:101890004048FFF759FE2C6823E73F48FFF798FCC4
:1018A0003E48FFF795FC2C688AE7FEF7A5FF2C68F9
:1018B00080E73B48FFF78CFC00F066FC6420FFF7F4
:1018C000A3F900F0DBFB2C686EE73648FFF780FCDD
:1018D00000F0E6FB6420FFF797F900F0CFFB2C68DF
:1018E0005BE73148FFF730FE2C684FE72F48FFF7E2
:1018F0006FFC2F48FFF728FE2C6840E72D48FFF7C4
:1019000023FE2C6834E700F0ABFB0A20FFF77CF9DC
:1019100029486968FFF718FE2C6822E701231C4656
:101920004FF0FF375BE700BF483E0008503E00081D
:10193000803E0008A43E0008BC3E0008C83E0008E7
:10194000DC3E0008E83E0008F83E0008003F0008C2
:10195000143F0008203F0008343F0008643F00089F
:10196000783F0008983F0008B83F0008BC3F0008D7
:1019700010400008AC3E0008D03E0008E03E0008E1
:10198000EC3E000818400008883E0008583E000859
:10199000743E00084C3E0008C43F0008E43F0008C5
:1019A000A03F0008803F00086C3F00083C3F000853
:1019B000543F0008283F0008083F00080148FFF78F
:1019C00007BC00BF4C4000080148FFF701BC00BF46
:1019D0005040000830B403782D2B18D00022114657
:1019E0000125825CA2F13004092C15D801440023A2
:1019F00003EB830302EB430311F8012F303BA2F109
:101A00003004092CF4D903FB05F030BC70470122E7
:101A100011464FF0FF35E4E70020F6E730B40378D5
:101A20002D2B18D0002211460125825CA2F1300432
:101A3000092C15D80144002303EB830302EB430375
:101A400011F8012F303BA2F13004092CF4D903FB2B
:101A500005F030BC7047012211464FF0FF35E4E736
:101A60000020F6E730B10378202B03D110F8013FB6
:101A7000202BFBD0704700BF10B32DE9F0410025AB
:101A800088462F460E1F03780446202B03D114F8F6
:101A9000013F202BFBD05BB12046202101F03CFF11
:101AA00048B10770013005F1010546F8044FEAD14D
:101AB0002846BDE8F08148F82540681CBDE8F08163
:101AC000704700BF00B101E6704700BF08B5044889
:101AD000FFF77EFBBDE808400248FFF779BB00BF77
:101AE000C43F0008E43F00080148FFF771BB00BF96
:101AF0001840000838B5FFF723F9002816DB0A283C
:101B00001CD00D281AD0082811D07F280FD0184BD0
:101B10001B6803445B7813F0970F07D0154A1378BE
:101B2000190603D4144C591CE054117038BD114AE5
:101B30001378002BFAD0013B137038BD0F48FFF724
:101B400047FB0C4B0C4C1D78002220460C4962557B
:101B50001A70FFF791FF0B4A106020B9BDE83840BA
:101B60000948FFF735BB0649FFF7B0FDF6E700BFB0
:101B7000140000201C0500202005002078430008E8
:101B8000F004002018050020504000080B4A70B4F3
:101B9000D4690B4B0B4D44F08074D46100264FF494
:101BA0002A64D2691E609D60D86059601C601A6802
:101BB00070BC42F001021A60704700BF003802405A
:101BC0000860024058240140024A136843F00103B0
:101BD00013607047086002400549064A0B6823F00D
:101BE00001030B60D36923F08073D361704700BF9A
:101BF000086002400038024010B5104C1048FFF752
:101C0000E7FA21680F48FFF7E3FA61680E48FFF72B
:101C1000DFFA0E48FFF7DCFAA1680D48FFF7D8FAA3
:101C2000E1680C48FFF7D4FA21690B48FFF7D0FAB6
:101C300061690A48BDE81040FFF7CABA0060024077
:101C4000544000087040000888400008A040000888
:101C5000C0400008D8400008F040000808410008D3
:101C60002DE9F0431448154B016ADFF86080DFF876
:101C700060E0134F134DDFF85CC0002241F40071A7
:101C80004FF400394FF440164FF480740162C8F8E5
:101C900004900D48C3F80CC00421C3F810E05F6144
:101CA0001E635A639A63DA631D645C609A60BDE8E0
:101CB000F043FFF76BBF00BF003802400024014033
:101CC0009224491271520200B405002000270140FD
:101CD0009224493A97244912F0B4134E33885D1C7C
:101CE000ADB20F2B35800AD8041F321D0C3054F8CA
:101CF000043F176884423B4442F8043BF7D1102D5F
:101D000001D0F0BC704709480A1F00250C31036858
:101D100000241B0942F8043F8A4240F8045BF6D1D4
:101D20003480F0BC704700BFC0040020C404002011
:101D300070B5FEF7F3FEC820FEF766FF144B0122D4
:101D40001E46144C9A601025B36843F0804343F458
:101D50004073B3602368990705D40A20FEF748FF53
:101D600023689A07F9D563680B4843F00203636060
:101D70000A49FFF7B1FF013DE6D105490B68044A66
:101D80005B06FBD500239360BDE87040FEF7CEBE36
:101D90000024014000600240B4050020A40500209A
:101DA0002DE9F041264E3368002B3DD140F2A4626C
:101DB000244B254FDFF8A4801A60244B244C18884C
:101DC00001F00CFA234901F05DFA0546706801F054
:101DD00001FA0146284601F055FA014601F04AF998
:101DE000394601F003FB6061B06801F0F3F9014688
:101DF000284601F047FA014601F03CF9394601F066
:101E0000F5FA4146A061284601F0F0FAE061F06879
:101E100001F0E0F90146284601F034FA394601F0B4
:101E2000E5FA2062BDE8F081064A1846136001F029
:101E3000D1F90949804601F025FA0746BDE700BF00
:101E4000A4050020A0050020B872D44AF800F81FAD
:101E5000C00400200000404000F07F450080D444D2
:101E600008B5FFF765FFBDE80840FFF799BF00BF61
:101E700008B5FEF753FEC820FEF7C6FE014B01224F
:101E80009A6008BD0024014004490B68034A5B06C0
:101E9000FBD500239360FEF749BE00BF002401403C
:101EA000034A0520536843F400035360FEF7ACBEB9
:101EB00000270140024A536823F40003536070472F
:101EC00000270140D0B50E4C86B0E06900F0B6FDA9
:101ED0000646A0690F4600F0B1FDCDE9000160693A
:101EE00000F0ACFDCDE90201206A00F0A7FD32460A
:101EF000CDE904013B460348FFF76AF906B0D0BDBF
:101F0000C004002020410008D0B50E4C86B0E06926
:101F100000F094FD0646A0690F4600F08FFDCDE964
:101F20000001606900F08AFDCDE90201206A00F03D
:101F300085FD3246CDE904013B460348FFF704FB2B
:101F400006B0D0BDC00400205441000838B50E4C86
:101F500004F1100554F8041B0C48FFF739F9AC42A2
:101F6000F8D10B48FFF734F90A4C04F1100554F886
:101F7000041B0648FFF72CF9AC42F8D1BDE8384005
:101F80000548FFF725B900BFB405002088410008C7
:101F90008C410008A40500207843000810B5204CAF
:101FA0002048FFF715F921681F48FFF711F961680C
:101FB0001E48FFF70DF9A1681D48FFF709F9E16810
:101FC0001C48FFF705F921691B48FFF701F9616912
:101FD0001A48FFF7FDF8216B1948FFF7F9F8616B14
:101FE0001848FFF7F5F8A16B1748FFF7F1F8E16B18
:101FF0001648FFF7EDF8216C1548FFF7E9F8A16DD9
:102000001448FFF7E5F8D4F800131348FFF7E0F899
:10201000D4F804131148BDE81040FFF7D9B800BF49
:102020000024014090410008A8410008BC4100087C
:10203000D0410008E4410008F84100080C420008C3
:102040002042000834420008484200085C42000870
:10205000704200088442000898420008AC42000820
:1020600008B50448FFF770FABDE8084000200249AF
:10207000FFF7C8B84C3E0008C042000810B5074C36
:102080004FF40033A3613220FEF7BEFD0223A361AB
:102090000A20BDE81040FEF7B7BD00BF00040240B3
:1020A00008B50448FFF750FABDE80840002002498F
:1020B000FFF7A8B8D4420008E042000810B5294C48
:1020C00023785BB96388052B08D8DFE803F0080E96
:1020D000132E0703FFF7D2FF0023638010BD0123F7
:1020E0006380FFF7DDFFFEF787FBFEF7BDFB0223F2
:1020F000638010BDFEF722FD1B490020FFF782F828
:10210000FFF7AEFE19490020FFF77CF800F0BCFA9B
:1021100017490020FFF776F8FEF718FD0020154953
:10212000FFF770F80323638010BD13491348FFF7CE
:102130000BFA114A11490020FFF764F86168104852
:10214000FFF702FA62680F490020FFF75BF800F022
:10215000EBFAFFF7D9FE6368052201336360628002
:1021600010BD00BFE4040020FC4200081843000832
:102170002C43000844430008040000206443000886
:10218000884100086C43000808B50448FFF7DCF9F3
:10219000BDE8084000200249FFF734B8704300084A
:1021A0007C430008034B4FF480529A61002002499F
:1021B000FFF728B80004024098430008034B4FF093
:1021C00080529A6100200249FFF71CB800040240C7
:1021D000B443000808B5FFF743FF0A20FEF714FDDB
:1021E0000448FFF7B1F9BDE8084000200249FFF7B5
:1021F00009B800BF143F0008CC4300080148024959
:10220000FEF7E6BFE04300080400002010B50446D6
:10221000FFF726FF0A20FEF7F7FC21460448FFF7E8
:1022200093F9BDE8104000200249FEF7EBBF00BF64
:10223000AC3E0008EC43000808B5FFF71FFF4FF461
:10224000FA70FEF7E1FCFFF7C5FF4FF47A70FEF776
:10225000DBFC40F2EE20FFF7D9FFBDE808404FF469
:102260007A70FEF7D1BC00BFF0B5002485B00094B1
:1022700001940294039400293FD00D46204906465C
:1022800001F0C6F9C8B34FF0FF3723463846F119BD
:1022900005E03D2A08BF1F460133AB4207D011F8C5
:1022A000012F2B2AF5D118460133AB42F7D1421C3E
:1022B00023D07B1C21D0431C381A834209DA3344D3
:1022C00030440DF1FF3213F8011B834202F8011F65
:1022D000F9D168460B4901F09BF970B97B1CAB4200
:1022E0000BDA094AAB1EDB1B1344F019013A10F854
:1022F000011F02F8011F9A42F9D105B0F0BD00BFDD
:1023000004440008084400080400002038B5FEF723
:10231000C7FD002812DB0A2811D0134B1B680344A9
:102320005B7813F0970F09D0104A1378FF2B05D074
:102330007E2803D00E4C591CE054117038BD0B4C54
:102340000C4B21780A481A78002545540AB91B7AA3
:1023500023B107490848FEF73BFF21780448FFF7FF
:1023600083FF0023237038BD14000020C405002023
:10237000C8050020E4040020103F000870B50B4D94
:102380008023AB610A20FEF733FC09244FF48076EA
:102390000A20AE61FEF72CFC4FF08073AB610A207F
:1023A000FEF726FC013CF3D170BD00BF00040240E3
:1023B00070B5114C4FF48076A6610A20FEF718FC28
:1023C0004FF40003A3614FF080750A20FEF710FC64
:1023D000A5610A20FEF70CFCA6610A20FEF708FCA6
:1023E0008023A3610A20FEF703FCA5610A20BDE853
:1023F0007040FEF7FDBB00BF00040240704700BF05
:102400002DE9F843254D80230746AB610A20FEF7EE
:10241000EFFB4FF0080800244FF480760A20AE61ED
:10242000FEF7E6FB2A69640012F0800F4FF080731C
:10243000E4B218BF0134AB614FF00A0018BFE4B238
:10244000FEF7D6FB08F1FF3313F0FF08DFF84C90DE
:10245000E4D1D7B98023C9F818300A20FEF7C8FBA9
:102460000E4D4FF48073AB610A20FEF7C1FB4FF0B5
:102470008073AB610A20FEF7BBFB8023AB610A20AF
:10248000FEF7B6FB2046BDE8F8834FF40003C9F819
:1024900018300A20FEF7ACFBE2E700BF0004024060
:1024A0002DE9F8430546224F08244FF080790A2091
:1024B000C7F81890FEF79CFB15F0800F4FF400034F
:1024C00018BF8023BB610A204FF48076FEF790FB93
:1024D000BE610A20FEF78CFB631E6D0013F0FF0443
:1024E000EDB2DFF84C80E2D14FF080778025C8F85C
:1024F00018700A20FEF77CFBC8F818500A20FEF777
:1025000077FBC8F818600A20FEF772FBD8F8104075
:102510000A20C8F81870FEF76BFBC8F818500A209C
:10252000FEF766FB84EA0500C0F3C010BDE8F8833F
:102530000004024008B5FFF721FFFFF739FF06202E
:10254000FFF7AEFFBDE808400020FFF7A9BF00BFBE
:1025500038B50446134DFFF72BFF2046FFF7A0FFC9
:102560002B691A060ED50120FEF74EFB4FF4FA74C4
:1025700004E0013CA4B2FEF747FB8CB12B690120BB
:102580001B06F6D40120FFF73BFF05460120FFF7AD
:1025900037FF04460020FFF733FF04EB0524A4B205
:1025A000204638BD0004024008B50320FFF7D0FFE5
:1025B00058B100F00FFE064900F018FF054900F081
:1025C00057FD054900F054FD08BD044808BD00BF93
:1025D0000000C84266662042CDCCCC3DE1FAC7423D
:1025E00070B50520FFF7B4FF002837D000F0F6FDE6
:1025F0001D49044600F046FE4FF0814100F038FDD1
:102600001A490546204600F03DFE0146204600F0EE
:1026100039FE0146284600F02BFD154B05461549AD
:10262000186800F025FD14490646204600F02AFEF1
:10263000124900F01FFD0146304600F023FE2946F6
:1026400000F018FD0021044600F0BAFF40B9204612
:102650000B4900F0D3FF28B1094870BD094870BD8F
:10266000002070BD204670BD54E3253DA2E73B36F7
:10267000CC0600200000C841ACC5A7380AD7233CCF
:102680000000C842E1FAC74208B5FFF78DFF034BCF
:102690001860FFF7A5FF024B186008BDCC060020AC
:1026A000C8060020034B4FF080729A610A20FEF7A3
:1026B0009FBA00BF00040240034B4FF480729A613E
:1026C0000A20FEF795BA00BF00040240034B4FF406
:1026D00000029A610A20FEF78BBA00BF0004024094
:1026E000024B80229A610A20FEF782BA000402405F
:1026F00030B50A4B83B0186800F0A0F9084B0446C7
:1027000018680D4600F09AF92246CDE900012B46E3
:102710000448FEF75DFD03B030BD00BFCC060020CD
:10272000C80600201044000830B50A4B83B0186872
:1027300000F084F9084B044618680D4600F07EF955
:102740002246CDE900012B460448FEF7FDFE03B00A
:1027500030BD00BFCC060020C80600201044000891
:102760002C45000800000020180000201800002060
:10277000D006002081F0004102E000BF83F000435A
:1027800030B54FEA41044FEA430594EA050F08BF0C
:1027900090EA020F1FBF54EA000C55EA020C7FEAD0
:1027A000645C7FEA655C00F0E2804FEA5454D4EB4D
:1027B0005555B8BF6D420CDD2C4480EA020281EA17
:1027C000030382EA000083EA010180EA020281EA4F
:1027D0000303362D88BF30BD11F0004F4FEA0131A1
:1027E0004FF4801C4CEA113102D0404261EB4101B0
:1027F00013F0004F4FEA03334CEA133302D0524236
:1028000063EB430394EA050F00F0A780A4F10104F1
:10281000D5F1200E0DDB02FA0EFC22FA05F280182B
:1028200041F1000103FA0EF2801843FA05F3594111
:102830000EE0A5F120050EF1200E012A03FA0EFC90
:1028400028BF4CF0020C43FA05F3C01851EBE371BA
:1028500001F0004507D54FF0000EDCF1000C7EEBD7
:1028600000006EEB0101B1F5801F1BD3B1F5001F15
:102870000CD349085FEA30004FEA3C0C04F1010434
:102880004FEA445212F5800F80F09A80BCF1004F5D
:1028900008BF5FEA500C50F1000041EB045141EADF
:1028A000050130BD5FEA4C0C404141EB010111F4E0
:1028B000801FA4F10104E9D191F0000F04BF01468B
:1028C0000020B1FA81F308BF2033A3F10B03B3F169
:1028D00020020CDA0C3208DD02F1140CC2F10C02F9
:1028E00001FA0CF021FA02F10CE002F11402D8BF57
:1028F000C2F1200C01FA02F120FA0CFCDCBF41EA23
:102900000C019040E41AA2BF01EB0451294330BDF1
:102910006FEA04041F3C1CDA0C340EDC04F11404CE
:10292000C4F1200220FA04F001FA02F340EA0300A5
:1029300021FA04F345EA030130BDC4F10C04C4F1EB
:10294000200220FA02F001FA04F340EA03002946CB
:1029500030BD21FA04F0294630BD94F0000F83F415
:10296000801306BF81F480110134013D4EE77FEAF8
:10297000645C18BF7FEA655C29D094EA050F08BF44
:1029800090EA020F05D054EA000C04BF1946104625
:1029900030BD91EA030F1EBF0021002030BD5FEA69
:1029A000545C05D14000494128BF41F0004130BD91
:1029B00014F580043CBF01F5801130BD01F00045E5
:1029C00045F0FE4141F470014FF0000030BD7FEA58
:1029D000645C1ABF194610467FEA655C1CBF0B4653
:1029E000024650EA013406BF52EA033591EA030F6A
:1029F00041F4002130BD00BF90F0000F04BF002162
:102A0000704730B54FF4806404F132044FF0000594
:102A10004FF0000150E700BF90F0000F04BF00210D
:102A2000704730B54FF4806404F1320410F0004573
:102A300048BF40424FF000013EE700BF42004FEA6E
:102A4000E2014FEA31014FEA02701FBF12F07F43EB
:102A500093F07F4F81F06051704792F0000F14BFE8
:102A600093F07F4F704730B54FF4607401F000452C
:102A700021F0004120E700BF50EA010208BF704783
:102A800030B54FF000050AE050EA010208BF704778
:102A900030B511F0004502D5404261EB41014FF4E1
:102AA000806404F132045FEA915C3FF4DCAE4FF0E5
:102AB00003025FEADC0C18BF03325FEADC0C18BFCC
:102AC000033202EBDC02C2F1200300FA03FC20FA1D
:102AD00002F001FA03FE40EA0E0021FA02F114446A
:102AE000C1E600BF70B54FF0FF0C4CF4E06C1CEA7F
:102AF00011541DBF1CEA135594EA0C0F95EA0C0FF4
:102B000000F0DEF82C4481EA030621EA4C5123EA66
:102B10004C5350EA013518BF52EA033541F4801195
:102B200043F4801338D0A0FB02CE4FF00005E1FB48
:102B300002E506F00042E0FB03E54FF00006E1FB92
:102B400003569CF0000F18BF4EF0010EA4F1FF04D5
:102B5000B6F5007F64F5407404D25FEA4E0E6D4115
:102B600046EB060642EAC62141EA55514FEAC52026
:102B700040EA5E504FEACE2EB4F1FD0C88BFBCF5A2
:102B8000E06F1ED8BEF1004F08BF5FEA500E50F153
:102B9000000041EB045170BD06F0004646EA010119
:102BA00040EA020081EA0301B4EB5C04C2BFD4EB4B
:102BB0000C0541EA045170BD41F480114FF0000E44
:102BC000013C00F3AB8014F1360FDEBF002001F0B2
:102BD000004170BDC4F10004203C35DA0C341BDC2C
:102BE00004F11404C4F1200500FA05F320FA04F0FE
:102BF00001FA05F240EA020001F0004221F0004132
:102C000010EBD37021FA04F642EB06015EEA430EA4
:102C100008BF20EAD37070BDC4F10C04C4F12005D4
:102C200000FA04F320FA05F001FA04F240EA020087
:102C300001F0004110EBD37041F100015EEA430E58
:102C400008BF20EAD37070BDC4F1200500FA05F278
:102C50004EEA020E20FA04F301FA05F243EA0203F7
:102C600021FA04F001F0004121FA04F220EA020006
:102C700000EBD3705EEA430E08BF20EAD37070BD4C
:102C800094F0000F0FD101F00046400041EB01012C
:102C900011F4801F08BF013CF7D041EA060195F00E
:102CA000000F18BF704703F00046520043EB0303C8
:102CB00013F4801F08BF013DF7D043EA06037047B5
:102CC00094EA0C0F0CEA135518BF95EA0C0F0CD0C0
:102CD00050EA410618BF52EA4306D1D181EA030106
:102CE00001F000414FF0000070BD50EA410606BF00
:102CF0001046194652EA430619D094EA0C0F02D145
:102D000050EA013613D195EA0C0F05D152EA033689
:102D10001CBF104619460AD181EA030101F00041A7
:102D200041F0FE4141F470014FF0000070BD41F0F0
:102D3000FE4141F4780170BD70B54FF0FF0C4CF4CA
:102D4000E06C1CEA11541DBF1CEA135594EA0C0FE9
:102D500095EA0C0F00F0A7F8A4EB050481EA030E36
:102D600052EA03354FEA013100F088804FEA03331D
:102D70004FF0805545EA131343EA12634FEA0222EB
:102D800045EA111545EA10654FEA00260EF00041AC
:102D90009D4208BF964244F1FD0404F5407402D2FE
:102DA0005B084FEA3202B61A65EB03055B084FEA8F
:102DB00032024FF480104FF4002CB6EB020E75EB8C
:102DC000030E22BFB61A754640EA0C005B084FEAB4
:102DD0003202B6EB020E75EB030E22BFB61A754631
:102DE00040EA5C005B084FEA3202B6EB020E75EB7C
:102DF000030E22BFB61A754640EA9C005B084FEAF4
:102E00003202B6EB020E75EB030E22BFB61A754600
:102E100040EADC0055EA060E18D04FEA051545EAEF
:102E200016754FEA06164FEAC30343EA52734FEA98
:102E3000C2025FEA1C1CC0D111F4801F0BD141EA11
:102E400000014FF000004FF0004CB6E711F4801F76
:102E500004BF01430020B4F1FD0C88BFBCF5E06F56
:102E60003FF6AFAEB5EB030C04BFB6EB020C5FEA66
:102E7000500C50F1000041EB045170BD0EF0004EBB
:102E80004EEA113114EB5C04C2BFD4EB0C0541EAED
:102E9000045170BD41F480114FF0000E013C90E6EA
:102EA00045EA060E8DE60CEA135594EA0C0F08BFAE
:102EB00095EA0C0F3FF43BAF94EA0C0F0AD150EAAD
:102EC00001347FF434AF95EA0C0F7FF425AF104640
:102ED00019462CE795EA0C0F06D152EA03353FF468
:102EE000FDAE1046194622E750EA410618BF52EAE5
:102EF00043067FF4C5AE50EA41047FF40DAF52EAB9
:102F000043057FF4EBAE12E74FF0FF3C06E000BF55
:102F10004FF0010C02E000BF4FF0010C4DF804CD62
:102F20004FEA410C7FEA6C5C4FEA430C18BF7FEA22
:102F30006C5C1BD001B050EA410C0CBF52EA430C50
:102F400091EA030F02BF90EA020F0020704710F1D0
:102F5000000F91EA030F58BF994208BF90422CBF5F
:102F6000D8176FEAE37040F0010070474FEA410C58
:102F70007FEA6C5C02D150EA013C07D14FEA430C76
:102F80007FEA6C5CD6D152EA033CD3D05DF8040BE7
:102F9000704700BF8446104662468C461946634619
:102FA00000E000BF01B5FFF7B7FF002848BF10F1F0
:102FB000000F01BD4DF808EDFFF7F4FF0CBF012035
:102FC00000205DF808FB00BF4DF808EDFFF7EAFFB1
:102FD00034BF012000205DF808FB00BF4DF808ED6C
:102FE000FFF7E0FF94BF012000205DF808FB00BF61
:102FF0004DF808EDFFF7CEFF94BF012000205DF8EB
:1030000008FB00BF4DF808EDFFF7C4FF34BF0120F7
:1030100000205DF808FB00BF4FEA410212F50012E4
:1030200015D211D56FF47873B3EB625212D94FEA0F
:10303000C12343F0004343EA505311F0004F23FAF9
:1030400002F018BF404270474FF00000704750EA4E
:10305000013005D111F0004008BF6FF0004070470B
:103060004FF00000704700BF80F0004002E000BF5A
:1030700081F0004142001FBF5FEA410392EA030F63
:103080007FEA226C7FEA236C6AD04FEA1262D2EBAD
:103090001363C1BFD218414048404140B8BF5B42B2
:1030A000192B88BF704710F0004F40F4000020F04B
:1030B0007F4018BF404211F0004F41F4000121F061
:1030C0007F4118BF494292EA030F3FD0A2F10102AB
:1030D00041FA03FC10EB0C00C3F1200301FA03F1E9
:1030E00000F0004302D5494260EB4000B0F5000F0C
:1030F00013D3B0F1807F06D340084FEA310102F1CB
:103100000102FE2A51D2B1F1004F40EBC25008BF7C
:1031100020F0010040EA03007047490040EB000046
:1031200010F4000FA2F10102EDD1B0FA80FCACF175
:10313000080CB2EB0C0200FA0CF0AABF00EBC25074
:1031400052421843BCBFD0401843704792F0000F62
:1031500081F4000106BF80F400000132013BB5E7B5
:103160004FEA41037FEA226C18BF7FEA236C21D02B
:1031700092EA030F04D092F0000F08BF0846704790
:1031800090EA010F1CBF0020704712F07F4F04D15E
:10319000400028BF40F00040704712F100723CBF71
:1031A00000F50000704700F0004343F0FE4040F49B
:1031B000000070477FEA226216BF08467FEA236359
:1031C0000146420206BF5FEA412390EA010F40F444
:1031D000800070474FF0000304E000BF10F0004390
:1031E00048BF40425FEA000C08BF704743F0964377
:1031F00001464FF000001CE050EA010208BF704792
:103200004FF000030AE000BF50EA010208BF704718
:1032100011F0004302D5404261EB41015FEA010C2D
:1032200002BF84460146002043F0B64308BFA3F125
:103230008053A3F50003BCFA8CF2083AA3EBC25307
:1032400010DB01FA02FC634400FA02FCC2F1200226
:10325000BCF1004F20FA02F243EB020008BF20F05D
:103260000100704702F1200201FA02FCC2F12002C3
:1032700050EA4C0021FA02F243EB020008BF20EAB8
:10328000DC7070474FF0FF0C1CEAD0521EBF1CEAE6
:10329000D15392EA0C0F93EA0C0F6FD01A4480EAD4
:1032A000010C400218BF5FEA41211ED04FF00063BD
:1032B00043EA501043EA5111A0FB01310CF00040E9
:1032C000B1F5000F3EBF490041EAD3715B0040EA0F
:1032D000010062F17F02FD2A1DD8B3F1004F40EBDF
:1032E000C25008BF20F00100704790F0000F0CF0B2
:1032F000004C08BF49024CEA502040EA51207F3A76
:10330000C2BFD2F1FF0340EAC250704740F4000050
:103310004FF00003013A5DDC12F1190FDCBF00F041
:1033200000407047C2F10002410021FA02F1C2F1EF
:10333000200200FA02FC5FEA310040F1000053EA8B
:103340004C0308BF20EADC70704792F0000F00F0D9
:10335000004C02BF400010F4000F013AF9D040EADF
:103360000C0093F0000F01F0004C02BF490011F473
:10337000000F013BF9D041EA0C018FE70CEAD15371
:1033800092EA0C0F18BF93EA0C0F0AD030F0004CF1
:1033900018BF31F0004CD8D180EA010000F00040A5
:1033A000704790F0000F17BF90F0004F084691F063
:1033B000000F91F0004F14D092EA0C0F01D142029D
:1033C0000FD193EA0C0F03D14B0218BF084608D166
:1033D00080EA010000F0004040F0FE4040F40000B0
:1033E000704740F0FE4040F4400070474FF0FF0C43
:1033F0001CEAD0521EBF1CEAD15392EA0C0F93EA8A
:103400000C0F69D0A2EB030280EA010C49024FEADB
:10341000402037D04FF0805343EA111143EA101394
:103420000CF000408B4238BF5B0042F17D024FF44C
:10343000000C8B4224BF5B1A40EA0C00B3EB510F27
:1034400024BFA3EB510340EA5C00B3EB910F24BF10
:10345000A3EB910340EA9C00B3EBD10F24BFA3EB95
:10346000D10340EADC001B0118BF5FEA1C1CE0D15D
:10347000FD2A3FF650AF8B4240EBC25008BF20F010
:10348000010070470CF0004C4CEA50207F32C2BF64
:10349000D2F1FF0340EAC250704740F400004FF001
:1034A0000003013A37E792F0000F00F0004C02BF32
:1034B000400010F4000F013AF9D040EA0C0093F0FC
:1034C000000F01F0004C02BF490011F4000F013B56
:1034D000F9D041EA0C0195E70CEAD15392EA0C0FBE
:1034E00008D142027FF47DAF93EA0C0F7FF470AFF6
:1034F000084676E793EA0C0F04D14B023FF44CAF39
:1035000008466EE730F0004C18BF31F0004CCAD1CD
:1035100030F000427FF45CAF31F000437FF43CAF09
:103520005FE700BF4FF0FF3C06E000BF4FF0010C2B
:1035300002E000BF4FF0010C4DF804CD4FEA40020D
:103540004FEA41037FEA226C18BF7FEA236C11D057
:1035500001B052EA530C18BF90EA010F58BFB2EB0A
:10356000030088BFC81738BF6FEAE17018BF40F08A
:10357000010070477FEA226C02D15FEA402C05D13E
:103580007FEA236CE4D15FEA412CE1D05DF8040BC3
:10359000704700BF844608466146FFE70FB5FFF756
:1035A000C9FF002848BF10F1000F0FBD4DF808ED0E
:1035B000FFF7F4FF0CBF012000205DF808FB00BFFF
:1035C0004DF808EDFFF7EAFF34BF012000205DF859
:1035D00008FB00BF4DF808EDFFF7E0FF94BF0120A6
:1035E00000205DF808FB00BF4DF808EDFFF7D2FFA3
:1035F00094BF012000205DF808FB00BF4DF808EDE6
:10360000FFF7C8FF34BF012000205DF808FB00BFB2
:1036100080EA010C1CF0030F37D110F0030C20F0EE
:10362000030021F0030150F8042B08BF51F8043BBC
:103630000ED08CF0030C6FF07F434FEACC0C23FAD2
:103640000CFC51F8043B42EA0C0243EA0C0300BFB5
:10365000A2F1013C9A4201BF2CEA020C1CF0803F0F
:1036600050F8042B51F8043BF2D04FEA02604FEAC5
:103670001222012828BFB0EB036F08BF1B0AF4D049
:1036800003F0FF03000EC01A704710F0030F0AD0BA
:1036900010F8012B11F8013B012A28BF9A42F4D0FF
:1036A000A2EB030070474DF8045D50F8042B01F0C5
:1036B000030521F0030151F8043B022D26D04DD81B
:1036C00022F07F45B5EB132FA2F1013C2CEA020C4E
:1036D0000DD11CF0803C08BF51F8043B0AD185EAAB
:1036E0000205B5EB036F0CD150F8042BE8E74FEA65
:1036F00013235BE03CF07F4C54D10B784FEA12650A
:1037000054E04FEA126503F0FF034FE04FEA024531
:10371000A2F1013C4FEA15452CEA020CB5EB134F20
:1037200018D11CF0803C08BF51F8043B07D185EA52
:103730000205B5EB034F09D150F8042BE6E75FEA29
:103740000C4C2FD10B884FEA12452FE04FEA034370
:103750004FEA12454FEA134328E000BF02F0FF058D
:10376000B5EB136FA2F1013C2CEA020C0DD11CF059
:10377000803C08BF51F8043B0AD185EA0205B5EB4D
:10378000032F0AD150F8042BE8E74FEA13630DE04A
:1037900012F0FF0F06D051F8043B4FEA122523F038
:1037A0007F4303E04FF0000020BC704705F0FF02AC
:1037B00003F0FF00012828BF904204BF2D0A1B0A16
:1037C000F4D0A2EB000020BC704700BF08B50E4C3F
:1037D000FCF774FFFDF7EAF9FDF7F0F84FF4E1307C
:1037E000FDF704FB2646FEF73BFAFCF7D1FFFEF798
:1037F000A1FEFEF721FD00252378002BFCD0FEF76B
:103800005DFC3570F8E700BF1D000020002103E0DB
:103810000A4B5B584350043109480A4B42189A42FC
:10382000F6D3094A02E0002342F8043B074B9A42D0
:10383000F9D3FCF785FCFFF7C9FF70472C4500085A
:10384000000000201800002018000020D0060020F2
:10385000FEE700002DE9F843C1F30A57A7F2FF3550
:10386000132D0B460446864613DC002D47DB294FFB
:1038700047FA05F505EA010757EA000E1ED1204672
:10388000194603F00045C2E9000170462946BDE82B
:10389000F883332D1EDCA7F213474FF0FF35FD40B0
:1038A00015EA000721D0894620EA0508C2E9008907
:1038B0000B464246FEF762FFBDE8F8834FF0000872
:1038C00021EA0509C2E900894B464246FEF756FF48
:1038D000BDE8F88320461946002403F00045C2E9FC
:1038E000000120462946BDE8F8832046194603F02A
:1038F0000045C2E9000138462946BDE8F8830020AA
:1039000003F0004106460F4620461946C2E900670B
:10391000BDE700BFFFFF0F00C9B270B4002933D06C
:10392000850710D00378002B59D0994218BF431C4B
:1039300006D127E013F8012B002A4DD0914221D067
:103940009A071846F6D141EA0126036846EA064678
:1039500001E050F8043F83EA0605A5F10134A3F124
:10396000013224EA050422EA0303234313F0803FD3
:10397000EFD0037823B932E010F8013F002B2ED0AE
:103980009942F9D170BC704784070BD00378002BA3
:10399000F8D0431C03E002780133002AF2D09907E3
:1039A0001846F8D10268A2F1013323EA020313F0AA
:1039B000803F08D150F8042FA2F1013323EA02031B
:1039C00013F0803FF6D00378002BDBD010F8013FD6
:1039D000002BFBD170BC7047104670BC7047184676
:1039E00070BC704720F0030110F00300C0F100002C
:1039F00051F8043B00F1040C4FEACC0C6FF00002CC
:103A00001CBF22FA0CF213434FF0010C4CEA0C2CB1
:103A10004CEA0C4CA3EB0C0222EA030212EACC1291
:103A200004BF51F8043B0430F4D0C2F1000102EAB3
:103A30000102B2FA82F2C2F11F0200EBD20070471B
:103A400099B103789BB110B40144431C02E01C7887
:103A5000013334B18B421A46F9D1181A5DF8044B80
:103A60007047101A5DF8044B7047084670471846B7
:103A7000704700BF1000000000000000017A5200F3
:103A8000027C0E011B0C0D0020000000180000003D
:103A900080FBFFFFBA01000000024D0E0485010209
:0C3AA0007F0A41C50E00410B4EC50E0010
:103AB000030406080C10182030000000000000006D
:103AC00000000000010203040607080900000000CE
:103AD000010203040000000000000080FB380B38E6
:103AE000000000409D034138000000A08444753868
:103AF000000000C0A595AA38000000A0879DE0380E
:103B000000000080E9C41439000000E023F64939C0
:103B100000000060D6398039000000004C48B439FC
:103B2000000000005F5AE939000000C0F6B01F3AFB
:103B3000000000409ACE533A000000C040C2883ACC
:103B400000000000D1F2BE3A000000A0C257F33AD4
:103B500000000040B32D283B0000002020395E3BD0
:103B600000000000B4E3923B00000000A19CC73BB2
:103B700000000040C983FD3B000000E05D72323C64
:103B800000000040F50E673C000000A0B2D29C3C53
:103B9000000000A0AF03D23C000000809B84063DE3
:103BA00000000060C2253C3D000000809997713DF7
:103BB000000000E07FFDA53D000000E0DF7CDB3D74
:103BC000000000E00B2E113E000000E08E79453E23
:103BD000000000A0F2D77A3E000000A0F7C6B03E79
:103BE00000000080B5F8E43E000000E0E2361A3F35
:103BF000000000E04D62503F00000040E17A843F49
:103C0000000000A09999B93F000000000000F03FBB
:103C100000000000000024400000000000005940A7
:103C20000000000000408F40000000000088C340FA
:103C300000000000006AF8400000000080842E416F
:103C400000000000D01263410000000084D79741BB
:103C50000000000065CDCD41000000205FA00242C1
:103C6000000000E076483742000000A0941A6D4240
:103C7000000000E09C30A24200000020C4BCD642FC
:103C800000000020F56B0C430000004079C3414365
:103C90000000008057347643000000606DC1AB43E4
:103CA00000000060E458E143000000801DAF1544AF
:103CB000000000E0E41A4B4400000000CFF0804414
:103CC000000000C0022DB544000000804378EA44A3
:103CD000000000202A8B2045000000C0F4AD5445B0
:103CE000000000E071D9894500000020E727C045A9
:103CF00000000000E131F44500000040593E294633
:103D000000000080EF8D5F46000000C0B5B893460C
:103D100000000020E3A6C846000000E09BD0FE465D
:103D20000000008061423347000000C0F91268477C
:103D300000000040B8179E4700000020D3CED247B5
:103D400020000300A203A203030040004000400043
:103D5000020001000100110040000A000A000100F9
:103D600020002100400040004000400040001100C1
:103D700001000100820382030100030003004000F0
:103D800020004300A20323004300430043004300FC
:103D90004300430003004300430040004000430051
:103DA000230023004300430043004300430043003B
:103DB00043004300030003004300030003004300EB
:103DC00000000000000000000000000000000000F3
:103DD000000000000000000000004300430043001A
:103DE000430043000000000000000000000000004D
:103DF00000000000000000000000000000000000C3
:103E00002D00000025642E25642E25642E256400D7
:103E10003031323334353637383961626364656640
:103E20000000000023307825303478202D20000059
:103E300025303278200000002D2D20003A2000008F
:103E4000256300002E0000006174000041540A0048
:103E5000737265736574000023736F6674776172A3
:103E60006520726573657420424C45204D6F647502
:103E70006C650A0041542B5245424F4F540A0000D2
:103E8000687265736574000023686172647761729B
:103E90006520726573657420424C45204D6F6475D2
:103EA0006C650A00616476696E00000041542B4124
:103EB0004456494E3D25640A0000000041542B4100
:103EC0004456494E0A000000646973630000000014
:103ED00041542B444953430A0000000076657200A8
:103EE00041542B5645520A006164720041542B41E3
:103EF0004444520A00000000626E616D65000000DB
:103F00006E616D650000000041542B4E414D453DF2
:103F100025730A0041542B4E414D450A0000000014
:103F2000626175640000000041542B424155440A0F
:103F3000000000007363616E000000002373636182
:103F40006E20666F7220424C452044657669636539
:103F5000730A000041542B5343414E3D312C3438F9
:103F60000A000000726F6C650000000041542B5283
:103F70004F4C450A000000006C706D5F6F6E0000D2
:103F800023656E746572204C6F7720506F77657271
:103F9000204D6F64650A00006C706D5F6F6666008F
:103FA000236C65617665204C6F7720506F77657262
:103FB000204D6F64650A00007064000068656C70D5
:103FC0000000000068656C70202020202020202048
:103FD0002020202020203A20746869732068656CB6
:103FE000700A000076657273696F6E2020202020B1
:103FF0002020202020203A2076657273696F6E2081
:10400000696E666F726D6174696F6E0A0000000000
:1040100076657273696F6E00232D20466561737932
:10402000636F6D20424C45204A6967202D20763110
:104030002E30202D20466562203230203230323240
:10404000202D207262202D0A000000000A3E000090
:104050003E0000002D2D20636F6D6D6F6E20444D6E
:104060004120726567697374657273202D2D0A0093
:10407000444D415F49535220202020202020203AE7
:10408000202530386C780A00444D415F4946435240
:10409000202020202020203A202530386C780A006B
:1040A0002D2D20444D4131204368616E6E656C3189
:1040B00020726567697374657273202D2D0A000084
:1040C000444D41315F4348315F4343522020203A01
:1040D000202530386C780A00444D41315F43483127
:1040E0005F434E445452203A202530386C780A0001
:1040F000444D41315F4348315F4350415220203AA3
:10410000202530386C780A00444D41315F434831F6
:104110005F434D415220203A202530386C780A0008
:10412000564444413A2025312E32662056736F6C36
:104130003A2025312E326620566261743A202531AC
:104140002E32662056616D623A2025312E3266206D
:10415000200A0000564444413A2025312E32662080
:1041600056736F6C3A2025312E3266205662617488
:104170003A2025312E32662056616D623A20253173
:104180002E32660A00000000256420002020000076
:104190002D2D2041444320726567697374657273E5
:1041A000202D2D0A00000000414443315F5352206E
:1041B0002020203A202530386C780A0041444331D1
:1041C0005F4352312020203A202530386C780A0095
:1041D000414443315F4352322020203A2025303879
:1041E0006C780A00414443315F534D505231203ABC
:1041F000202530386C780A00414443315F534D50DC
:104200005232203A202530386C780A00414443313C
:104210005F534D505233203A202530386C780A00D5
:10422000414443315F5351523120203A20253038E8
:104230006C780A00414443315F5351523220203A96
:10424000202530386C780A00414443315F53515285
:104250003320203A202530386C780A00414443311D
:104260005F5351523420203A202530386C780A00B0
:10427000414443315F5351523520203A2025303894
:104280006C780A00414443315F4452202020203A98
:10429000202530386C780A004144435F4353522054
:1042A0002020203A202530386C780A004144435FB2
:1042B000434352202020203A202530386C780A00D1
:1042C0002373656E6420415420636F6D6D616E646D
:1042D0000A00000041542B4C504D3D310A000000B3
:1042E00023424C4520656E746572204C6F772050D8
:1042F0006F776572204D6F64650A00002373656EE9
:10430000736F725F706F7765725F656E61626C6507
:104310003A20646F6E650A00236164635F757064A0
:104320006174653A20646F6E650A000023736874D7
:1043300031355F7570646174653A20646F6E650A2B
:10434000000000002373656E736F725F706F776596
:10435000725F64697361626C653A20646F6E650AAE
:104360000000000025733A200000000025640A00C8
:1043700041542B4C504D3D300A00000023424C4527
:10438000206C65617665204C6F7720506F77657281
:10439000204D6F64650A000023424C4520656E7411
:1043A000657220436F6D6D616E64204D6F64650AA8
:1043B0000000000023424C4520656E746572204465
:1043C000617461204D6F64650A0000002373656E9F
:1043D00064206E616D6520636F6D6D616E640A00AF
:1043E000236E616D653A2025730A00002373656EA4
:1043F0006420616476696E20636F6D6D616E640A1E
:10440000000000004F4B00004E414D4500000000F1
:10441000543A2025322E3266202552483A20253241
:104420002E316620000000000020202020202020C7
:104430002020282828282820202020202020202054
:104440002020202020202020208810101010101064
:1044500010101010101010101004040404040404B0
:10446000040404101010101010104141414141414A
:10447000010101010101010101010101010101012C
:10448000010101011010101010104242424242423C
:1044900002020202020202020202020202020202FC
:1044A00002020202101010102000000000000000A4
:1044B00000000000000000000000000000000000FC
:1044C00000000000000000000000000000000000EC
:1044D00000000000000000000000000000000000DC
:1044E00000000000000000000000000000000000CC
:1044F00000000000000000000000000000000000BC
:1045000000000000000000000000000000000000AB
:10451000000000000000000000000000000000009B
:0C4520000000000000000000000000008F
:10452C0068FF1F00464A49470000000000000000D9
:08453C00000000002844000803
:00000001FF
