:020000040800F2
:1000000028280020A1B40008CDB40008CDB4000811
:10001000CDB40008CDB40008CDB400080000000045
:10002000000000000000000000000000CDB4000847
:10003000CDB4000800000000CDB40008310600086F
:10004000CDB40008CDB40008CDB40008CDB400088C
:10005000CDB40008CDB40008CDB40008CDB400087C
:10006000CDB40008CDB40008CDB40008CDB400086C
:10007000CDB40008CDB40008CDB40008CDB400085C
:10008000CDB40008CDB40008CDB40008CDB400084C
:10009000CDB40008CDB40008CDB40008CDB400083C
:1000A000CDB40008CDB40008CDB40008CDB400082C
:1000B000CDB40008CDB40008CDB40008CDB400081C
:1000C000CDB40008CDB40008CDB40008CDB400080C
:1000D000CDB40008C9070008CDB40008CDB40008AD
:1000E000CDB40008CDB40008CDB40008CDB40008EC
:1000F000CDB40008CDB40008CDB40008CDB40008DC
:10010000CDB40008CDB40008CDB40008CDB40008CB
:100110001D090008CDB40008CDB40008CDB4000816
:10012000CDB40008CDB40008CDB40008CDB40008AB
:10013000CDB40008CDB40008CDB40008CDB400089B
:10014000CDB40008CDB40008CDB40008CDB400088B
:10015000CDB40008CDB40008CDB40008CDB400087B
:10016000CDB40008CDB40008CDB40008CDB400086B
:10017000CDB40008CDB40008CDB40008CDB400085B
:08018000CDB40008CDB4000865
:1001A0001C4A1D4C08B5D2F8883043F47003C2F8DD
:1001B000883000F05BFA00F0C3F900F031F84FF43A
:1001C000E13000F03DFB4FF4E13000F0E3FB00F0E4
:1001D00051FC00F035FD00F097FE01F04BF805F002
:1001E00045FE03F0A5FA01F011F90C484FF4167121
:1001F00003F0EAFD2646002503F032F903F058FA31
:100200002378002BF8D0012000F038F903F032FBFE
:100210003570F1E700ED00E01005002040DF000838
:100220001F4A2049136843F4E06343F0030313605B
:1002300013680B6843F001030B600A68194B9007C1
:10024000FBD51968184A21F080711960196859683E
:100250000A405A605A6842F4285242F010025A602A
:100260009A6822F47C4222F0F0029A609A6842F482
:10027000C00242F480529A601A6842F080721A609A
:100280001968084A8901FBD5936823F0030393603A
:10029000936843F00203936093681B07FCD5704793
:1002A000003C0240003802400080BFFF10B51948F2
:1002B000194C03F0C3FD1021184803F085FDA82157
:1002C000174803F081FD0221164803F07DFD164911
:1002D000164803F079FD2146154803F075FD2146C7
:1002E000144803F071FD2146134803F06DFD1349D6
:1002F000134803F069FD2146124803F065FD2146CD
:10030000114803F061FD21461048BDE8104003F09C
:100310005BBD00BF64DF000800BD010574DF00089D
:1003200094DF0008B4DF00080024F400D4DF0008E4
:10033000F4DF000814E0000834E0000880DE8002EA
:1003400054E0000874E0000894E00008B4E00008FD
:100350002DE9F04F834685B00F4600200021CDE9FE
:1003600000014FF0000EF446F046F1467246029747
:10037000CDF80CB00299029B31F8020B1B78029168
:100380004FEA820BC0F3C310C0B2ABF1200600FAF3
:1003900006F503F0030A5600CBF1200120FA01F123
:1003A00000FA0BF40AFA06F7DDE900AB0D43C3F3DC
:1003B0008100C3F34111C3F3001393400132B040F5
:1003C000B1404AEA040A4BEA050B102ACDE900AB1A
:1003D00049EA070948EA00084EEA010E4CEA030C14
:1003E000C8D1DDE90001DDF80CB0CBF82000CBF876
:1003F0002410CBF80090CBF80880CBF80CE0CBF8B9
:1004000004C005B0BDE8F08F014B80221A8370470D
:1004100000040240014B80225A83704700040240CE
:10042000044B5A6912F0800F4FF0800214BF5A83B8
:100430001A8370470004024038B5034C8025258399
:1004400000F08CF9658338BD00040240014B402266
:100450001A83704700040240014B40225A837047C0
:1004600000040240044B5A6912F0400F4FF0400262
:1004700014BF5A831A8370470004024038B5034CF6
:100480004025258300F06AF9658338BD00040240E9
:10049000034B042208B95A8370471A83704700BF80
:1004A00000000240024B4FF400725A83704700BFB5
:1004B00000100240024B4FF400721A83704700BFD5
:1004C00000100240014B80221A8370470010024046
:1004D000014B80225A83704700100240024B4FF4B8
:1004E00080721A83704700BF00100240024B4FF425
:1004F00080725A83704700BF00100240014B0222F5
:100500001A837047000C0240014B02225A83704745
:10051000000C0240024B01225A83052000F014B95E
:10052000000C024008B5052000F00EF9034B012233
:100530001A830520BDE8084000F006B9000C02400F
:10054000204B21481A6B2DE9F041204C204EDFF85A
:100550009080204F204D42F09F021A6321461B6B72
:10056000FFF7F6FE04F120013046FFF7F1FE04F13B
:1005700040014046FFF7ECFE04F160013846FFF70A
:10058000E7FE04F180012846FFF7E2FE04F1A00136
:100590001248FFF7DDFE4FF4007480234FF0040E85
:1005A00040204FF480710222A8F81840A6F81AE003
:1005B000708373836B8369837A83FFF7B3FF2C8324
:1005C000BDE8F0810038024000000240D4E000089D
:1005D00000040240000C024000100240001C0240D7
:1005E00000080240034B4FF400525A83052000F0EC
:1005F000ABB800BF0004024008B5052000F0A4F825
:10060000044B4FF400521A830520BDE8084000F067
:100610009BB800BF00040240014B04225A8370477C
:1006200000040240014B04221A8370470004024078
:100630000D4B1A680132092A13DD9A680132002035
:100640000121092A1860197109DD1A69197301322B
:10065000092A9860D2BF1A611861197570479A60AB
:1006600070471A60704700BFFC0400203049314BCE
:10067000314A32482DE9F0410E6C314C314D46F093
:1006800045060E644F6C4FF080464FF0010847F46A
:10069000803C42F20F7E5327C1F844C03785A6F84C
:1006A0001480A6F800801F85C3F82CE0198B89B24E
:1006B00041F4D04119831E8CB6B2002146F01006D9
:1006C0001E8499631E8BB6B246F068061E831E8C8C
:1006D000B6B246EA08061E8459639E8AB6B246EA56
:1006E00008069E821E88B6B246EA08061E80178556
:1006F000C2F82CE0938B9BB243F4D0439383138CCA
:100700009BB243F480531384938A9BB243EA080359
:100710009382116413889BB243EA0803F027138085
:100720000726456084F8237081600660BDE8F0818B
:1007300000380240004001400008004010E000E0A6
:1007400000ED00E01F4801004FF080431A465B6A4D
:100750001844536A1B1A002BFBDB704710B44FF090
:1007600080414FF6FF7406E04A6A02F57A724B6ADE
:100770009B1A002BFBDB013880B2A042F4D15DF85C
:10078000044B704751B142F20F730C4A03FB01F165
:1007900082FB0123C917C1EB631189B2012809D07B
:1007A00005D3022802D1064B196470477047054BE8
:1007B00099637047034B5963704700BF1F85EB5126
:1007C00000080040004001401B4A13889BB2990674
:1007D00010B407D5194990884C680A68121B7F2A03
:1007E00080B217DD1B0612D5144BD3F88820D3F83E
:1007F0008C10914216D0D3F888200F4802F07F0168
:100800001944013291F89010C3F8882081805DF876
:10081000044B70470A6802F07F040C4401322072D6
:100820000A60DFE7044A5DF8044B938923F08003F4
:100830001B041B0C9381704700100140140500201D
:10084000F0B40B4C0B4A616C0B4D0C4BB3FBF0F04E
:1008500042F22C070023202641F01001C0F30F10B4
:10086000616493821382108197816E60F0BC70473F
:10087000003802400010014000E100E000D01B50B1
:100880000A2810B5044617D00D48D0F88C20D0F8AF
:1008900088300B49D31A7F2BF9DC02F07F030B441D
:1008A000084883F8904083899BB2013243F080036B
:1008B000C1F88C20838110BD0D20FFF7E1FFE3E735
:1008C000140500200010014010B5441C007828B128
:1008D000FFF7D6FF14F8010B0028F9D110BD00BFB7
:1008E000074A11685368994206D003F07F0111440A
:1008F0000133087A536070474FF0FF30704700BFF4
:1009000014050020044AD2F88C10D2F888308B42AB
:10091000FBD10020704700BF140500201B4A13883C
:100920009BB2990610B407D5194990884C680A689B
:10093000121B7F2A80B217DD1B0612D5144BD3F889
:100940008820D3F88C10914216D0D3F888200F4815
:1009500002F07F011944013291F89010C3F8882009
:1009600081805DF8044B70470A6802F07F040C44F4
:10097000013220720A60DFE7044A5DF8044B938974
:1009800023F080031B041B0C93817047004C004034
:1009900024060020F0B40C4C0C4A216C0C4D0D4B7D
:1009A000B3FBF0F042F22C0700234FF4801641F421
:1009B0000021C0F30F10216493821382108197816C
:1009C0006E60F0BC704700BF00380240004C004031
:1009D00000E100E000E80D280A2810B5044617D011
:1009E0000D48D0F88C20D0F888300B49D31A7F2BD3
:1009F000F9DC02F07F030B44084883F890408389B8
:100A00009BB2013243F08003C1F88C20838110BD7A
:100A10000D20FFF7E1FFE3E724060020004C004033
:100A200010B5441C007828B1FFF7D6FF14F8010B6D
:100A30000028F9D110BD00BF074A116853689942D8
:100A400006D003F07F0111440133087A53607047E8
:100A50004FF0FF30704700BF24060020044AD2F850
:100A60008C10D2F888308B42FBD10020704700BF39
:100A700024060020044A0549136C4FF4557043F4D2
:100A8000004313640880704700380240003C004077
:100A9000044A0549536C40F2553043F48053536483
:100AA000088070470038024000300140044A054980
:100AB000136C40F2553043F4804313640880704750
:100AC0000038024000380040044A0549136C4FF4D6
:100AD000557043F4004313640880704700380240A7
:100AE000003C0040044B98811A890349D207FBD58A
:100AF0008889C0B2704700BF00300140034B988125
:100B00001A890249D207FBD58B8970470030014012
:100B1000044B00229A811A890249D207FBD58889A1
:100B2000C0B2704700300140044B98811A890349D4
:100B3000D207FBD58889C0B2704700BF003800409B
:100B4000034B98811A890249D207FBD58B897047DC
:100B500000380040044B00229A811A890249D207CA
:100B6000FBD58889C0B2704700380040044B98819B
:100B70001A890349D207FBD58889C0B2704700BFE4
:100B8000003C0040034B98811A890249D207FBD5EB
:100B90008B897047003C0040044B00229A811A89DF
:100BA0000249D207FBD58889C0B27047003C00409B
:100BB000012811D009D3022806D10B4B00214FF494
:100BC000597219801A8070477047074B002140F214
:100BD000653219801A807047034B00214FF455721B
:100BE00019801A80704700BF003C00401249134B27
:100BF0000A6C42F4800210B40A641A886FEA424216
:100C00006FEA524292B21A801A88C2F30E021A8018
:100C10001A8822F001021204120C2A24D2202B215D
:100C20001A809C80988319841A885DF8044B92B2CC
:100C300042F001021A80704700380240005800401C
:100C400008B5C820FFF78AFDBDE80840FFF7CEBF12
:100C500070B4174D2B889BB243F480732B80AC8A01
:100C6000134BE607FBD580B218829C8A1048A40774
:100C7000FBD5038B9AB14C1E0646551E00218D42B2
:100C800003880EDD9BB243F480630380838A5B0696
:100C9000FCD50131338A04F8013F9142EFD170BC99
:100CA000704723F480631B041B0C0380EEE700BF36
:100CB0000058004030B4144D2B889BB243F480732D
:100CC0002B80AC8A104BE407FBD580B21882184603
:100CD000848A0D4BA507FBD5188B4AB188181A4694
:100CE00011F8013B1382938A1C06FCD58142F7D18F
:100CF00005498B8A044A5B07FBD513889BB243F4F2
:100D00000073138030BC70470058004010B50F4C82
:100D10000F48218889B203F057F8A1880D4889B29D
:100D200003F052F8218A0C4889B203F04DF8A18AE9
:100D30000A4889B203F048F8218B094889B203F0C8
:100D400043F80A20BDE8104003F072B80058004094
:100D500078E1000890E10008A8E10008C0E100087F
:100D6000D8E100080A490B4A0B6C43F400130B64EA
:100D7000138823F001031B041B0CD2202B211380AA
:100D80009083118413889BB243F001031380704752
:100D900000380240005400400D490E4B0A6C42F4EA
:100DA000000210B40A641A8822F001021204120C24
:100DB0002A24D2202B211A809C80988319841A8897
:100DC0005DF8044B92B242F001021A80704700BFF6
:100DD00000380240005C0040704700BF704700BF11
:100DE000704700BF704700BF10B5194C19482188E3
:100DF00089B202F0E9FFA188174889B202F0E4FF46
:100E00002189164889B202F0DFFFA189144889B20E
:100E100002F0DAFF218A134889B202F0D5FFA18AD5
:100E2000114889B202F0D0FF218B104889B202F03C
:100E3000CBFFA18B0E4889B202F0C6FF218C0D4872
:100E400089B202F0C1FF0A20BDE8104002F0F0BFF5
:100E500000540040F0E1000808E2000820E2000829
:100E600038E2000850E2000868E2000880E200086A
:100E700098E20008B0E2000810B5194C1948218822
:100E800089B202F0A1FFA188174889B202F09CFF45
:100E90002189164889B202F097FFA189144889B2C6
:100EA00002F092FF218A134889B202F08DFFA18AD5
:100EB000114889B202F088FF218B104889B202F0F4
:100EC00083FFA18B0E4889B202F07EFF218C0D4872
:100ED00089B202F079FF0A20BDE8104002F0A8BFF5
:100EE000005C0040C8E20008E0E20008F8E2000808
:100EF00010E3000828E3000840E3000858E3000876
:100F000070E3000888E3000870B40949094B4A6C93
:100F1000002640F201454FF4C33442F480724FF48E
:100F200040204A645E609D60DC60186170BC704760
:100F30000038024000200140012819D014D30228B3
:100F40000ED00D4A936843F08043936013680A49BA
:100F50009B07FBD5C86CC0F57F600F3080B270472F
:100F6000054B0D225A63ECE7034B0F225A63E8E767
:100F7000014B06225A63E4E700200140012819D002
:100F800014D302280ED00D4A00231363D362936852
:100F900043F080439360136808499B07FBD5C86CF6
:100FA00080B27047054B0B225A63ECE7034B0722D4
:100FB0005A63E8E7014B03225A63E4E7002001404B
:100FC000012819D014D302280ED00D4A0023136330
:100FD000D362936843F080439360136808499B078A
:100FE000FBD5C86C80B27047054B0C225A63ECE706
:100FF000034B0E225A63E8E7014B04225A63E4E7ED
:10100000002001401A4A0023092151631363D3626F
:10101000936843F080439360136815499B07FBD5A1
:1010200030B4144CC86C144D237882B22A8005F178
:101030002201A3B10846AB1C23F8022F8342FBD147
:101040000023AA8823700D4B002001E033F8022F03
:1010500010448B4280B2F9D1000930BC70470B4676
:101060002C1D33F8020D5880A342FAD1AA80EAE77A
:101070000020014000000020340700203807002035
:10108000084A00230A2151631363D362936843F033
:1010900080439360136803499B07FBD5C86C80B2FB
:1010A000704700BF00200140254A002308215163FA
:1010B0001363D362936843F08043936013682049BD
:1010C0009B07FBD530B41F4CCB6C1F4D627899B297
:1010D00082B0A98405F1460042B3024605F1260319
:1010E00023F8021F9342FBD10023298D6370174A16
:1010F000002301E032F8021F0B4482429BB2F9D177
:101100001B0907EE903A9FED127AF8EE677AC7EE68
:10111000877AB1EE087A77EE877AFCEEE77ACDED42
:10112000017ABDF8040002B030BC7047034605F1F7
:10113000280433F8022D5A80A342FAD12985D6E734
:101140000020014000000020340700205C07002040
:10115000B1E15540154B1B681A8F40F239739A4222
:1011600010B50BD8124A92F84830632B14D80133CB
:10117000DBB2642B82F848300ED010BD0D4C0C4A07
:10118000A378002182F84810002BF6D1802007F0C8
:101190001FFA0123A37010BD064CA378012BECD1DC
:1011A000002007F015FA0023A37010BD48000020AE
:1011B000340700200000002010B5134C134802F043
:1011C0003DFE6168124802F0FFFDA168114802F07F
:1011D000FBFDE168104802F0F7FD21690F4802F0BD
:1011E000F3FDE16A0E4802F0EFFD216B0D4802F0BD
:1011F000EBFD616B0C4802F0E7FDE16C0B48BDE8CC
:10120000104002F0E1BD00BF00200140A0E3000853
:10121000B4E30008C8E30008DCE30008F0E30008DA
:1012200004E4000818E400082CE4000840E4000886
:1012300038B50D4C2568FFF7E5FE0C4A28870023DA
:101240000A21246851631363D362936843F0804397
:101250009360136805499B07FBD5CB6C6387FFF749
:1012600023FFA08738BD00BF4800002000200140B8
:10127000FFF7DEBF0748084B026C10B400214FF4A3
:10128000803442F000520264996059611C605DF83C
:10129000044B7047003802400074004040F6FF7372
:1012A000024A984228BF1846906070470074004078
:1012B00040F6FF73024A984228BF184650617047B3
:1012C000007400403E2002F0B3BD00BF014802F0B0
:1012D0007BBD00BF54E4000830B403782D2B19D037
:1012E000002211460125825CA2F13004092C16D897
:1012F0000144002303EB830302EB430311F8012FA6
:10130000A2F13004092CA3F13003F3D903FB05F05B
:1013100030BC7047012211464FF0FF35E3E7002053
:10132000F6E700BF30B403782D2B19D00022114608
:101330000125825CA2F13004092C16D80144002357
:1013400003EB830302EB430311F8012FA2F13004F6
:10135000092CA3F13003F3D903FB05F030BC70472F
:10136000012211464FF0FF35E3E70020F6E700BF0A
:1013700030B4411E002011F8013FA3F13002D4B275
:10138000092CA3F161050CD9052DA3F14104A3F1AA
:101390005702A3F1370304D9052C05D803EB00103D
:1013A000E9E702EB0010E6E730BC704730B10378A4
:1013B000202B03D110F8013F202BFBD0704700BF3A
:1013C00010B32DE9F041002588462F460E1F037803
:1013D000202B044603D114F8013F202BFBD05BB136
:1013E000204620210CF08EFA48B10770013005F13B
:1013F000010546F8044FEAD12846BDE8F08148F8D7
:101400002540681CBDE8F081704700BF014802F02C
:1014100015BD00BF58E4000808B54A4802F00EFDAB
:10142000494802F00BFD494802F008FD484802F027
:1014300005FD484802F002FD474802F0FFFC47481E
:1014400002F0FCFC464802F0F9FC464802F0F6FCCB
:10145000454802F0F3FC454802F0F0FC444802F035
:10146000EDFC444802F0EAFC434802F0E7FC434844
:1014700002F0E4FC424802F0E1FC424802F0DEFCEB
:10148000414802F0DBFC414802F0D8FC404802F041
:10149000D5FC404802F0D2FC3F4802F0CFFC3F4868
:1014A00002F0CCFC3E4802F0C9FC3E4802F0C6FC0B
:1014B0003D4802F089FC3D4802F086FC3C4802F0C1
:1014C000BDFC3C4802F0BAFC3B4802F0B7FC3B488C
:1014D00002F0B4FC3A4802F0B1FC3A4802F0AEFC2B
:1014E000394802F0ABFC394802F0A8FC384802F059
:1014F000A5FC384802F0A2FC374802F09FFC3748B0
:1015000002F09CFC364802F099FC364802F096FC4A
:10151000354802F093FC354802F090FC344802F064
:101520008DFC344802F050FC334802F04DFC334847
:1015300002F084FC324802F081FC3248BDE80840E9
:1015400002F07CBC8CE40008A8E40008E4E4000895
:101550001CE5000854E500088CE50008B4E5000827
:10156000E4E5000818E6000848E6000874E600080C
:10157000A0E60008CCE60008F8E6000830E700081E
:1015800070E70008B0E70008E8E7000820E8000876
:1015900060E8000898E80008D0E8000824E900089E
:1015A00078E90008CCE90008E4E9000834EA00081A
:1015B00084EA0008B0EA0008DCEA000808EB00084A
:1015C00040EB000878EB0008BCEB0008D4EB000807
:1015D00010EC000844EC000894EC0008E4EC00086F
:1015E00024ED000858ED0008A8ED0008E4ED00081F
:1015F00028EE00083CEE00087CEE0008B8EE00087B
:10160000ECEE000824EF00082DE9F0410C680D46CF
:101610000646C34920460CF0E7F9002801F0B380E4
:10162000C04920460CF0E0F9002801F0A680BE4930
:1016300020460CF0D9F9002801F09A80BB492046D9
:101640000CF0D2F9002800F0F987B94920460CF0D7
:10165000CBF9002800F0FD87B64920460CF0C4F90C
:10166000002801F00180B44920460CF0BDF90028A3
:1016700001F00580B14920460CF0B6F9002801F0D0
:101680000980AF4920460CF0AFF9002801F00D8029
:10169000AC4920460CF0A8F9002801F01180AA49B5
:1016A00020460CF0A1F9002801F01580A74920463A
:1016B0000CF09AF9002801F01980A54920460CF099
:1016C00093F90746002801F01C80A24920460CF03F
:1016D0008BF9002801F02B809F4920460CF084F9FB
:1016E0000746002801F02E809C4920460CF07CF92A
:1016F000002801F038809A4920460CF075F900283E
:1017000000F08687974920460CF06EF910B9032E39
:1017100001F0B782944920460CF066F9002801F0E8
:101720006180924920460CF05FF9002801F0558055
:101730008F4920460CF058F9002801F049808D4966
:1017400020460CF051F910B9042E01F0DF828A49CD
:1017500020460CF049F9002801F0348087492046E2
:101760000CF042F928B9042E01F0C08003F0E8FE25
:101770002C68834920460CF037F9002800F00D87CB
:10178000804920460CF030F9002800F001877E499E
:1017900020460CF029F910B9022E01F008812046EC
:1017A0007A490CF021F910B9042E01F00882784929
:1017B00020460CF019F9002800F0FF8775492046F3
:1017C0000CF012F9002800F0F387734920460CF062
:1017D0000BF910B9022E01F0FE82704920460CF080
:1017E00003F9002800F0DF876D4920460CF0FCF873
:1017F000002800F0D3876B4920460CF0F5F828B993
:10180000032E01F0518103F0EBF92C686649204664
:101810000CF0EAF8002800F0B686644920460CF087
:10182000E3F8002800F08E86614920460CF0DCF8D1
:10183000002800F095865F4920460CF0D5F8002876
:1018400000F098865C4920460CF0CEF8002840F065
:101850005C81022E01F03D8205F070FD2C68574935
:1018600020460CF0C1F818B9002005F0B1FD2C6835
:10187000534920460CF0B8F80746002840F056813E
:10188000042E00F07F82052E01F0AE8320464D49E4
:101890000CF0AAF80746002840F0C781022E00F09D
:1018A0007D84032E00F00A83204647490CF09CF803
:1018B000002840F03783204644490CF095F8002872
:1018C00040F0C781022E00F0ED84032E01F02E833C
:1018D00020463F490CF088F8002840F01A82012E7B
:1018E00001F0FC83022E00F05B85204639490CF0A4
:1018F0007BF8074610B9032E01F07D80204636495B
:101900000CF072F8002840F03483022E00F050836F
:10191000032E01F09E80204630490CF065F85FE010
:1019200050EF000858EF000868EF000870EF00085B
:1019300084EF000890EF000818F20008ACEF0008F0
:10194000C0EF0008D8EF0008ECEF000800F0000836
:1019500004F000080CF0000814F000081CF0000867
:1019600020F0000824F000082CF0000834F00008F3
:101970003CF0000844F000084CF0000854F0000867
:101980005CF0000868F0000870F0000878F00008CB
:1019900080F0000888F0000890F0000898F0000837
:1019A000A0F00008A8F00008B0F00008BCF00008A3
:1019B000C8F00008D4F00008E0F00008ECF00008DF
:1019C000F8F0000808F1000818F1000828F10008F4
:1019D00048F1000868F1000874F1000884F100087B
:1019E000002840F01383012E00F05E83022E00F0E9
:1019F000D7822046CE490BF0F7FF0746002840F07B
:101A00001383022E00F0F386032E01F0BE82C94933
:101A100020460BF0E9FF002800F03E83C64920462F
:101A20000BF0E2FF074610B9042E01F08180C34994
:101A300020460BF0D9FF002800F0E285C04920467F
:101A40000BF0D2FF002800F0CF85BE4920460BF0F6
:101A5000CBFF002800F0BC85BB4920460BF0C4FF3B
:101A6000002800F09F85B94920460BF0BDFF0028F3
:101A700000F0A985B64920460BF0B6FF00BB6B68A5
:101A80001A782D2A00F0E586014601261A5CA2F19B
:101A90003000092801F26E831944002303EB83030D
:101AA00002EB430311F8012FA2F13004092CA3F13A
:101AB0003003F3D906FB03F080B206F0C5F82C68BA
:101AC000A44920460BF090FF002800F06286A2494E
:101AD00020460BF089FF002800F0A5859F4920468D
:101AE0000BF082FF002800F098859D4920460BF0FE
:101AF0007BFF002800F00E859A4920460BF074FF0A
:101B0000002800F00385BDE8F081204696490BF0DF
:101B10006BFF00287FF4ACAE022E7FF4A5AE6868A0
:101B2000FFF726FCC0B205F053FC2C688F49204615
:101B30000BF05AFF00287FF4A9AE042E00F04E846B
:101B4000052E7FF4A3AE6868FFF712FCAB681A7825
:101B50002D2AC0B201F028830022114601279A5C89
:101B6000A2F13004092C01F268841944002303EB2C
:101B7000830302EB430311F8012FA2F13004092C77
:101B8000A3F13003F3D907FB03F3DBB24FF4616732
:101B900007FB03F7EB681A782D2A01F0C2830022B5
:101BA00011464FF0010E9A5CA2F13004092C01F2AB
:101BB00038841944002303EB830302EB430311F839
:101BC000012FA2F13004092CA3F13003F3D90EFB4D
:101BD00003F3DBB2C3EB03134FEA830C2B691A78D0
:101BE0002D2A01F098830022144601219A5CA2F16B
:101BF000300EBEF1090F01F22B841C44002303EBCD
:101C0000830302EB430314F8012FA2F1300EBEF15F
:101C1000090FA3F13003F2D901FB03F3DBB207EBA9
:101C20000C01194405F076FD2C68514920460BF053
:101C3000DBFE002840F02181022E00F03C84032EC0
:101C400001F0ED8020464B490BF0CEFE00287FF4DA
:101C500032AE204648490BF0C7FE002840F02081F4
:101C6000022E00F04983032E7FF432AE6868FFF73E
:101C70007FFBAB681A782D2AC0B201F08A8200225D
:101C8000114601279A5CA2F13004092C01F2DD8390
:101C90001944002303EB830302EB430311F8012FE4
:101CA000A2F13004092CA3F13003F3D907FB03F3AD
:101CB000D9B205F015FE2C68304920460BF094FE91
:101CC00000287FF405AE6868FFF752FBAB681A780E
:101CD0002D2AC0B201F057820022114601279A5CDA
:101CE000A2F13004092C01F291831944002303EB83
:101CF000830302EB430311F8012FA2F13004092CF6
:101D0000A3F13003F3D907FB03F3D9B205F01EFEAC
:101D10002C681B4920460BF067FE002840F0178115
:101D2000012E01F0E681022E7FF4DFAD46E300BF15
:101D300098F10008B8F10008C4F10008D0F10008DB
:101D4000E4F1000800F2000834F200086CF2000828
:101D500074F200087CF2000880F2000884F20008A7
:101D60008CF2000894F20008ECF0000800F1000882
:101D700010F1000820F1000830F100083CF10008E3
:101D800054F100086A6813782D2B01F09E820346F7
:101D900001240146D35CA3F13000092801F2168327
:101DA0001144002202EB820203EB420211F8013FD0
:101DB000A3F130000928A2F13002F3D904FB02F2AA
:101DC000D2B24FF4616404FB02F4AA6813782D2B9D
:101DD00001F07582002319464FF0010ED35CA3F188
:101DE0003000092801F2E6821144002202EB82024F
:101DF00003EB420211F8013FA3F130000928A2F1E0
:101E00003002F3D90EFB02F2D2B2C2EB0212910001
:101E1000EB681A782D2A01F04C82002210464FF010
:101E2000010C9A5CA2F1300EBEF1090F11D81844D2
:101E3000002303EB830302EB430310F8012FA2F10D
:101E4000300EBEF1090FA3F13003F2D90CFB03F3FE
:101E5000DFB221443944102005F030FC2C68BD4924
:101E600020460BF0C1FD002800F0B8822046BA4998
:101E70000BF0BAFD00287FF4D8AE2046B7490BF02E
:101E8000B3FD00284ED1022E00F0B881032E00F0E1
:101E9000F3872046B2490BF0A7FD00287FF4D9AEA6
:101EA0002046B0490BF0A0FD00287FF411AD022EB2
:101EB00000F04C82032E7FF40BAD04E76868FFF757
:101EC00057FAAB681A782D2AC0B201F03F82394622
:101ED0004FF0010EDA5DA2F13004092C01F2938279
:101EE0001944002303EB830302EB430311F8012F92
:101EF000A2F13004092CA3F13003F3D90EFB03F354
:101F0000D9B205F033FC2C68974920460BF06CFDE4
:101F1000002800F08487204690490BF065FD0028DA
:101F200000F0AA87204691490BF05EFD00287FF45F
:101F3000C2AC022E00F08C81032E00F0CA8720462E
:101F40008B490BF051FD00283FF4C2ACA8E72046B6
:101F500088490BF049FD00287FF4C7AC022E7FF4BE
:101F6000C4AC6868FFF704FAC0B205F055FD2C68F0
:101F7000C4E4204680490BF037FD00287FF4CBAC49
:101F8000022E7FF4C8AC6868FFF7F2F9C0B205F022
:101F900065FA2C68794920460BF026FD002835D1DA
:101FA0006868FFF7E5F9C0B205F09AFA2C6820E5F9
:101FB0006B681A782D2A01F09E81014601241A5C73
:101FC000A2F13000092801F2E2811944002303EB59
:101FD000830302EB430311F8012FA2F1300009281B
:101FE000A3F13003F3D904FB03F399B2202005F0E9
:101FF00017FA2C68604920460BF0F6FC0028C2D086
:1020000020465E490BF0F0FC0028C9D020465C4910
:102010000BF0EAFC00287FF4ECAC012E7FF4E9AC75
:10202000202005F06FFA2C68564920460BF0DCFCA6
:10203000002849D1022E62D0032E7FF4E8AC6868F4
:10204000FFF796F9AB681A782D2AC0B201F0958097
:102050000022114601279A5CA2F13004092C01F2FA
:10206000EF811944002303EB830302EB430311F8D0
:10207000012FA2F13004092CA3F13003F3D907FB9F
:1020800003F3D9B205F014FA2C683F4920460BF04F
:10209000ABFC00287FF4C2AC6868FFF769F9C0B2F6
:1020A00005F088FA2C68B9E4202005F019FA2C68AC
:1020B000334920460BF098FC0028B1D02046334924
:1020C0000BF092FC0028AFD1204631490BF08CFC7C
:1020D00000287FF49CAC022E7FF499AC6C682D49EB
:1020E00020460BF081FC002801F039802A49204667
:1020F0000BF07AFC002801F07A802C6887E46B688A
:102100001A782D2A01F019800022114601249A5CC8
:10211000A2F13000092801F22D811944002303EBBC
:10212000830302EB430311F8012FA2F130000928C9
:10213000A3F13003F3D904FB03F3D9B2202005F057
:10214000B7F92C68124920460BF04EFC00287FF4AA
:102150005EACC3E700F1000808F1000818F10008C0
:1021600028F100083CF1000810F1000820F10008F7
:1021700030F100085CF100087CF1000884F10008EF
:1021800090F10008A0F10008B8F1000898F10008EB
:10219000A8F10008B0F10008B4F100086B681A78E3
:1021A0002D2A01F0988001460124DA5DA2F1300069
:1021B000092801F20E811944002303EB830302EB8B
:1021C000430311F8012FA2F130000928A3F13003D5
:1021D000F3D904FB03F3D9B2102005F0C7FA2C6839
:1021E000CF4920460BF000FC002800F06481204617
:1021F000CC490BF0F9FB00287FF494AE6B681A7899
:102200002D2A00F07C870022114601249A5CA2F15D
:102210003000092801F2B1801944002303EB830345
:1022200002EB430311F8012FA2F130000928A3F1BA
:102230003003F3D904FB03F3D9B2102005F0C2FA3E
:102240002C68B94920460BF0CFFB00287FF433AB54
:102250006B681A782D2A00F0648700221146012449
:102260009A5CA2F13000092801F2C78019440023CA
:1022700003EB830302EB430311F8012FA2F13000BB
:102280000928A3F13003F3D904FB03F399B210201A
:1022900005F0AEFA2C68A54920460BF0A5FB0028F6
:1022A0007FF4D7AC6B681A782D2A00F02E870022B5
:1022B000114601249A5CA2F13000092801F25180F4
:1022C0001944002303EB830302EB430311F8012FAE
:1022D000A2F130000928A3F13003F3D904FB03F382
:1022E00099B2102005F0BAFA2C68914920460BF0FB
:1022F0007BFB00287FF4D4AD6B681A782D2A00F0A0
:1023000028870022114601249A5CA2F13000092896
:1023100001F236801944002303EB830302EB4303ED
:1023200011F8012FA2F130000928A3F13003F3D9ED
:1023300004FB03F3D9B2102005F0D2FA2C687D49D2
:1023400020460BF051FB00287FF4C2AA6B681A7874
:102350002D2A00F0F8860022114601249A5CA2F191
:102360003000092801F203801944002303EB8303A2
:1023700002EB430311F8012FA2F130000928A3F169
:102380003003F3D904FB03F3D9B2102005F0DEFAD1
:102390002C68694920460BF027FB00287FF4B9AC74
:1023A0006868FEF7E5FFC0B205F012FB2C686349D0
:1023B00020460BF019FB00287FF4C9AD6868FEF7D2
:1023C000D7FFC0B205F016FB2C685D4920460BF024
:1023D0000BFB00283FF4C5ADFFF787BA6B681A788E
:1023E0002D2A00F0A4860022114601249A5CA2F155
:1023F0003000092800F2B8871944002303EB830357
:1024000002EB430311F8012FA2F130000928A3F1D8
:102410003003F3D904FB03F3DBB24FF4616404FB34
:1024200003F4A86803782D2B00F0338700231946A6
:102430000127C25CA2F13003092B00F2BE870844D9
:10244000002303EB830302EB430310F8012FA2F1F7
:1024500030010929A3F13003F3D907FB03F3DBB201
:10246000C3EB03139900EB681A782D2A00F00B8751
:10247000002210464FF0010E9A5CA2F13007092F9E
:1024800000F293871844002303EB830302EB43031A
:1024900010F8012FA2F13007092FA3F13003F3D96F
:1024A0000EFB03F2D2B221441144102005F032F9A0
:1024B0002C68FFF7BABB6B681A782D2A00F02B86C0
:1024C0000022114601249A5CA2F13000092800F292
:1024D00045871944002303EB830302EB430311F800
:1024E000012FA2F130000928A3F13003F3D904FB36
:1024F00003F3D9B2102005F04FF92C6809492046A2
:102500000BF072FA00287FF40DAD77E6BDE8F041DC
:1025100005F0AEBAFEF780FF2C68FFF7EDBA00BFFA
:1025200010F1000818F1000820F1000828F1000857
:1025300030F100083CF1000848F1000854F10008AF
:102540005CF100086868FEF713FFC0B204F08EFE6D
:102550002C68C34920460BF047FA00287FF46BA98A
:1025600004F02CFD2C68BF4920460BF03DFA0028F2
:102570007FF468A96868FEF7FBFEC0B204F0B6FEFF
:102580002C68FFF75FB903F0DFFB2C68FFF745B954
:1025900003F0C4F82C68FFF7FAB802F0FFFF2C68CC
:1025A000FFF7EEB8B04801F049FCC820FEF7D6F8B6
:1025B000AE4801F0B5FD2C68AD4920460BF014FA89
:1025C00000287FF457AA01F089F92C68FFF752BA66
:1025D000A84801F033FCC820FEF7C0F8A64801F077
:1025E0009FFD2C68FFF738BAA44801F027FCC820EB
:1025F000FEF7B4F8A24801F093FD2C68FFF725BA66
:10260000A04801F01BFC01F07DF82C68FFF716BA1A
:1026100004F0B8FA2C68FFF775B89B4801F00EFC7F
:102620002C68FFF762BA03F07FF802F04FFE02F069
:10263000A5F905F003FB2C68FFF750BA934801F0A9
:102640006FFD2C68924920460BF0CEF900287FF4EC
:1026500003A8904801F064FD2C688F4920460BF0D8
:10266000C3F900287EF4FFAF8C4801F059FD2C68B7
:102670008B4920460BF0B8F900287EF4FBAF89485F
:1026800001F04EFD2C68884920460BF0ADF900287A
:102690007EF4F7AF854801F043FD2C68844920465D
:1026A0000BF0A2F900287EF4F3AF824801F038FD68
:1026B0002C68814920460BF097F900287EF4EFAF93
:1026C0007E4801F02DFD2C687D4920460BF08CF9E9
:1026D00000287EF4EBAF7B4801F034F82C687A498F
:1026E00020460BF081F900287EF4E7AF03F0A6FE48
:1026F0002C68764920460BF077F9074600287EF4CF
:10270000E4AF03F0A3FE38463946FEF73BF801205C
:102710003946FEF737F839460220FEF733F82C68C1
:102720006B4920460BF060F900287EF4D5AF03F02A
:10273000ABFE2C68674920460BF056F90746002887
:102740007EF4D2AF06F02EFF38464FF448714FF4B6
:10275000F07206F03FFF2C685F4920460BF044F909
:1027600000287EF4C8AF04F059F82C68FEF7C3BF08
:1027700000F0C8FF2C68FEF761BF584801F0D0FC9C
:102780002C68FEF754BF564801F0CAFC2C68FEF7CF
:1027900047BF05F04DFA2C68FFF799B902F0E8F849
:1027A0002C68FFF728B803F091FA2C68FFF71CB8E3
:1027B00002F086FD2C68FFF708B803F01FFA2C68BA
:1027C000FEF7FCBF012002F099FE2C68FEF7C6BFA1
:1027D00003F02CF92C68FEF7B2BF04F02DFC2C6836
:1027E000FEF7A6BF03F04AF92C68FEF79ABF6B68A4
:1027F0001A782D2A00F0008501460124DA5DA2F145
:102800003000092800F2FC851944002303EB830300
:1028100002EB430311F8012FA2F130000928A3F1C4
:102820003003F3D904FB03F3D9B2202004F028FECF
:102830002C682C4920460BF0D7F800283FF45FACF9
:10284000204629490BF0D0F800283FF447ACFFF7A9
:10285000DEB8012001464FF0FF36FFF717B900BF81
:10286000C8F00008D4F000083CF2000858F2000854
:102870006CF2000808F2000820F20008ECF10008F1
:10288000FCF10008D8F1000858E4000878EF0008CF
:1028900084EF000888EF000890EF000894EF00082C
:1028A00018F20008A0EF0008ACEF0008B4EF000831
:1028B000C0EF0008C8EF0008D8EF0008E0EF0008FC
:1028C000ECEF0008F0EF000800F0000804F000084A
:1028D0000CF0000814F000081CF000085CEF000881
:1028E00054EF0008A0F10008A8F100086C682378F4
:1028F0002D2B00F08D8401460127225CA2F13003CC
:10290000092B00F277852144002303EB830302EBBC
:10291000430311F8012FA2F13004092CA3F1300375
:10292000F3D907FB03F3D8B2AC6823782D2B00F062
:102930009F84002319460127E25CA2F13003092B92
:1029400000F22D852144002303EB830302EB4303B4
:1029500011F8012FA2F13004092CA3F13003F3D9AF
:1029600007FB03F3D9B2EB681A782D2A00F07A84BA
:10297000002214464FF0010E9A5CA2F13007092F95
:1029800000F20A851C44002303EB830302EB43039C
:1029900014F8012FA2F13007092FA3F13003F3D966
:1029A0000EFB03F3DAB202F03DFDFEF7DFBE6B680B
:1029B0001A782D2A00F02684014601241A5CA2F11F
:1029C0003000092800F213851944002303EB830328
:1029D00002EB430311F8012FA2F130000928A3F103
:1029E0003003F3D904FB03F00138C0B202F060FAFF
:1029F0002C68FEF7DCBE6868FEF7BAFCAB681A7894
:102A00002D2AC0B200F0198439464FF0010EDA5D6C
:102A1000A2F13004092C00F2E2841944002303EBF4
:102A2000830302EB430311F8012FA2F13004092CB8
:102A3000A3F13003F3D90EFB03F399B209B204F00A
:102A4000FDFF2C68AE4920460AF0CEFF00287EF438
:102A500062AF6868FEF78CFCAB681A782D2AC0B2AA
:102A600000F083830022114601279A5CA2F1300412
:102A7000092C00F2CE841944002303EB830302EBFC
:102A8000430311F8012FA2F13004092CA3F1300304
:102A9000F3D907FB03F303EB8303590089B204F076
:102AA000BFFC2C68FEF737BF6C6823782D2B00F035
:102AB000BF8301460127225CA2F13003092B00F2FB
:102AC0008B842144002303EB830302EB430311F8BF
:102AD000012FA2F130000928A3F13003F3D907FB3D
:102AE00003F3D8B2AB681A782D2A00F0C78300220E
:102AF000114601279A5CA2F13004092C00F252849D
:102B00001944002303EB830302EB430311F8012F65
:102B1000A2F13004092CA3F13003F3D907FB03F130
:102B200089B209B203F0F6F802F04AF8FEF76BBE7C
:102B30006868FEF71DFCAC6823782D2BC0B200F04E
:102B4000728339460126E25DA2F13003092B00F2BF
:102B50004B842144002303EB830302EB430311F86E
:102B6000012FA2F13004092CA3F13003F3D906FBA5
:102B700003F3D9B2EB681A782D2A00F06E83002295
:102B8000144601279A5CA2F13006092E00F2FD835B
:102B90001C44002303EB830302EB430314F8012FCF
:102BA000A2F13006092EA3F13003F3D907FB03F29B
:102BB00092B212B204F0DCFC2C68FEF738BF6C68ED
:102BC00023782D2B00F02A8301460127225CA2F1F5
:102BD0003003092B00F206842144002303EB830316
:102BE00002EB430311F8012FA2F13004092CA3F1E9
:102BF0003003F3D907FB03F3D8B2AC6823782D2B4D
:102C000000F05283002319460127E25CA2F1300351
:102C1000092B00F2CD832144002303EB830302EB55
:102C2000430311F8012FA2F13004092CA3F1300362
:102C3000F3D907FB03F3D9B2EB681A782D2A00F019
:102C40002E83002214464FF0010E9A5CA2F1300749
:102C5000092F00F2B5831C44002303EB830302EB2E
:102C6000430314F8012FA2F13007092FA3F1300319
:102C7000F3D90EFB03F39AB202F090FF2C68FEF733
:102C800096BD6B681A782D2A00F03B83014601241B
:102C90001A5CA2F13000092800F27C831944002359
:102CA00003EB830302EB430311F8012FA2F1300081
:102CB0000928A3F13003F3D904FB03F4E4B2A868B4
:102CC000FEF756FBC1B2204602F0ECFE2C68FEF780
:102CD00021BD6868FEF74CFBC0B204F02FFB2C68E6
:102CE000084920460AF080FE00283EF418AF20462E
:102CF00005490AF079FE00283EF4C8ADFEF716BF7C
:102D000074F10008ECF00008F8F000086C68237813
:102D10002D2B00F0EB8201460127225CA2F130034B
:102D2000092B00F251832144002303EB830302EBC0
:102D3000430311F8012FA2F13004092CA3F1300351
:102D4000F3D907FB03F3D8B2AC6823782D2B00F03E
:102D50007F82002319460127E25CA2F13003092B90
:102D600000F211832144002303EB830302EB4303AE
:102D700011F8012FA2F13004092CA3F13003F3D98B
:102D800007FB03F3D9B2EB681A782D2A00F05B82B7
:102D9000002214464FF0010E9A5CA2F13007092F71
:102DA00000F2DA821C44002303EB830302EB4303AB
:102DB00014F8012FA2F13007092FA3F13003F3D942
:102DC0000EFB03F3DAB202F089FA012002F096FB5F
:102DD0002C68FEF7BCBC6B681A782D2A00F0818243
:102DE000014601241A5CA2F13000092800F2EA82AF
:102DF0001944002303EB830302EB430311F8012F73
:102E0000A2F130000928A3F13003F3D904FB03F049
:102E10000138C0B201F0B8FA2C68FEF7DEBC686871
:102E2000FEF7A6FAAB681A782D2AC0B200F0DA8154
:102E30000022114601279A5CA2F13004092C00F20D
:102E4000F8821944002303EB830302EB430311F8D8
:102E5000012FA2F13004092CA3F13003F3D907FBB1
:102E600003F3D9B204F098FC2C68D74920460AF045
:102E7000BBFD00287FF456A86868FEF779FAAB68B6
:102E80001A782D2AC0B200F09A810022114601273B
:102E90009A5CA2F13004092C00F2C9821944002383
:102EA00003EB830302EB430311F8012FA2F130047B
:102EB000092CA3F13003F3D907FB03F3D9B204F0D3
:102EC00081FC2C68C14920460AF08EFD00287EF462
:102ED000F2AC6868FEF74CFAAB681A782D2AC0B2DB
:102EE00000F068810022114601279A5CA2F13004AB
:102EF000092C00F2A8821944002303EB830302EBA0
:102F0000430311F8012FA2F13004092CA3F130037F
:102F1000F3D907FB03F399B204F06AFC2C68AC49BF
:102F200020460AF061FD00287EF493AE6868FEF743
:102F30001FFAAB681A782D2AC0B200F03081002247
:102F4000114601279A5CA2F13004092C00F2738229
:102F50001944002303EB830302EB430311F8012F11
:102F6000A2F13004092CA3F13003F3D907FB03F3DA
:102F700099B204F073FC2C68964920460AF034FD9F
:102F800000287EF48DAFFEF771BE6868FEF7F0F999
:102F9000AB681A782D2AC0B200F0B88139464FF0DC
:102FA000010EDA5DA2F13004092C00F238821944D6
:102FB000002303EB830302EB430311F8012FA2F17B
:102FC0003004092CA3F13003F3D90EFB03F3D9B27B
:102FD00004F056FA2C68804920460AF005FD0028C6
:102FE0007EF415ADFFF72BB86868FEF7C1F9AB6842
:102FF0001A782D2AC0B200F0A4813A464FF0010E93
:1030000039469A5CA2F13004092C00F20582194479
:10301000002303EB830302EB430311F8012FA2F11A
:103020003004092CA3F13003F3D90EFB03F3DBB218
:103030004FF4616E0EFB03FEEA6813782D2B00F04F
:103040007B81002319464FF0010CD35CA3F13004BF
:10305000092C00F2EA811144002202EB820203EB08
:10306000420211F8013FA3F13004092CA2F1300211
:10307000F3D90CFB02F2D2B2C2EB021291002B691F
:103080001A782D2A00F05381002214464FF00108CF
:103090009A5CA2F1300CBCF1090F11D81C4400233A
:1030A00003EB830302EB430314F8012FA2F1300C6E
:1030B000BCF1090FA3F13003F2D908FB03F3DFB22F
:1030C0007144394404F0FAFA2C68444920460AF065
:1030D0008BFC00287EF4CAAEFEF735BD102004F04C
:1030E00077FC2C683E4920460AF07EFC00287EF4DE
:1030F000FCAB102004F07EFC2C68FEF7F6BB01222E
:1031000011464FF0FF34FFF781B8012211464FF00E
:10311000FF34FFF7CFB8012211464FF0FF34FFF71D
:10312000D2B9012211464FF0FF34FFF799B80122BE
:1031300011464FF0FF34FFF759B9012211464FF005
:10314000FF34FEF7E4BF012211464FF0FF34FFF7D2
:1031500005B9012211464FF0FF34FFF7D5B8202002
:1031600004F0E2F96C68FEF7C1BF012211464FF08E
:10317000FF377AE40020FEF7A0BC012211464FF091
:10318000FF37FEF768BF012211464FF0FF37FEF709
:10319000A6BD012211464FF0FF37FEF773BD012295
:1031A00011464FF0FF37CDE6012211464FF0FF37B1
:1031B000FEF7D5BC012211464FF0FF3795E60122FC
:1031C00011464FF0FF3763E618F1000820F10008C0
:1031D00028F1000830F10008A0F1000800F1000813
:1031E00054F10008012211464FF0FF3723E620205A
:1031F00004F0ACF9FEF781BF012739464FF0FF34E8
:10320000FFF7FCBA012001464FF0FF34FFF7D6BBB1
:10321000012001464FF0FF37FFF76FBB0120014649
:103220004FF0FF37D2E4012739464FF0FF368AE4EA
:10323000012001464FF0FF373DE4012739464FF0AA
:10324000FF3EFFF7E4BB012214464FF0FF3EA3E52B
:10325000012319464FF0FF377EE5012214464FF057
:10326000FF378FE4012214464FF0FF3EFFF784BB87
:10327000012319464FF0FF37FFF75EBB01221146CD
:103280004FF0FF3736E4012210464FF0FF3EFFF7C4
:10329000F3B8012319464FF0FF37FFF7CAB80122F0
:1032A00014464FF0FF3ED0E4012319464FF0FF379C
:1032B000ABE4012210464FF0FF3CFEF7B2BD012304
:1032C00019464FF0FF3EFEF789BD012319464FF026
:1032D000FF34FEF75FBD012739464FF0FF34FEF79C
:1032E00064BF012001464FF0FF347BE50120014619
:1032F0004FF0FF3711E5012001464FF0FF34FEF794
:103300005EBE012001464FF0FF34C1E4012739467B
:103310004FF0FF3E45E6012214464FF0FF31FEF725
:1033200065BC012211464FF0FF3EFEF73CBC012276
:1033300014464FF0FF38ABE6012319464FF0FF3C2F
:1033400083E6012211464FF0FF3E5AE60127394637
:103350004FF0FF3EFEF7BEBD002234E50021FFF72F
:10336000C9B80021FEF7BDBF0024FFF75AB80021FD
:10337000FFF70BB80021FEF7E1BE0021FEF75DBFAD
:103380000021FEF7D8BF0021FDE4002211E4002156
:10339000FEF72CBE002492E40022FFF704BB0021BC
:1033A000FFF7E1BA0021FFF7BCBB0022FFF77BB8B3
:1033B000002141E40021FEF72BBD0021FFF753B8A7
:1033C000002259E4FF2025E50020BDE40024FEF79B
:1033D000FCBC0021FEF700BF0020FFF783BB0021EB
:1033E000FFF72CBB002008E40021FFF7C3BBFF2040
:1033F000FFF7FCBA0020FFF797BA0021FEF747BF9E
:103400000021FFF712BA0021FEF77BBD0021FEF775
:103410007DBC0021FFF743BB4FF0000E0CE60021FE
:10342000D6E54FF0000CFEF7D9BB002127E60021BE
:1034300045E5002116E500219BE50027FEF7AABB24
:103440000021FEF71FBE002166E50021FEF731BC1A
:103450000023FEF7E4BB00BF08B1FEF7D5B8704704
:1034600038B5FDF73DFA041E1FDB7E2C1ED0294B1C
:103470001B783BBB0A2C34D00D2C32D0082C11D039
:103480007F2C0FD0244B1B6823445B7813F0970FDD
:103490000BD0224A1378190607D42148591CC4546A
:1034A000117038BD1D4A1378C3B938BD194D2B783A
:1034B0006BB100231B481C492B7000F085FC2B7856
:1034C000002BDFD02046BDE83840FDF785BA012348
:1034D000164914482B7000F077FCF0E7013B13709D
:1034E00038BD0A2000F0A4FC0C4B0D4C1D7810498F
:1034F0000022204662551A70FDF762FF0D4A1060E7
:1035000010B10B49FEF780F83E20BDE8384000F0CE
:103510008FBC00BF80070020C80000206C0A00207C
:10352000700A00209CF20008C0F20008ACF200080B
:10353000400A0020680A00202DE9F0431C4A1D4F74
:10354000D2F8008092F804C01B4E1C4B054607CFF2
:10355000A861E9612A6207CEA865E9652A6607CBFA
:1035600096F800903F781E78C5F89800002405F181
:10357000580E85F8247085F864902B46012085F854
:10358000A460C5F89C10C5F8A0201882013004285A
:10359000C3F8008083F804C09C62DC621C635C6337
:1035A0009C63DC6303F14003EFD1BDE8F08300BF0F
:1035B000F0F20008D0F20008E0F20008F0EF000896
:1035C0002DE9F041344C2388022B0AD8A37853B953
:1035D000324D33482946FDF7F3FE324B0E28186072
:1035E00006D0BDE8F0812E492F4800F0EDFBEFE753
:1035F0002E4E2788296806EB871738460AF060FBAD
:1036000068680AF071F97861E868278807F0E0FCDB
:1036100051EC100B0AF018F906EB87132788986213
:10362000686907F0D5FC51EC100B0AF00DF906EBB8
:103630008717F862E869278807F0CAFC51EC100B7D
:103640000AF002F906EB871327881863686A07F007
:10365000BFFC51EC100B0AF0F7F806EB8717786304
:10366000E86A278807F0B4FC51EC100B0AF0ECF87C
:1036700006EB8717B4F80080B863686B07F0A8FC06
:1036800051EC100B0AF0E0F806EB88160123E3700A
:10369000F063BDE8F08100BF84070020B80B002074
:1036A000B80D0020B00B0020F8F20008F00A00204E
:1036B00010B5FDF7C1F9002812DB0A2811D00E4B16
:1036C0001B6803445B7813F0970F09D00B4A1378FB
:1036D000FF2B05D07E2803D0094C591CE0541170F3
:1036E00010BD064B06481978002242541A70BDE8F6
:1036F0001040FFF765BF00BFC8000020B40B0020DA
:10370000B80D002038B5084C4FF400756583C8200B
:10371000FDF724F82583C820FDF720F80020034991
:10372000BDE8384000F068BB0008024000F3000824
:1037300008B50348FFF700FFBDE80840FFF7E2BF08
:10374000F00A002010B501460446054800F0E8FCE8
:10375000224600200349BDE8104000F04DBB00BFE9
:1037600018F3000828F30008F0B5244D2B7983B036
:1037700063B9234A1269064612F480544FF00100DF
:10378000287121D0184640B203B0F0BDEC786B79B7
:103790000CB90F2B21D92A881A4902EB02141C44B8
:1037A00005EB440400262789EE704FF0100E013718
:1037B000CDF800E0304627812E7100F01DFB01207E
:1037C00040B26E7103B0F0BDFCF736FE3046FFF735
:1037D000B9FF204640B203B0F0BD0133DEB2102085
:1037E00000902A8808492C71334620466E7100F0FB
:1037F00003FB204640B203B0F0BD00BF84070020A9
:10380000000402403CF300086CF3000870B5044665
:103810008CB000F1C006A06A656909F0DFFCCDE953
:103820000001E06A09F0DAFCCDE90201206B09F041
:10383000D5FCCDE90401606B09F0D0FCCDE90601AF
:10384000A06B09F0CBFCCDE90801E06B09F0C6FCE8
:103850002A46CDE90A0121460548403400F0B4FA71
:10386000B442D8D10A200CB0BDE8704000F0E0BAF4
:10387000B4F30008F8B5174C94F86E5085B1012DDB
:103880000DD1B4F87030B3F5167F03F1010228BFF3
:103890000023A4F8702028BF84F86E30F8BDF8BD6E
:1038A00020880D4F800118303844FFF75DFF012854
:1038B0000646F3D1238801339BB2022B2380EDD936
:1038C0003846FFF7A3FF84F86E60A4F87050258097
:1038D000F8BD00BF84070020F00A0020F0B50321E6
:1038E00083B01248124D00F06FFA4FF41671114870
:1038F00000F06AFA1021104800F066FA0F4800F054
:103900009DFA05F1220705F14406002436F8021F4E
:1039100037F8023F35F8022F00910948214601345B
:1039200000F052FA112CF1D103B0F0BD00F4000800
:103930008A07002020F4000840F4000860F4000822
:103940007CF400082DE9F04310EE104AC4F30F4157
:1039500001F4FF41B1F5FF4FC4F31603C4F3C7529E
:103960007AD0A2F1960111F11F0F43F4000320DB7E
:103970000029BABF494223FA01F603FA01F6763A62
:103980001BD41F2A71DC002803FA02F31ADB072874
:1039900019DD4048A3FB000100280A4676DB3E49BA
:1039A0000020531DC8730A224FF0060EB3FBF2F23B
:1039B0001EE0763A4FF00006E3D55242002823FA83
:1039C00002F3E4DA0020354A52F82020A2FB0389F2
:1039D000B8F1000F4A465ADB531D314A2E49A2FB6B
:1039E00003230025DA08CD7300284CD000F1FF3EF8
:1039F0002C48DFF8ACC0CEF10E0705460F44ACFBF7
:103A00000231C90801EB8103A2EB4302303205F811
:103A1000012DBD420A46F2D16FEA0E0108442E2361
:103A200000F8013C01381E4D9319A5FB0312D20882
:103A300002EB8201A3EB4103303300F8013D134652
:103A4000002AF2D1002C05DA2D2300F8013C0138C0
:103A5000BDE8F083BDE8F0837BB9134B134830EA2F
:103A6000240028BF1846BDE8F083002808DB07289B
:103A70004FF00003A7DD1A4691E70D48BDE8F0833B
:103A800000200246A8E701F10F00CCE70720931DB4
:103A9000A3E700BF00E1F505F80700208CF400085B
:103AA000CDCCCCCC07080020B0F40008B8F4000856
:103AB000ACF400080EB400B582B003AA52F8041B9F
:103AC000019200F005F802B05DF804EB03B0704716
:103AD0002DE9F04F8DB089460390934604464FF090
:103AE000200A99F8002009F1010352B1252A0ED0CD
:103AF0009946227099F80020013409F10103002A47
:103B0000F4D1039B2270E01A0DB0BDE8F08F99F854
:103B10000120302A18BF4FF0000E05D113F8012FF5
:103B2000302AFBD04FF0010EA2F13001C8B20928B3
:103B30004FF000060AD813F8012F06EB860601EBBA
:103B40004606A2F13001C8B20928F4D92E2A33D092
:103B50001A784FF0FF3502F0FB01682904BF5A784C
:103B60000133A2F1580103F101090B46202B00F2A9
:103B7000FB80DFE813F09E00F900F900F900F9007E
:103B8000F900F900F900F900F900F9009200380095
:103B9000E300E300E300F900CB00F900F900F900CD
:103BA000F900F900F900BC00F900F900AD00F900D6
:103BB0003800F900F9009E005978A1F13002D0B226
:103BC000092803F1010300F2EB80002513F8011F1F
:103BD00005EB850502EB4505A1F13002D0B20928BD
:103BE000F4D90A46B7E70BF10403642A02934FF0B5
:103BF0000A01DBF8003065D0DFF8C08100228DF8C3
:103C00002F20002B00F0C980DFF8B4C10DF12F0781
:103C1000B3FBF1F201FB123013461CF8002007F849
:103C2000012D002BF4D16B1C00F0A180DDF808B051
:103C30006FF0004138460AF0CFF82D1A0290404646
:103C40000AF09CF8029B98F8002025EAE575301AE6
:103C5000E918401A2AB104F8012B18F8012F002A9C
:103C6000F9D1002D00F08F802544302204F8012B7B
:103C7000AC42FBD1002B08DD6A1EFC1817F8011BB3
:103C800002F8011FA742F9D11D4400287DDD2C1840
:103C900005F801ABA542FBD123E70CAFDBF8003000
:103CA00007F8203D0BF1040B01210025DFF80C8102
:103CB000C0E70BF10403642A02934FF01001DBF814
:103CC000003099D1002B97DA5B42DFF8F88095E756
:103CD0006A1C0BF10403DBF80070DFF8E08019BF09
:103CE00029469B469B466FF000410025A2E7002233
:103CF000DBF800308DF82F200BF104020292002B2C
:103D000051D0DFF8B880102108257DE7DBF80030BE
:103D10002949DFF8A880C3F307401A0E8DE8050093
:103D20000BF1040CDAB204A8C3F30723E3460746F9
:103D30000025FFF7BFFE6FF000417BE70BF1070C9A
:103D40002CF0070CDCE900010CF1080B09F07CFDFC
:103D500000EE100A2846FFF7F5FD002507466FF034
:103D60000041DFF8588065E722700134B9E6BEF102
:103D7000000F0CD040460AF001F8DDF808B0351A03
:103D80006FF0004156E7254674E72C46A9E6DDF8BA
:103D900008B06FF0004101254CE70DF12F0742E715
:103DA0000A460025D7E693466FF0004108250DF13D
:103DB0002F07DFF808803DE7C0F400086CFD00081D
:103DC000CCF40008B40B01080FB410B582B004AAFB
:103DD000084C52F8041B01922046FFF779FE20465A
:103DE000FCF772FD204609F0C9FF02B0BDE81040A3
:103DF00004B0704708080020A0B10EB400B582B02E
:103E000004AB1A46039909480193FFF761FE07487E
:103E1000FCF75AFD054809F0B1FF02B05DF804EB6C
:103E200003B070474FF0FF30704700BF800800209C
:103E300008B5FCF725FD002008BD00BF08B5FCF75C
:103E400043FD0A20FCF71CFD002008BDFCF748BD1F
:103E50002DE9F04F8DB089460390934604464FF00C
:103E6000200A99F8002009F1010352B1252A0ED049
:103E70009946227099F80020013409F10103002AC3
:103E8000F4D1039B2270E01A0DB0BDE8F08F99F8D1
:103E90000120302A18BF4FF0000E05D113F8012F72
:103EA000302AFBD04FF0010EA2F13001C8B2092830
:103EB0004FF000060AD813F8012F06EB860601EB37
:103EC0004606A2F13001C8B20928F4D92E2A23D01F
:103ED0001A784FF0FF3502F0FB01682904BF5A78C9
:103EE0000133A2F1580103F101090B46202B00F226
:103EF000D780DFE803F0C4D5D5D5D5D5D5D5D5D570
:103F0000D58228D5D5D5D5ACD5D5D5D5D5D59DD5C2
:103F1000D58ED528D5D5C4005978A1F13002D0B2BC
:103F2000092803F1010300F2E080002513F8011FC6
:103F300005EB850502EB4505A1F13002D0B2092859
:103F4000F4D90A46C7E70BF10403642A02934FF041
:103F50000A01DBF8003000F09C80DFF89881002235
:103F60008DF82F20002B00F0B480DFF88CC10DF10C
:103F70002F07B3FBF1F201FB123013461CF80020AF
:103F800007F8012D002BF4D16B1C00F08C80DDF8BC
:103F900008B06FF00041384609F01EFF2D1A02905C
:103FA000404609F0EBFE029B98F8002025EAE575F3
:103FB000301AE918401A2AB104F8012B18F8012F19
:103FC000002AF9D1002D7CD02544302204F8012BA1
:103FD000AC42FBD1002B08DD6A1EFC1817F8011B50
:103FE00002F8011FA742F9D11D44002867DD2C18F3
:103FF00005F801ABA542FBD133E70CAFDBF800308D
:1040000007F8203D0BF1040B01210025DFF8E480C7
:10401000C1E76A1C0BF10403DBF80070DFF8D48001
:1040200019BF29469B469B466FF000410025B2E729
:104030000022DBF800308DF82F200BF104020292F1
:10404000002B49D0DFF8AC80102108258DE7DBF884
:1040500000302749DFF89C80C3F307401A0E8DE833
:1040600005000BF1040CDAB204A8C3F30723E346FE
:104070000746002500F044F86FF000418BE70BF194
:104080000403642A02934FF01001DBF800307FF440
:1040900064AF002BBFF661AF5B42DFF860805EE784
:1040A00022700134DDE6BEF1000F0CD0404609F06D
:1040B00065FEDDF808B0351A6FF000416BE72C465D
:1040C000CFE6254686E7DDF808B06FF00041012510
:1040D00061E70DF12F0757E793466FF00041082580
:1040E0000DF12F07DFF80C8055E70A460025F2E6B0
:1040F000C0F400086CFD0008CCF40008B40B010803
:104100000EB400B582B004AB1A4604490193FFF720
:104110009FFE02B05DF804EB03B07047C0F40008E6
:104120000FB410B582B004AA084C52F8041B0192D7
:104130002046FFF78DFE2046FCF772FC204609F072
:104140001DFE02B0BDE8104004B07047F808002022
:10415000A0B10EB400B582B004AB1A460399094869
:104160000193FFF775FE0748FCF75AFC054809F074
:1041700005FE02B05DF804EB03B070474FF0FF306E
:10418000704700BF700900202DE9F04F8BB000236D
:10419000454E009381460F4698460DF126050DF1D8
:1041A000060423464FF6FF7223F8022FAB42FBD1E1
:1041B000102F5ED8002367B10AAA09EB030102EBB6
:1041C00043020133DBB211F8081022F8201CBB4275
:1041D000F2D3012301939DF8001034480901FFF741
:1041E000F3FD0DF1060A4FF0000B0AE0FFF7ECFDBE
:1041F0000BF1010355455FFA83FB14D0BBF1080FA7
:104200004ED03AF8021F2A480FFA81FEBEF1FF3F56
:10421000C9B2EBD12748FFF7D7FD0BF10103554594
:104220005FFA83FBEAD12448FFF7CEFD0AE032684B
:1042300013445B7813F0970F08BF2E20FFF7F8FDAB
:10424000AC420AD034F8023FDBB22A2B1846EED13A
:104250002D20FFF7EDFDAC42F4D1009B0A20013385
:104260000093FFF7E5FD019B002B98D00BB0BDE854
:10427000F08F08F1FF3308F10F004B4448440DF173
:10428000060213F8011F22F8021F8342F9D1103FE2
:1042900008F110080023BFB21FFA88F801939AE7CB
:1042A0000648FFF791FDACE7C8000020E0F40008E5
:1042B000ECF40008F4F40008F8F40008E8F400084E
:1042C000F8B50B4C0B4D074604F5807634F8020F19
:1042D00000F2FF7080B2FCF7EBFF3846FCF74EFEB1
:1042E00025F8020F0220FCF72FFAB442EED1F8BDF8
:1042F0004E1000205A1100200A4B30B4002040F626
:10430000FF7403F5807533F8022F11B28142A8BF04
:1043100090B2A142D8BF94B2AB42F4D1001B80B29C
:1043200030BC70475A110020F0B4154F3D5C03B209
:10433000CDB9144EDB0103F17E05354433442A46E2
:1043400032F8024D54809A42FAD1C0010A463152E5
:10435000002001E033F8022FAB421044FAD1C0F341
:104360008F10F0BC7047DC01064EA21E7E34324432
:10437000344422F8021FA242FBD1013D3D54D9E74B
:1043800004000020B80E002002280DD830B4074BDE
:10439000074D1B68074C5874002101221974D9730A
:1043A0009A732A70207030BC704700BF480000200C
:1043B000E809002038100020012819D010D3022865
:1043C00007D00F4B012102221983C8205A83FCF722
:1043D000BBB90B4B01221A831883C820FCF7B4B970
:1043E000074B012102225983C8201A83FCF7ACB97C
:1043F000034B022258835A83C820FCF7A5B900BF9B
:10440000001C024038B503202DED028BFFF7D4FFCE
:10441000FCF758F81B4D0024E0B201F015FC013404
:10442000032CA5EC010AF7D100200021164DDFED89
:10443000178A9FED178A002411E007EE904AF8EEE4
:10444000E77A67EEA87A67EE887A17EE900A08F0A6
:10445000C5FE41EC100B07F0F3F851EC100B0022F5
:104460000C4B08F00FFF09F0A7F90134802C25F858
:10447000020FE2D1084B1B6800221A74BDEC028BBC
:1044800038BD00BF080000204E100020DB0FC940DF
:104490000000003C0000794048000020F8B53C4E88
:1044A0003C4D3368687800249C73FFF785FF68787B
:1044B000FFF706FF384B6F78204603F5807E40F605
:1044C000FF7433F8022F11B28142A8BF90B2A1420B
:1044D000D8BF94B27345F4D1031B9BB22F4A304C22
:1044E00022F8173019463846FFF71EFF3368DFF809
:1044F000C8C09FED2C7A2CF8170003EB470CB3EEE5
:10450000096ABCF82430DFED285A284A2849DFF828
:10451000ACE0284E07EE903AF8EE677AF7EE006AC4
:1045200087EE877A4FF47A7303FB00F382FB030272
:10453000DB17C3EBE21301EB87014EF827307A1C3F
:10454000D2B2022A98BF6A70B0EE665A37EE467A47
:1045500007EE903AA7EE255AF8EEE77AC6EE856A9E
:1045600091ED016A67EE867AFCEEE77AB8EE677A3B
:1045700017EE903A67EE267A46F82730FCEEE77A97
:1045800017EE903A44F8273084BF00236B70F8BDD3
:1045900048000020E80900205A110020481000209F
:1045A0003C1000200000C8420AD7A33C1F85EB51F5
:1045B0000400002050110020681200205C1200202E
:1045C0002DE9F047914E2DED028BB478022C82B08C
:1045D00000F0CB8014D8002C00F0B680012C0AD15A
:1045E0008B4D8C4829780131FFF7EEFB2A788A49F8
:1045F00002238C54B37002B0BDEC028BBDE8F0878F
:10460000032C1AD0632CF6D1814B844819780024EE
:10461000FFF7DAFB01F05AFB3470B480FBF7FAFEC7
:10462000FBF71AFF03F004FB7D4BB4701B681C748E
:1046300002B0BDEC028BBDE8F087754DFBF712FFB1
:104640002878FFF73DFE774B95F8008003F58077DB
:1046500040F6FF74002033F8022F11B28142A8BF48
:1046600090B2A142D8BF94B2BB42F4D1011B6E4BB1
:104670006B4CDFF8E0916D4F89B2404623F818107B
:10468000FFF752FE297823689FED697A9FED696AEA
:10469000694ADFF8C4C122F8180003EB4103F3EEC6
:1046A000095A9B8C32F811A0B6F804E0634A6448BA
:1046B000DFF8588107EE903AF8EE677AF7EE006A75
:1046C00087EE877A4FF47A7303FB0AF38CFB03AC13
:1046D000DB17C3EBEC1349F82130A2FB0EC2D20862
:1046E00002EB8202AEEB420292B207EE903A37EE54
:1046F000657AF0EE665AE7EE065AF8EEE77AC6EE0D
:10470000A56AFCEEE77A17EE903AF8EE677A40F881
:10471000213067EEA67AFCEEE77A17EE903A47F87A
:104720002130002A34D0BEF5966F46D20EF1010337
:104730009BB22268B3804FF496619382518202B09B
:10474000BDEC028BBDE8F087FBF780FEF47000F053
:10475000BDFDF47003F072FA314B1B68DB7B002B5C
:104760003FF449AF0123B37045E7294C3548217820
:104770000131FFF729FB2078FFF71EFE284B1A684E
:1047800003231374B37002B0BDEC028BBDE8F08755
:10479000CEF5966EA2F1993282FB0EC24FEAEE7E02
:1047A00040F6B83CCEEBA2022748CDF800C001315C
:1047B000FFF70AFBB8F804E0B5E72B78DFED237AC2
:1047C00057F8232008EE102AB8EE488A5F1C87EEBF
:1047D000888A18EE100A08F001FD02460B461C48B4
:1047E0003946FFF7F1FA2878B0EE480A01F026FAC8
:1047F000094B2978226803EB81016320002381EDB6
:10480000018A1074B070B38095E700BFE8090020FA
:1048100038100020FCF4000804000020E0F5000837
:10482000480000205A110020481000203C100020B1
:104830000000C8420AD7A33C68120020CDCCCCCCE3
:104840005011002020F5000864F5000800803B4569
:10485000B4F500085C1200201F85EB5108B5084B29
:104860001B784BB9FFF71AFE064A074B07CA1B68AD
:1048700059819A81188108BDBDE80840FFF7A0BEA4
:10488000E80900203C100020480000202DE9F04FEE
:10489000DFF890B0DFF890A0DFF89090DFF890801C
:1048A000194F1A4E1A4D83B00024DBF8002039F856
:1048B00014E03AF81430174802EB44016422B1F8CE
:1048C00024C0CDF800E0A5FB0CE1490902FB11C2B0
:1048D00092B2FFF779FA58F824100F48FFF774FAEC
:1048E00057F824100D48FFF76FFA56F824100C48BB
:1048F0000134FFF769FA032CD7D10A2003B0BDE8D1
:10490000F04FFFF795BA00BF501100203C10002077
:104910001F85EB5100F600081CF600082CF6000875
:104920003CF60008480000204810002068120020D3
:104930005C12002070B5074C074D04F5807634F901
:10494000021F064835F9022FFFF73EFAB442F6D1AE
:1049500070BD00BF4E1000205A11002050F6000814
:10496000024BDB7803B97047FFF790BFE8090020DE
:10497000014B0122DA707047E8090020014B002248
:10498000DA707047E8090020034A044B07CA1B6825
:10499000188159819A8170473C10002048000020FE
:1049A00070B4164D6B5CD3B9154E0BB2DB0103F13D
:1049B0007E05354433442A4632F8024D54809A42EB
:1049C000FAD1C90102467052002001E033F8022FEB
:1049D000AB421044FAD1C0F38F1070BC70470BB2D9
:1049E000DC01074EA21E7E343244344422F8020F0A
:1049F000A242FBD100226A54D8E700BF1400002075
:104A0000701200202DE9D04342F2107303FB00F333
:104A1000C0F58050B3FBF0F007EE900A2DED028B4D
:104A2000F8EE677A82B017EE900A0C4608F0D6FBD3
:104A300041EC100B41EC180B06F056FE57EC106BD6
:104A4000B0EE480AF0EE680A06F04EFE51EC100B8C
:104A5000B0EE480AF0EE680ACDE9000106F044FE27
:104A600059EC108B1FA3D3E90023DDE9000108F006
:104A700009FC42464B4608F005FC1CA3D3E9002381
:104A800008F04EFA02460B463046394608F0FAFB6B
:104A900018A3D3E9002308F043FA02460B4600208E
:104AA0000D4908F019FD0AA3D3E9002308F036FAEE
:104AB00000220A4B08F0E6FB08F0A6FE084B33F88C
:104AC0001430184480B202B0BDEC028BBDE8D08334
:104AD00000000060661271400000F03F0000594085
:104AE000FC130020000000003D51E63D000000A046
:104AF0009096303F0000006026C1503FF8B50A4F45
:104B00000A4E0024E5B22846FCF75AFA2946FFF778
:104B100047FF294647F82400FFF774FF26F81400E2
:104B20000134032CEED1F8BDF01300200414002052
:104B300008B5FFF7E3FF054B054A1B68108851884D
:104B40009288D9841A85988408BD00BF4800002047
:104B500004140020022900D822E70020704700BF7B
:104B6000022901D9002070474CE700BF114B1249C0
:104B70001248F0B59C885D881F88A1FB0426A1FB24
:104B80000523760964225B09A1FB07E185B002FBDE
:104B9000135502FB1644490902FB1172ADB2A4B2CF
:104BA00000959BB2029492B20196FFF70DF905B001
:104BB000F0BD00BF041400201F85EB5164F600080F
:104BC00038B5054D0024E0B201F0AAF825F814002C
:104BD0000134032CF7D138BDFC130020FFF7F0BFE0
:104BE00038B5FFF7EDFF084D002435F914200748CC
:104BF00021460134FFF7E8F8032CF6D10A20BDE87E
:104C00003840FFF715B900BFFC13002088F60008F4
:104C1000044B054A1B681088518892889884D9846F
:104C20001A8570474800002004140020AFF300806C
:104C3000F8B5234E234F0024E5B20421284600F0A6
:104C4000BDFF072126F81400284600F0B7FF27F81B
:104C500014000134032CEFD11B480022B0EE086A87
:104C6000F1EE004AB1EE0C5AF6EE005A36F8121088
:104C700037F8123007EE901AB8EE677A07EE903ADE
:104C80005B1AF8EE676A07EE903A27EE067AF8EEBE
:104C9000E77A66EE866A87EE277A0132032AC6EE45
:104CA000A77A34EEC77A75EE677A77EE277A67EEE1
:104CB000A57AE0EC017AD9D1BDE8F840FBF70EBC4B
:104CC00098150020B01500208C150020F0B5534C2D
:104CD000534E236887B000251D77039504950595ED
:104CE000E8B2FCF729F926F815000135032DF7D1B4
:104CF0004C4F3B78002B7BD14B48494D00F5C0769B
:104D0000A0F17E01034633F8022D5A809942FAD170
:104D100035F8023B20F87E3C8030B042F0D1434E63
:104D2000DFF820E100273A463D460DF10C0CBB1E92
:104D300007F17E003344304433F8021F98420A449E
:104D4000FAD193094CF825204EF825300135032D72
:104D500007F1800702D05CF82520E8E72168344895
:104D6000344F354EDFF8E0C0DFED344A9FED345A62
:104D700014310023B0EE086AF2EE0C5A5EF82350AC
:104D800036F8134037F81320F0EC016A07EE905A1A
:104D9000121BB8EE677A07EE902A27EE067AF8EE35
:104DA000E77A5C00C7EE277A4FF4AF6277EEA67A17
:104DB000F5EEC07AF1EE10FA0DD4F4EEE57AF1EEEC
:104DC00010FA0ADD0133032B2CF8042021F8022FFE
:104DD000D4D107B0F0BD0022F4E777EEA47A67EEF5
:104DE000857AFCEEE77ACDED017ABDF80420E9E79B
:104DF0000B4D0E4E0020831E00F17E0235F8021B83
:104E00003344324423F8021F9A42FBD18030B0F57C
:104E1000C07FF0D100233B7082E700BF4800002034
:104E2000A0150020180000208A1400200C14002077
:104E30008C150020B0150020981500200AD7A33B40
:104E40000000C842F0090020A8150020F8B50C4F5A
:104E50000C4E0021642537F811300B48A6FB0342A5
:104E600052094C1C05FB123321469BB2FEF7ACFFE6
:104E7000032C2146EFD10A20BDE8F840FEF7D8BF49
:104E8000A81500201F85EB5194F6000838B5064D93
:104E900000235C1C55F8232004482146FEF794FFAC
:104EA000032C2346F5D138BDF0090020A4F60008F4
:104EB00002280CD830B4064B06491B68064CD8773C
:104EC000002501225D771A770870227330BC704785
:104ED000480000209E150020F0090020F0B5B34ED8
:104EE000737B83B0092B5ED8DFE813F0710080007C
:104EF00089009800B500D0000A00DF00F0005F00D4
:104F0000AB4DFBF7AFFA2878FCF716F8DFF8B4E200
:104F10009EF80130002B40F0E4802B78A549DF019A
:104F200007F17E040C440F4434F8022D6280BC4229
:104F3000FAD1DA010746885202F17E0E8E440A4405
:104F4000002401E032F8027F72453C44FAD1B18A74
:104F5000994A964FA2FB01E2D20802EB8202A1EB32
:104F60004202A40992B2B461002A00F07381934C0A
:104F70008E4F23684FF496604A1C814259841884EE
:104F8000B28210D3BB692978A3F5FA63642B40F28F
:104F90002E8101318A48FEF717FF216807231E2260
:104FA0008B777B73BA8203B0F0BD864B012200245D
:104FB0005A703473B482FBF72DFAFBF74DFA02F006
:104FC00037FE7E4B74731B6809229A77EBE7FBF779
:104FD0003DFA02F033FE794B74491B685B7F002277
:104FE000B273002BDFD001234B73DCE7704B7648A4
:104FF00019780131FEF7E8FE02237373D3E76C4B97
:10500000724819780131FEF7DFFE6C4B6D4A186863
:1050100001210323837773735170C4E7644DFBF759
:1050200021FA2878FBF788FFDFF898E19EF8013035
:10503000002B67D02B785F49DA01941E7E320C4436
:105040000A4424F8020F9442FBD1DC0100220F5BDA
:105050008EF8012065E0B28A544CB2F5967F80F05C
:10506000C180554BA3FB0213DB0803EB8303A2EBC8
:1050700043039BB2002B00F08980504B1B68501CEF
:105080004FF496715A84B08219848CE7484B50488B
:1050900019780131FEF798FE484B4A4A18680121F9
:1050A00006238377737351707DE7B38A3F4C1E2BC1
:1050B00000F0E1805A1E3D49B282002B7FF473AFAD
:1050C0003E4B1A68092393774B736CE7B38A374CCE
:1050D000142BEFD13F48FEF7B1FE00F08FFDA38AFD
:1050E000E8E72B783349DA01941E7E320C440A44F7
:1050F00024F8020F9442FBD1DA0100248F5A8EF873
:10510000014019E72B782B49DF0107F17E040C449D
:105110000F4434F8022D6280BC42FAD1DC0107460C
:10512000085304F17E0E0A198E44002401E032F87F
:10513000027F72453C44FAD1B18A1F4A1B4FA2FB41
:1051400001E2D20802EB8202A1EB4202A40992B270
:105150003461002A6DD0194C144F23684FF49660C7
:105160004A1C814259841884B282FFF41CAF3B6907
:105170002978A3F2EA63642B50D917480131FEF76E
:1051800023FE2268072393777B730CE7084B134DAC
:1051900019781348C2F5967385FB0352DB17C3EBEE
:1051A000A2020131FEF710FEA28A66E7F009002094
:1051B0009E1500200C140020CDCCCCCC4800002043
:1051C00020F8000818000020B4F60008D8F60008FF
:1051D000E0F70008B0F8000860F700086766666648
:1051E000B8F7000800220523A2826373DBE60131D1
:1051F0002348FEF7E9FD28783A8A042100F0CEFC26
:105200003A8B2878072100F0C9FCFFF711FD2168CF
:10521000082314228B777B73BA82C4E601311948C4
:10522000FEF7D2FD2168042300228B777B73BA82BC
:10523000B9E6C1F59661A2F19932009482FB01248E
:10524000CA17C2EBA402591C03460F48FEF7BCFD67
:10525000B98A80E7C1F59661A2F19932009482FB88
:105260000124CA17C2EBA402591C03460648FEF7E4
:10527000ABFDB98A7BE60548FEF7E0FDA38A19E796
:105280004CF800088CF7000818F7000878F80008B8
:10529000034B1B7B0BB9FFF719BDFFF71FBE00BF08
:1052A000F009002008B5054B9B7B03B908BDFFF74B
:1052B000EDFDBDE80840FFF7C9BD00BFF0090020C3
:1052C000014B01229A737047F0090020014B002224
:1052D0009A737047F0090020704700BF172801D863
:1052E0003B2900D970473B2AFCD8F0B51E4D144627
:1052F000A5FB0136A5FB0023DA0802EB8203F608C2
:1053000083B006EB8607A0EB430040EA0213A1EB53
:10531000470141EA06118DF806300020A5FB04354F
:105320008DF80510ED08FBF743FCFBF7BBF8802078
:10533000FBF728FC05EB8502A4EB420242EA0510CC
:10534000C0B2FBF71FFC9DF80500FBF71BFC9DF8A6
:105350000600FBF717FCFBF7ADF8012003B0BDE832
:10536000F040FBF725BC00BFCDCCCCCC2DE9F047FD
:10537000002082B0FBF71CFCFBF794F80020FBF741
:1053800001FCFBF709FC8DF80400FBF705FC8DF828
:105390000500FBF701FC8DF80600FBF78BF80120F8
:1053A000FBF706FC9DF804009DF805509DF80640AB
:1053B000164BDFF864801870C0F30211C5F30212B7
:1053C000C4F30113DFF854C0DFF854E0104F114E5E
:1053D0008CF8005000F00F0005F00F0A04F00F09E0
:1053E00001EB810102EB820203EB830300EB41013D
:1053F0000AEB420209EB430388F800108EF8002004
:105400003C70337002B0BDE8F08700BFBD150020CE
:10541000BB150020B6150020BC150020B8150020D3
:10542000BE1500204B1E0B2B01D8632800D97047F6
:105430001F2AFCD8F0B51B4D1446A5FB0132A5FB75
:105440000063DB08D20803EB830602EB820783B01C
:10545000A1EB4701A0EB460040EA031041EA02112C
:10546000A5FB04358DF805108DF80600ED08FBF757
:1054700019F88420FBF786FB05EB8502A4EB4202BA
:1054800042EA0510C0B2FBF77DFB9DF80500FBF773
:1054900079FB9DF80600FBF775FB03B0BDE8F04013
:1054A000FBF708B8CDCCCCCC30B583B0FAF7FAFF17
:1054B0000420FBF767FBFBF76FFB8DF80400FBF79D
:1054C0006BFB8DF80500FBF767FB8DF80600FAF71C
:1054D000F1FF074C0749084B9DF804509DF8050063
:1054E0009DF80620257008701A7003B030BD00BF0B
:1054F000B7150020B9150020BA15002010B50446D4
:10550000FFF734FF09490A4A0A4B097812781B78D9
:105510000948FEF759FC24B90848BDE81040FEF7D9
:1055200053BC0A20BDE81040FEF782BCB61500202F
:10553000BE150020BC150020E4F8000820F9000882
:105540002DE9F041FFF7B0FF104B114A1D78114BC8
:1055500011781C781048C5F30012C1F301139700AD
:1055600005F00F063A4403EB83050A2701F00F0309
:10557000210904F00F0406EB420203EB450307FB8D
:105580000141BDE8F041FEF71FBC00BFB915002086
:10559000B7150020BA150020F4F800082DE9F041F5
:1055A000FFF7E4FEFFF780FF2049214A214B0E78E8
:1055B00015781C782048C6F30111C5F30212C4F314
:1055C000021306F00F0605F00F0504F00F0401EBBF
:1055D000810102EB820203EB830306EB410105EB41
:1055E000420204EB4303FEF7EFFB144B144A1D7811
:1055F000144B11781C781448C5F30012C1F3011341
:10560000970005F00F063A4403EB83050A2701F0E3
:105610000F03210904F00F0406EB420203EB4503DC
:1056200007FB0141BDE8F041FEF7CEBBBB150020F2
:10563000B8150020BD1500200CF90008B915002090
:10564000B7150020BA150020F4F8000808B5FFF7D8
:105650008DFE084B1B781BB9074B1B78012B00D91B
:1056600008BD102001F06AFE2020BDE8084001F0CE
:1056700065BE00BFB8150020BD15002010B5FFF7AE
:1056800075FE0C4A0C4B126818780C4B10701B7886
:105690000B495370C3EB03134FF4616409789170A5
:1056A0009B0004FB003319445160BDE81040FFF734
:1056B000CDBF00BF48000020B6150020BE15002059
:1056C000BC15002008B5FFF751FE074B187848B904
:1056D000064B1B783BB9064B187801288CBF00207D
:1056E000012008BD002008BDBB150020B815002012
:1056F000BD15002008B5FFF739FE064B1B7833B9FE
:10570000054B187801288CBF0020012008BD00201F
:1057100008BD00BFB8150020BD150020014B0122B7
:105720001A7070470C0A0020014B00221A70704753
:105730000C0A002010B40B4A0B4B126818780B4B64
:1057400010701B780A495370C3EB03134FF4616464
:10575000097891709B0004FB0033194451605DF897
:10576000044B704748000020B6150020BE150020ED
:10577000BC15002030B587B0FAF794FE0020FBF787
:1057800001FA0DF103040DF11605FBF705FA04F813
:10579000010FAC42F9D1FAF78DFE01A81321FEF7F3
:1057A000F3FC07B030BD00BF10B504460220FBF784
:1057B000FFF9FAF717FF600900F0080040F0030056
:1057C000FBF7E0F9E0B2FBF7DDF9FBF7E5F904469A
:1057D000FAF712FF0120FBF7EBF9204610BD00BFDE
:1057E00099B1F8B50E461746451E0024381980B207
:1057F000FFF7DAFF0134B44205F8010FF6D10020BB
:105800000449BDE8F840FEF7F7BA00200149FEF769
:10581000F3BA00BF24F9000838B50546FFF7C4FF06
:105820000446681C80B2FFF7BFFF40EA042080B244
:1058300038BD00BF70B58400063482B005462046EE
:105840000E46FFF7E9FF2A46009033460449002040
:10585000FEF7D2FA204602B0BDE87040FFF7DCBF89
:1058600040F90008F8B50546FFF79EFF0746681C9B
:1058700080B2FFF799FF0446A81C80B2FFF794FF9F
:105880000646E81C80B2FFF78FFF240444EA076451
:10589000204340EA0620F8BDF8B50546FFF784FF2F
:1058A0000746681C80B2FFF77FFF0446A81C80B241
:1058B000FFF77AFF0646E81C80B2FFF775FF240465
:1058C00044EA0764204340EA062000EE100AF8BDCF
:1058D00010B50220FBF76CF9FAF784FE0520FBF700
:1058E00051F9FBF759F90446FAF786FE0120FBF758
:1058F0005FF904F0010010BD08B50220FBF758F96C
:10590000FAF770FE0620FBF73DF9FAF775FE012065
:10591000BDE80840FBF74CB938B50D460446FFF723
:10592000EBFF0220FBF744F9FAF75CFE600900F098
:10593000080040F00200FBF725F9E0B2FBF722F97E
:105940002846FBF71FF9FAF757FE0120FBF730F95D
:1059500002E00520FAF7F8FEFFF7BAFF0028F8D1B9
:1059600038BD00BF99B1F8B50E461746451E002454
:10597000381980B2013415F8011FFFF7CDFFB4428A
:10598000F6D100200449BDE8F840FEF735BA002002
:105990000149FEF731BA00BF64F9000838B50D4679
:1059A0000446090AFFF7B8FF601CE9B280B2BDE8FF
:1059B0003840FFF7B1BF00BF38B50D460446090EA9
:1059C000FFF7AAFF601CC5F3074180B2FFF7A4FFF1
:1059D000A01CC5F3072180B2FFF79EFFE01CE9B2CF
:1059E00080B2BDE83840FFF797BF00BF10EE101A35
:1059F000FFF7E2BF08B50220FBF7DAF8FAF7F2FD8D
:105A00000420FBF7BFF8FAF7F7FD0120BDE80840D6
:105A1000FBF7CEB810B50024A0B200210134FFF787
:105A20007BFFB4F5007FF7D110BD00BF70B5ADF5B9
:105A3000007D6D466C4680AE601B80B2FFF7B4FE01
:105A400004F8010BB442F7D128464FF48071FEF7F9
:105A50009BFB0DF5007D70BD38B50020FFF7A4FE5F
:105A6000054D0024A0B2FFF79FFE0134062C05F877
:105A7000010BF7D138BD00BFC015002038B5074D68
:105A800000242B19C4F346012A5D5B7804480131D8
:105A90000234FEF799F9062CF3D138BDC015002069
:105AA00080F9000838B5431EDAB2022A13D8054639
:105AB000C8060C4610D48A061BD55B00581C80B261
:105AC000FFF72AFF294622460C48FEF77DF9BDE87C
:105AD0003840FFF7C1BF38BD5B0098B2FFF71CFF2D
:105AE000294622460648FEF76FF9BDE83840FFF721
