:020000040800F2
:1000000000000220E12B00082D2C00082D2C0008F8
:100010002D2C00082D2C00082D2C000800000000BD
:100020000000000000000000000000002D2C00086F
:100030002D2C0008000000002D2C000835040008BD
:100040002D2C00082D2C00082D2C00082D2C00082C
:100050002D2C00082D2C00082D2C00082D2C00081C
:100060002D2C00082D2C00082D2C00082D2C00080C
:100070002D2C00082D2C00082D2C00082D2C0008FC
:100080002D2C00082D2C00082D2C0008000000004D
:100090000000000000000000000000002D2C0008FF
:1000A0002D2C00082D2C00082D2C00082D2C0008CC
:1000B0002D2C00082D2C00082D2C00082D2C0008BC
:1000C0002D2C00082D2C00082D2C00082D2C0008AC
:1000D0002D2C0008F50C0008410E0008000000005F
:1000E0002D2C00082D2C00082D2C000800000000ED
:1000F0000000000000000000000000002D2C00089F
:10010000000000002D2C00082D2C00082D2C0008CC
:1001100000000000000000000000000000000000DF
:100120002D2C00082D2C00082D2C00082D2C00084B
:100130002D2C00080000000000000000000000005E
:100140000000000000000000000000009D1E0008EC
:100150002D2C00082D2C00082D2C00082D2C00081B
:100160002D2C00082D2C00080000000000000000CD
:10017000000000000000000000000000000000007F
:10018000000000002D2C000800000000000000000E
:080190002D2C00082D2C0008A5
:1001980010B504212DED028B1548164C00F0E4FB38
:1001A8001548042100F0E0FBD4ED007AB3EE048A90
:1001B800F4EEC87AF1EE10FA16D5F6EE008A77EE6C
:1001C800A87A0E48C4ED007A17EE901A78EE677A8E
:1001D8000B4A17EE903A00F0C7FBD4ED007AF4EE24
:1001E800C87AF1EE10FAEAD4BDEC028B10BD00BF5C
:1001F800D02F000800000020E42F0008FC2F000882
:100208000000A0410F4B104A9A601A6842F0011290
:100218001A601A4611680B4B8803FBD50B4A5A60C3
:100228001A6842F080721A601968064A8901FBD57B
:10023800074B40F203611960936843F0020393602F
:10024800704700BF003802400010600608184004DC
:10025800003C024010B51548154C00F085FB0821FC
:10026800144800F081FB6021134800F07DFB002159
:10027800124800F079FB1249124800F075FB21463C
:10028800114800F071FB1149114800F06DFB21463F
:10029800104800F069FB21460F4800F065FB214635
:1002A8000E48BDE8104000F05FBB00BF28300008D2
:1002B80000D8B8053C3000085C3000087C300008E5
:1002C8000024F4009C300008BC300008006CDC02FC
:1002D800DC300008FC3000081C3100083C31000804
:1002E8002DE9F04F834685B00F4600200021CDE967
:1002F80000014FF0000EF446F046F14672460297B0
:10030800CDF80CB00299029B31F8020B1B780291D0
:100318004FEA820BC0F3C310C0B2ABF1200600FA5B
:1003280006F503F0030A5600CBF1200120FA01F18B
:1003380000FA0BF40AFA06F7DDE900AB0D43C3F344
:100348008100C3F34111C3F3001393400132B0405D
:10035800B1404AEA040A4BEA050B102ACDE900AB82
:1003680049EA070948EA00084EEA010E4CEA030C7C
:10037800C8D1DDE90001DDF80CB0CBF82000CBF8DE
:100388002410CBF80090CBF80880CBF80CE0CBF821
:1003980004C005B0BDE8F08F0A4A0B48136B10B5CE
:1003A8000A4C43F0070321461363FFF799FF04F152
:1003B80020010748FFF794FF04F140010548BDE814
:1003C80010408DE70038024000000240E42D00088C
:1003D8000004024000080240024B4FF480429A6138
:1003E800704700BF00080240024B4FF080429A61FC
:1003F800704700BF00080240044B5A6952044CBFC2
:100408004FF080424FF480429A61704700080240E2
:1004180010B5054C4FF48043A36100F06BF84FF022
:100428008043A36110BD00BF00080240114B1A6849
:100438000132092A1CDD5A6810B401320E4C012120
:100448000020092A217018600EDD9A680B4C58604C
:100458000132092AC8BF0A4A2170CABF11709A60BE
:1004680098605DF8044B70475A605DF8044B70471C
:100478001A607047FC000020A8070020A907002088
:10048800AA0700202DE9F043114D124B296C1248A0
:10049800DFF848804FF08042012441F001014FF01D
:1004A8005F094FF0F00C4FF0000E07271026296463
:1004B800C2F8289054611460C3F8048080F823C0FF
:1004C800C3F808E01F6080F82360BDE8F08300BF30
:1004D8000038024010E000E000ED00E0FF76010087
:1004E8004FF080431A465B6A1844536A1B1A002B64
:1004F800FBDB70474FF0804106E04A6A02F57A72EA
:100508004B6A9B1A002BFBDB10F1FF30F5D27047CA
:100518002DE9F04310EE104AC4F30F4101F4FF41F6
:10052800B1F5FF4FC4F31603C4F3C7527AD0A2F152
:10053800960111F11F0F43F4000320DB0029BABF15
:10054800494223FA01F603FA01F6763A1BD41F2A28
:1005580071DC002803FA02F31ADB072819DD40488A
:10056800A3FB000100280A4676DB3E490020531D04
:10057800C8730A224FF0060EB3FBF2F21EE0763A79
:100588004FF00006E3D55242002823FA02F3E4DADA
:100598000020354A52F82020A2FB0389B8F1000F49
:1005A8004A465ADB531D314A2E49A2FB0323002534
:1005B800DA08CD7300284CD000F1FF3E2C48DFF854
:1005C800ACC0CEF10E0705460F44ACFB0231C9089A
:1005D80001EB8103A2EB4302303205F8012DBD4245
:1005E8000A46F2D16FEA0E0108442E2300F8013CB6
:1005F80001381E4D9319A5FB0312D20802EB8201A4
:10060800A3EB4103303300F8013D1346002AF2D131
:10061800002C05DA2D2300F8013C0138BDE8F083F1
:10062800BDE8F0837BB9134B134830EA240028BF98
:100638001846BDE8F083002808DB07284FF00003C0
:10064800A7DD1A4691E70D48BDE8F0830020024671
:10065800A8E701F10F00CCE70720931DA3E700BF2F
:1006680000E1F50508010020442E0008CDCCCCCCD3
:100678001701002060310008683100085C3100086B
:100688000EB400B582B003AA52F8041B019200F020
:1006980005F802B05DF804EB03B070472DE9F04FA0
:1006A8008DB089460390934604464FF0200A99F886
:1006B800002009F1010352B1252A0ED09946227073
:1006C80099F80020013409F10103002AF4D1039BB1
:1006D8002270E01A0DB0BDE8F08F99F80120302A99
:1006E80018BF4FF0000E05D113F8012F302AFBD0A8
:1006F8004FF0010EA2F13001C8B209284FF00006F0
:100708000AD813F8012F06EB860601EB4606A2F17C
:100718003001C8B20928F4D92E2A23D01A784FF00C
:10072800FF3502F0FB01682904BF5A780133A2F1B2
:10073800580103F101090B46202B00F2E480DFE8A1
:1007480003F08EE2E2E2E2E2E2E2E2E2E28228D3CF
:10075800D3D3E2BBE2E2E2E2E2E2ACE2E29DE228EB
:10076800E2E28E005978A1F13002D0B2092803F1F3
:10077800010300F2E480002513F8011F05EB85054D
:1007880002EB4505A1F13002D0B20928F4D90A4696
:10079800C7E70BF10403642A02934FF00A01DBF860
:1007A800003065D0DFF8B48100228DF82F20002BAF
:1007B80000F0C280DFF8A8C10DF12F07B3FBF1F2FA
:1007C80001FB123013461CF8002007F8012D002BFE
:1007D800F4D16B1C00F09A80DDF808B06FF000418E
:1007E800384602F046FA2D1A0290404602F039FACD
:1007F800029B98F8002025EAE575301AE918401A96
:100808002AB104F8012B18F8012F002AF9D1002D7C
:1008180000F088802544302204F8012BAC42FBD13B
:10082800002B08DD6A1EFC1817F8011B02F8011FCF
:10083800A742F9D11D44002876DD2C1805F801AB34
:10084800A542FBD133E70CAFDBF8003007F8203DB9
:100858000BF1040B01210025DFF80081C0E70BF143
:100868000403642A02934FF01001DBF8003099D199
:10087800002B97DA5B42DFF8EC8095E76A1C0BF1F6
:100888000403DBF80070DFF8D48019BF29469B46C3
:100898009B466FF000410025A2E70022DBF80030FC
:1008A8008DF82F200BF104020292002B4AD0DFF8BA
:1008B800AC80102108257DE7DBF800302649DFF8F9
:1008C8009C80C3F307401A0E8DE805000BF1040C59
:1008D800DAB204A8C3F30723E34607460025FFF767
:1008E800CFFE6FF000417BE728469BED000ADFF85A
:1008F8006C80FFF70DFE0BF10405AB4607466FF061
:10090800004100256CE722700134D0E6BEF1000FEB
:100918000CD0404602F0A5F9DDF808B0351A6FF0A2
:1009280000415DE725467BE72C46C0E6DDF808B0C8
:100938006FF00041012553E70DF12F0749E70A46FB
:100948000025EEE693466FF0004108250DF12F07CC
:10095800DFF8088044E700BF743100083830000829
:1009680080310008703100080FB410B582B004AAB5
:10097800084C52F8041B01922046FFF78FFE2046D0
:1009880000F030FA204602F06CF902B0BDE81040E1
:1009980004B0704718010020A0B10EB400B582B0B1
:1009A80004AB1A46039909480193FFF777FE0748F5
:1009B80000F018FA054802F054F902B05DF804EBAB
:1009C80003B070474FF0FF30704700BF9001002020
:1009D80008B500F0E3F9002008BD00BF08B500F035
:1009E80001FA0A2000F0DAF9002008BD00F006BA82
:1009F8000EB400B582B003AA52F8041B019200F0AD
:100A080005F802B05DF804EB03B070472DE9F04F2C
:100A18008DB089460390934604464FF0200A99F812
:100A2800002009F1010352B1252A0ED099462270FF
:100A380099F80020013409F10103002AF4D1039B3D
:100A48002270E01A0DB0BDE8F08F99F80120302A25
:100A580018BF4FF0000E05D113F8012F302AFBD034
:100A68004FF0010EA2F13001C8B209284FF000067C
:100A78000AD813F8012F06EB860601EB4606A2F109
:100A88003001C8B20928F4D92E2A23D01A784FF099
:100A9800FF3502F0FB01682904BF5A780133A2F13F
:100AA800580103F101090B46202B00F2D780DFE83B
:100AB80003F0C4D5D5D5D5D5D5D5D5D5D58228D5A6
:100AC800D5D5D5ACD5D5D5D5D5D59DD5D58ED52823
:100AD800D5D5C4005978A1F13002D0B2092803F164
:100AE800010300F2E080002513F8011F05EB8505DE
:100AF80002EB4505A1F13002D0B20928F4D90A4623
:100B0800C7E70BF10403642A02934FF00A01DBF8EC
:100B1800003000F09C80DFF8988100228DF82F20AB
:100B2800002B00F0B480DFF88CC10DF12F07B3FB68
:100B3800F1F201FB123013461CF8002007F8012DD2
:100B4800002BF4D16B1C00F08C80DDF808B06FF03E
:100B58000041384602F08DF82D1A0290404602F006
:100B680080F8029B98F8002025EAE575301AE91804
:100B7800401A2AB104F8012B18F8012F002AF9D1DC
:100B8800002D7CD02544302204F8012BAC42FBD147
:100B9800002B08DD6A1EFC1817F8011B02F8011F5C
:100BA800A742F9D11D44002867DD2C1805F801ABD0
:100BB800A542FBD133E70CAFDBF8003007F8203D46
:100BC8000BF1040B01210025DFF8E480C1E76A1C62
:100BD8000BF10403DBF80070DFF8D48019BF294655
:100BE8009B469B466FF000410025B2E70022DBF8E8
:100BF80000308DF82F200BF104020292002B49D00F
:100C0800DFF8AC80102108258DE7DBF80030274994
:100C1800DFF89C80C3F307401A0E8DE805000BF13E
:100C2800040CDAB204A8C3F30723E34607460025F9
:100C3800FFF7DEFE6FF000418BE70BF10403642A37
:100C480002934FF01001DBF800307FF464AF002B03
:100C5800BFF661AF5B42DFF860805EE72270013467
:100C6800DDE6BEF1000F0CD0404601F0FAFFDDF8DA
:100C780008B0351A6FF000416BE72C46CFE62546E1
:100C880086E7DDF808B06FF00041012561E70DF156
:100C98002F0757E793466FF0004108250DF12F07FE
:100CA800DFF80C8055E70A460025F2E674310008A3
:100CB8003830000880310008703100080FB410B5D2
:100CC80082B004AA084C52F8041B01922046FFF790
:100CD8009DFE204600F02CF9204601F0C2FF02B02C
:100CE800BDE8104004B0704708020020194A136894
:100CF800990610B406D51849546848680A68121A43
:100D08007F2A17DD1B0612D5134BD3F88820D3F89A
:100D18008C10914216D0D3F888200E4802F07F013B
:100D28001944013291F89010C3F8882041605DF8A9
:100D3800044B70470A6802F07F00084401320472CD
:100D48000A60DFE7034A5DF8044BD36823F08003A9
:100D5800D36070470010014008030020F0B40B4C2A
:100D68000B4A616C0B4D0C4BB3FBF0F042F22C07B5
:100D78000023202641F010010009616453611361CA
:100D88009060D7606E60F0BC704700BF00380240CA
:100D98000010014000E100E000808D5B0A2810B5DA
:100DA800044616D00D48D0F88C20D0F888300B496E
:100DB800D31A7F2BF9DC02F07F030B44084883F831
:100DC8009040C368013243F08003C1F88C20C360AF
:100DD80010BD0D20FFF7E2FFE4E700BF0803002085
:100DE8000010014010B5441C007828B1FFF7D6FF69
:100DF80014F8010B0028F9D110BD00BF074A11688B
:100E08005368994206D003F07F0111440133087AF0
:100E1800536070474FF0FF30704700BF0803002051
:100E2800044AD2F88C10D2F888308B42FBD10020CB
:100E3800704700BF08030020194A1368990610B4C8
:100E480006D51849546848680A68121A7F2A17DDB7
:100E58001B0612D5134BD3F88820D3F88C10914277
:100E680016D0D3F888200E4802F07F0119440132C9
:100E780091F89010C3F8882041605DF8044B7047E2
:100E88000A6802F07F000844013204720A60DFE752
:100E9800034A5DF8044BD36823F08003D36070479E
:100EA8000044004018040020F0B40B4C0B4A216C9D
:100EB8000B4D0C4BB3FBF0F042F22C0700234026FD
:100EC80041F4003100092164536113619060D760D7
:100ED8006E60F0BC704700BF00380240004400401C
:100EE80000E100E000C0C62D0A2810B5044616D05F
:100EF8000D48D0F88C20D0F888300B49D31A7F2BB6
:100F0800F9DC02F07F030B44084883F89040C3687B
:100F1800013243F08003C1F88C20C36010BD0D205E
:100F2800FFF7E2FFE4E700BF180400200044004098
:100F380010B5441C007828B1FFF7D6FF14F8010B50
:100F48000028F9D110BD00BF074A116853689942BB
:100F580006D003F07F0111440133087A53607047CB
:100F68004FF0FF30704700BF18040020044AD2F841
:100F78008C10D2F888308B42FBD10020704700BF1C
:100F88001804002038B5046856490546204601F083
:100F980007FE002800F09E805349204601F000FE1D
:100FA800002800F092805149204601F0F9FD002800
:100FB80000F087804E49204601F0F2FD00287BD0E2
:100FC8004C49204601F0ECFD002870D04A492046E3
:100FD80001F0E6FD002865D04849204601F0E0FD13
:100FE80000285AD04649204601F0DAFD00284FD0A3
:100FF8004449204601F0D4FD002844D04249204607
:1010080001F0CEFD002839D04049204601F0C8FD46
:1010180080B33F49204601F0C3FD30B33D49204627
:1010280001F0BEFD10B93C4B01221A7020463B4925
:1010380001F0B6FD08B9384B18702046384901F060
:10104800AFFD50B13749204601F0AAFD00B138BDC7
:101058003548BDE8384001F061BD344801F05EFD17
:10106800334801F05BFD2C68ECE7324800F04AFB9E
:101078002C68D3E700F0BAFB2C68CAE72E48FFF7C4
:101088001DFE2C68C0E72D48FFF718FE2C68B5E751
:101098002B48FFF713FE2C68AAE72A48FFF70EFE35
:1010A8002C689FE72848FFF709FE2C6894E7274833
:1010B800FFF704FE2C6889E72548FFF7FFFD2C6839
:1010C8007EE700F0FBFA2C6874E72248FFF7F6FD8C
:1010D8002C6868E72048FFF747FC1F48FFF7EEFD3C
:1010E8002C6859E7943100089C310008AC3100089D
:1010F800B4310008C8310008D4310008E4310008D0
:10110800F83100080C320008243200083832000890
:1011180040320008543200082805002058320008E0
:101128005C320008B0320008B832000864320008A7
:1011380084320008443200082C32000814320008B7
:1011480000320008EC310008D8310008CC31000822
:10115800BC310008A031000898310008014801F0AE
:10116800DDBC00BFE0320008014801F0D7BC00BF79
:10117800E432000830B403782D2B19D00022114630
:101188000125825CA2F13004092C16D80144002301
:1011980003EB830302EB430311F8012FA2F13004A0
:1011A800092CA3F13003F3D903FB05F030BC7047D9
:1011B800012211464FF0FF35E3E70020F6E700BFB4
:1011C80030B403782D2B19D0002211460125825CFA
:1011D800A2F13004092C16D80144002303EB830341
:1011E80002EB430311F8012FA2F13004092CA3F1FB
:1011F8003003F3D903FB05F030BC704701221146D8
:101208004FF0FF35E3E70020F6E700BF30B1037881
:10121800202B03D110F8013F202BFBD0704700BFD3
:1012280010B32DE9F041002588462F460E1F03789C
:10123800202B044603D114F8013F202BFBD05BB1CF
:101248002046202101F0F7FC48B10770013005F174
:10125800010546F8044FEAD12846BDE8F08148F870
:101268002540681CBDE8F081704700BF08B10846FA
:1012780088E6704708B5044801F050FC0348BDE80B
:10128800084001F04BBC00BF6432000884320008FB
:10129800014801F043BC00BFB832000838B5FFF779
:1012A800ADFD002816DB0A281CD00D281AD0082806
:1012B80011D07F280FD0184B1B6803445B7813F0BC
:1012C800970F07D0154A1378190603D4144C591CE4
:1012D800E054117038BD114A1378002BFAD0013B45
:1012E800137038BD0F480E4CFFF73EFB0B4B0E49F1
:1012F8001D78002220461A706255FFF791FF0B4BAC
:10130800186020B90A48BDE8384001F007BC064813
:10131800FFF738FEF6E700BF94000020D80700204A
:10132800DC07002020320008AC070020D40700208A
:10133800E432000810B50F4C238803B910BD0E49DC
:101348000E48FFF711FB0E4801F0E8FB0A480D496B
:10135800FFF766FF0C4B186038B90C4801F0DEFB4C
:101368000B4A00231380238010BD0648FFF70AFEAE
:10137800F3E700BF7C050020000C0020E8320008DD
:10138800F0320008AC070020D4070020E43200083F
:101398007E0500202DE9F04F464E8BB00F46824661
:1013A80088464FF000090DF126050DF10604234685
:1013B8004FF6FF7223F8022FAB42FBD1B8F1100FA2
:1013C8005ED80023B8F1000F0CD00AAA0AEB03017B
:1013D80002EB43020133DBB211F8091022F8201C9A
:1013E8004345F2D3012301934FF0000B0FB30AAB2F
:1013F80003EB4B02304832F8201C0AB20132C9B262
:101408000ED0FFF7B1FA0BF101035FFA83FB5F45DA
:101418000FD9BBF1080FEAD12848FFF7A5FAE6E78C
:101428002748FFF7A1FA0BF101035FFA83FB5F4539
:10143800EFD82448FFF798FA03E0FFF795FAA5429A
:1014480011D034F8023F2048DBB22A2B194613D0BA
:10145800326813445B7813F0970FEED11B48FFF7FF
:1014680083FAA542EDD11A48FFF77EFA019B002BBB
:101478009BD00BB0BDE8F08F1648FFF775FADEE792
:1014880009F1FF3309F10F00534450440DF10602EE
:1014980013F8011F22F8021F8342F9D1A8F110089E
:1014A80009F1100900231FFA88F81FFA89F9019336
:1014B8009AE700BF94000020F0340008F4320008D6
:1014C800F832000824340008FC3200080033000811
:1014D8002032000870310008F0B5114D114F034655
:1014E80007CDB7F804C02D7897F806E098613868FA
:1014F80083F8245000240125D9611A621860A3F8E2
:1015080004C083F806E01D829C62DC621C635C6395
:101518009C63DC631C645C649C64DC64F0BD00BF99
:1015280004330008143300082DE9F041484C23889F
:1015380083B9A37883B9474D47482946FFF770FE1A
:10154800464B112818600CD045484349BDE8F04186
:10155800FFF70ABABDE8F0813F494148FFF704FAAE
:10156800E9E727883F4E296807EB870706EB071747
:10157800384601F06EFB686801F055FBB4F800804E
:101588007861E86800F0B2F908EB880806EB0818FB
:101598006869278888ED0A0A00F0A8F907EB870729
:1015A80006EB0713E869278883ED0B0A00F09EF91C
:1015B80007EB870706EB0713686A278883ED0C0A91
:1015C80000F094F907EB870706EB0713A86A27884A
:1015D80083ED0D0A00F08AF907EB870706EB07137E
:1015E800E86A278883ED0E0A00F080F907EB870781
:1015F80006EB0713286B278883ED0F0A00F076F9AE
:1016080007EB870706EB0713A86B278883ED100AFB
:1016180000F06CF907EB870706EB0713E86B83ED1F
:10162800110A278800F062F907EB870706EB07170E
:10163800286C87ED120A258800F058F905EB850516
:10164800012306EB0516E37086ED130ABDE8F08169
:101658002C050020B4080020B40A0020AC080020A3
:101668001C3300085C08002010B5FFF76DFC00284B
:1016780012DB0A2811D00E4B1B6803445B7813F069
:10168800970F09D00B4A1378FF2B05D07E2803D07B
:10169800094C591CE054117010BD064B06481978C6
:1016A800002242541A70BDE81040FFF73DBF00BF4A
:1016B80094000020B0080020B40A002010B50A4C9D
:1016C8004FF40013A361C820FEF714FF2023A36181
:1016D800C820FEF70FFF1023A36100200349BDE8CF
:1016E8001040FFF759B900BF00000240243300083A
:1016F80008B50348FFF7F0FEBDE80840FFF7DEBF76
:101708005C08002010B5014604460548FFF7D6FAE4
:10171800224600200349BDE81040FFF73DB900BF4D
:101728003C3300084C33000870B5254D2C7982B045
:1017380034B3EC786B7994B91F2B31D9202B2A88D4
:1017480008D102EB421305EB4303B3F8481001310B
:10175800A3F848101B490020FFF71EF908E0202BCA
:101768002A8814D92021009100201749FFF714F97D
:101778000124002360B2EB702B716B7102B070BD55
:1017880001232B71FFF7BEFF60B202B070BD02EB00
:101798004211194405EB4101088901300881E1E74C
:1017A8000133DEB2202000902A8808492C71334684
:1017B80020466E71FFF7F0F860B202B070BD00BF4E
:1017C8002C0500209033000860330008C43300085B
:1017D80008B50448FFF772FA00200349BDE808403D
:1017E800FFF7DAB8BC3100080C34000838B50748F0
:1017F800074C01F093F904F1420534F8021F05483B
:1018080001F08CF9AC42F8D138BD00BF2034000893
:1018180032050020283400082DE9F0438BB0836A94
:101828004269D0F834C0D0F838E0D0F82C90D0F81D
:101838003080C76B066C456C846C0146C06C0890A0
:10184800CDF808C0CDF80CE0CDF80090CDF80480B4
:101858000497059606950794064801F05FF9FFF787
:10186800C5FF054801F05AF904480BB0BDE8F0433C
:10187800FFF77AB82C340008F0320008203200084C
:10188800F8B5184C94F84A507DB1012D0CD1B4F834
:101898004C303B2B03F1010288BF0023A4F84C20F5
:1018A80088BF84F84A30F8BDF8BD20880E4F00EB99
:1018B8008000000118303844FFF736FF012806463B
:1018C800F1D1FFF7FBFE238801339BB22380002B65
:1018D800E9D03846FFF7A0FF84F84A60A4F84C50D6
:1018E8002580F8BD2C0500205C080020F0B5411EBD
:1018F800002200E0013211F8013F202BA3F1090476
:10190800F8D0012CF6D92B2B00F089802D2B00F074
:101918008B80B7EE000AA3F13001092900F29A8002
:101928004F4C9FED507A85182621002901F1FF318F
:10193800A3F13003C1F14B0602F1010207DB07EE08
:10194800903AD4ED266AF8EEE77AA6EEA77A15F86B
:10195800013FA3F13007092FA4F10404E5D92E2B88
:1019680008BF01328718855CA5F13003DCB2092C69
:101978001BD83B4C04EB8104002902F1010201F160
:10198800FF3107DB07EE903AD4ED006AF8EEE77A0C
:10199800A6EEA77A17F8015FA5F130035FFA83FE78
:1019A800BEF1090FA4F10404E6D905F0DF05452DC1
:1019B80012D04B2E09DC2A4B03EB8606D6ED007AB3
:1019C80027EE277A27EE000AF0BD4C2E31D09FED86
:1019D800267A27EE000AF0BD511C435C2B2B30D031
:1019E8002D2B32D01A460124A2F13003092BE0D85E
:1019F8000844002303EB830302EB430310F8012F91
:101A0800A2F130010929A3F13003F3D903FB0466DD
:101A1800002ECEDA9FED137A27EE000AF0BD0132D0
:101A2800B7EE000A835C76E70132BFEE000A835CFA
:101A380071E7DFED0E7AB4EEE77AF1EE10FABAD478
:101A4800C5E7911C0124425CCEE7911C4FF0FF349E
:101A5800425CC9E79FED037A252626217FE700BF70
:101A6800642E0008000000000000807FDDC7D93F19
:101A78001049114BD1F8882042F4700210B4C1F813
:101A880088201A680D4C002042F001021A60986004
:101A98001A6822F0847222F480321A605C601A6834
:101AA8004FF0006422F480221A60D8608C605DF8E0
:101AB800044B704700ED00E000380240103000246D
:101AC8001848836803F00C03042B29D0082B0AD08C
:101AD800154B144A154892681549C2F30312825CE3
:101AE800D3400B6070474368416813F4800F436824
:101AF80018BF104801F03F020CBF0B49B0FBF2F1D0
:101B0800C3F3881308BFB1FBF2F101FB03F2054BE5
:101B18005B68C3F3014301335B00B2FBF3F3D8E71F
:101B2800044BD6E7003802400024F400982F000840
:101B38000400002040787D011223036000487047AC
:101B4800080000200A230360004870471C0000209A
:101B580043230360004870472800002004230360E3
:101B6800004870476C00002090F90030002B08DB1B
:101B78000D4B4FF400221A611A6842F004421A60B1
:101B8800704700B5094B91B018689A8800909B7906
:101B9800ADF804206946002007228DF8063000F0D1
:101BA80013FA11B05DF804FB000900508405002009
:101BB80008B5012000F094F9012000F0A9F90220ED
:101BC800BDE8084000F0A4B9704700BF2DE9F84F00
:101BD8004FF0A04402202369194EDFF878A0DFF8FF
:101BE8007890DFF87880174D43F486632361FEF719
:101BF80077FC154B154ADFF868E0DFF868C0144831
:101C08004FF00117DF6101214FF0400B00275961A8
:101C18001961C4F824B0C4F828A0C4F80491C4F821
:101C28000881C4F80CC1C3F800E037601561136877
:101C380043F004431360BDE8F84FFEF795BE00BFBC
:101C4800000900504000086000080050000B0050D8
:101C580090340008000140000002400000034000EA
:101C68000300200200044000054B5A68920703D580
:101C78005A6822F002025A600248FEF775BE00BF99
:101C8800000800509C340008164B5A6B10B542F0FF
:101C980080024FF0A0445A635B6B236943F003034F
:101CA80023610A20FEF71CFCA3680F4A43F00103D6
:101CB800A360E36843F0804343F4C053E360A36B3D
:101CC80043F40413A363A36943F4832343F0100389
:101CD80008208021A361906082F84313BDE810407A
:101CE800FFF7C2BF0038024000E100E0034A0448A1
:101CF800536843F002035360FEF736BE00080050F5
:101D0800AC340008054A136823F4FE6343EA001361
:101D1800014613600248FEF727BE00BF00080050C6
:101D2800C0340008C10702D5064B9A689A6082073A
:101D380002D5054B9A689A60430702D5034B9A6807
:101D48009A6070470009005020090050400900506F
:101D5800144B1868002824DDF0B5134BDFF850E069
:101D6800124CBEF80050BEF802101844002608E0D5
:101D78000D2A0AD0FF2902D84F1C6254B9B28342F7
:101D88000AD013F8012B0A2AF2D1834266544FF085
:101D980001054FF00001F4D1AEF80210AEF8005082
:101DA800F0BD7047FC0B0020BC0B0020000C00208D
:101DB8007C05002010B54FF0A044236A1A0F16D1F5
:101DC800C3F34342062A03F00F0419D0042A0AD0A9
:101DD800022A2DD1012CC3F30A133AD0254A1278CE
:101DE800212A19D010BD244B01225A6010BDFEF7DC
:101DF800F3FA236AC3F34342062A03F00F04E5D13A
:101E08001E4B1C4918681E4A086018681368486009
:101E180043F08063136010BD072BE3D104F5A024C1
:101E280001342403144B22689A602268DA6010BDDA
:101E3800032AD7D1012C19D0640104F1A044114A16
:101E4800C4F8102BD4F8003B43F00443C4F8003B1B
:101E580010BD0D4A1360002BC4D00C4A0C48016811
:101E680042F8041B043B002BF9DC10BDFFF770FFA0
:101E7800E2E700BFB40B00207C05002000100050F2
:101E8800000B005040000800FC0B0020BC0B002099
:101E98000020005038B54FF0A0435C695C61E10454
:101EA80017D4E20608D4630300D438BD0B4B9869F5
:101EB800BDE83840FFF736BF4FF0A045AB6923F0C7
:101EC8001003AB61FFF776FFAB6943F01003AB611A
:101ED800E9E7FFF77BFE00F0BDFBE2E700080050F2
:101EE800400100F1A040084AC0F8102BD0F8002BA0
:101EF800064B1343C0F8003BD0F8003B43F00443C3
:101F0800C0F8003B704700BF400008004080081040
:101F1800420102F1A0420D4BD2F80019022843EA0F
:101F2800010343EA805314BF4FF400214FF44021CA
:101F380010B40B43064CC2F80039E2690123834010
:101F48001343E3615DF8044B704700BF40800018FD
:101F58000008005000F003035B01020603F1A043F0
:101F680006D4D3F8002B42F40012C3F8002B7047B4
:101F7800D3F8002942F40012C3F80029704700BFC3
:101F880000F003035B01020603F1A04306D4D3F873
:101F9800002B22F40012C3F8002B7047D3F8002955
:101FA80022F40012C3F80029704700BF00F00303B1
:101FB8005B0103F1A04302064CBFD3F80009D3F834
:101FC800000B00F400107047402A2DE9F84F9046A6
:101FD80081468B465BDD460100F5A02506F1A0464B
:101FE8000135DFF8B0A006F510662D030C4617463C
:101FF800C6F810A0336843F00443336023464034E6
:1020080053F8042B2A60A342FAD133691903A7F1C4
:10201800400705D50A20FEF763FA33691A03F9D495
:10202800402FE5DCA8F141029209A8F14008531CB1
:10203800A8EB82189B01B8F1000F26DD4FEA491280
:1020480002F1A04202F5106448F400212161D2F89F
:10205800000909F5A02108F103089B44013128F083
:10206800030340F0044009035B44C2F800095BF82D
:10207800042B0A609B45FAD123691B0305D50A2066
:10208800FEF72EFA23691B03F9D4BDE8F88F002365
:10209800D1E700BF4000080010B50D4C0D48FEF711
:1020A80063FC21780C48FEF75FFC61780B48FEF76B
:1020B8005BFC61880A48FEF757FCA1880948FEF7CF
:1020C80053FCE1880848BDE81040FEF74DBC00BF4E
:1020D800B40B0020D8340008E0340008EC340008C1
:1020E800F83400080435000810350008034B186858
:1020F800A0F10200B0FA80F040097047000D0020FE
:1021080008B5174B1A68022A1BD10279012A0FD881
:10211800027802F06002202A1ED0C38883B9114BCE
:102128004FF400221A611A6842F004421A6008BD8E
:102138008020FFF70FFF0020BDE80840FFF70ABF27
:1021480008BD8020FFF706FF0020FFF703FF0648C1
:10215800BDE80840FEF708BCBDE80840FFF704BD2D
:10216800000D0020000900501835000830B504465D
:1021780080886378012B83B0C5B23BD026D3032B6C
:102188000BD08020FFF7E6FE0020FFF7E3FE617822
:102198002F48FEF7E9FB03B030BD2E4B1B68012B1F
:1021A80037D0022B41D1638833B9430604D0E38882
:1021B80013B92846FFF7CEFE274B4FF400221A61C9
:1021C8001A6842F004421A6003B030BD214B1B6804
:1021D800012B27D0022B28D101AC2846FFF7E6FEB9
:1021E80058B301230193214600200222FFF7ECFE99
:1021F80003B030BD174B1B68012B0AD0022B14D13A
:102208006388002BC7D14106D6D02846FFF7B8FE11
:10221800D2E7420609D02846FFF79CFE8020FFF748
:1022280099FEB8E710F07F0309D08020FFF792FEEF
:102238000020FFF78FFE03B030BD0190D3E702AC5A
:10224800184644F8043D02222146FFF7BDFEC4E7C4
:1022580038350008000D00200009005010B54288EC
:10226800130A013B82B00446052B27D8DFE803F0A8
:10227800201A1326260301A8FFF764FC019A0146D9
:10228800E3889342A8BF13461A4600200193FFF73C
:102298009BFE02B010BDD2B2032A28D8DFE802F0B4
:1022A800211E1B1B01A8FFF753FC019A0146E7E713
:1022B80001A8FFF741FC019A0146E1E78020FFF7FA
:1022C80049FE0020FFF746FE61880C48090AFEF720
:1022D8004BFB02B010BD0A490A78D1E709490A78D0
:1022E800CEE701A8FFF73AFC019A0146C8E780202B
:1022F800FFF730FE0020FFF72DFECAE76035000823
:10230800700000208000002030B5284C65882B0A1A
:1023180085B0013B8DE80300052B27D8DFE803F0E3
:10232800201A1326260303A8FFF70CFC039A01467C
:10233800E3889342A8BF13461A4600200393FFF789
:1023480043FE05B030BDEDB2032D28D8DFE805F017
:10235800211E1B1B03A8FFF7FBFB039A0146E7E7B7
:1023680003A8FFF7E9FB039A0146E1E78020FFF79E
:10237800F1FD0020FFF7EEFD61880D48090AFEF720
:10238800F3FA05B030BD0B490A78D1E70A490A7853
:10239800CEE703A8FFF7E2FB039A0146C8E78020CF
:1023A800FFF7D8FD0020FFF7D5FDCAE7B40B0020E2
:1023B80084350008700000208000002010B54368B4
:1023C8009BB90E4C40882368022B0ED000F07F008A
:1023D800FFF798FC0A4B4FF400221A611A68012192
:1023E80042F004421A60216010BD8020FFF7B2FD60
:1023F8000020BDE81040FFF7ADBD00BF000D002074
:102408000009005010B58078012816D81649174CD5
:102418000B68C2B2012B227017D0022B0DD1E8B97C
:10242800134A012310700B60124B4FF400221A61FB
:102438001A6842F004421A6010BD8020FFF78AFD36
:102448000020BDE81040FFF785BD0028ECD0084CFF
:10245800022322700B60FFF7ABFBE5E7044B19780A
:10246800914218BF1A70DFE7000D00209405002084
:10247800080F00200009005010B5C388012B0CD1AB
:102488000E4A1268012A10D0022A06D11A460020E4
:102498000B49BDE81040FFF797BD8020FFF75AFDB4
:1024A8000020BDE81040FFF755BD064B00241C7006
:1024B80020461946BDE81040FFF786BD000D0020F4
:1024C800080F0020040D002008B50E4B1B68013BC7
:1024D800012B0ED80C4A0D4B1268012119800AB144
:1024E80003221A80002009490222BDE80840FFF7AC
:1024F8006BBD8020FFF72EFD0020BDE80840FFF7E8
:1025080029BD00BF000D00200C0F0020060D002083
:102518004388012B09D10549054A0B604FF4002374
:102528001361136843F00443136070470C0F0020D5
:102538000009005008B50E4B1B68013B012B03D85E
:102548004388012B08D008BD8020FFF703FD002039
:10255800BDE80840FFF7FEBC064B07494FF40022D0
:10256800002008601A611A6842F004421A6008BD27
:10257800000D0020000900500C0F00204378092BA3
:1025880016D8DFE803F00709150B150F1115130509
:10259800FFF738BFFFF798BFFFF7CCBF4388012B81
:1025A80014D07047FFF70ABFFFF758BEFFF764BFA4
:1025B80010B504468020FFF7CDFC0020FFF7CAFCC9
:1025C80061780848BDE81040FEF7CEB90649074AC9
:1025D8000B604FF400231361136843F00443136046
:1025E800704700BFA83500080C0F002000090050F4
:1025F80010B5047804F01F04012C16D011D3022C56
:1026080003D1BDE81040FFF7B1BD8020FFF7A2FC61
:102618000020FFF79FFC21460648BDE81040FEF762
:10262800A3B9BDE81040FFF7A9BFBDE81040FFF708
:1026380067BD00BFD035000810B5044C236823B12E
:102648000348FFF7D5FF0023236010BD8005002055
:10265800B40B0020014B00221A607047000D0020C7
:102668000A4601460020FFF7AFBC00BF044B4FF4F9
:1026780000221A611A6842F004421A60704700BFCB
:102688000009005008B58020FFF764FC0020BDE871
:102698000840FFF75FBC00BF10F0800F0CBF01239C
:1026A800002300F0070003EB4000704738B50D46E3
:1026B800044600F0D6FA01304300084A2B6003F5BF
:1026C80040731380237833B1204622F8023F10F874
:1026D800013F002BF9D1014838BD00BF080D00208B
:1026E8002DE9F04310EE104AC4F30F4101F4FF4105
:1026F800B1F5FF4FC4F31603C4F3C7527AD0A2F161
:10270800960111F11F0F43F4000320DB0029BABF23
:10271800494223FA01F603FA01F6763A1BD41F2A36
:1027280071DC002803FA02F31ADB072819DD404898
:10273800A3FB000100280A4676DB3E490020531D12
:10274800C8730A224FF0060EB3FBF2F21EE0763A87
:102758004FF00006E3D55242002823FA02F3E4DAE8
:102768000020354A52F82020A2FB0389B8F1000F57
:102778004A465ADB531D314A2E49A2FB0323002542
:10278800DA08CD7300284CD000F1FF3E2C48DFF862
:10279800ACC0CEF10E0705460F44ACFB0231C908A8
:1027A80001EB8103A2EB4302303205F8012DBD4253
:1027B8000A46F2D16FEA0E0108442E2300F8013CC4
:1027C80001381E4D9319A5FB0312D20802EB8201B2
:1027D800A3EB4103303300F8013D1346002AF2D140
:1027E800002C05DA2D2300F8013C0138BDE8F08300
:1027F800BDE8F0837BB9134B134830EA240028BFA7
:102808001846BDE8F083002808DB07284FF00003CE
:10281800A7DD1A4691E70D48BDE8F083002002467F
:10282800A8E701F10F00CCE70720931DA3E700BF3D
:1028380000E1F50598050020B02F0008CDCCCCCCE0
:10284800A705002060310008683100085C310008E5
:102858002DE9F04F8DB089460390934604464FF01A
:10286800200A99F8002009F1010352B1252A0ED057
:102878009946227099F80020013409F10103002AD1
:10288800F4D1039B2270E01A0DB0BDE8F08F99F8DF
:102898000120302A18BF4FF0000E05D113F8012F80
:1028A800302AFBD04FF0010EA2F13001C8B209283E
:1028B8004FF000060AD813F8012F06EB860601EB45
:1028C8004606A2F13001C8B20928F4D92E2A23D02D
:1028D8001A784FF0FF3502F0FB01682904BF5A78D7
:1028E8000133A2F1580103F101090B46202B00F234
:1028F800E480DFE803F08EE2E2E2E2E2E2E2E2E232
:10290800E28228D3D3D3E2BBE2E2E2E2E2E2ACE243
:10291800E29DE228E2E28E005978A1F13002D0B2BD
:10292800092803F1010300F2E480002513F8011FD0
:1029380005EB850502EB4505A1F13002D0B2092867
:10294800F4D90A46C7E70BF10403642A02934FF04F
:102958000A01DBF8003065D0DFF8B48100228DF879
:102968002F20002B00F0C280DFF8A8C10DF12F073F
:10297800B3FBF1F201FB123013461CF8002007F8F4
:10298800012D002BF4D16B1C00F09A80DDF808B003
:102998006FF00041384600F06CF92D1A029040465D
:1029A80000F05FF9029B98F8002025EAE575301AD7
:1029B800E918401A2AB104F8012B18F8012F002A47
:1029C800F9D1002D00F088802544302204F8012B2D
:1029D800AC42FBD1002B08DD6A1EFC1817F8011B5E
:1029E80002F8011FA742F9D11D44002876DD2C18F2
:1029F80005F801ABA542FBD133E70CAFDBF800309B
:102A080007F8203D0BF1040B01210025DFF80081B8
:102A1800C0E70BF10403642A02934FF01001DBF8BE
:102A2800003099D1002B97DA5B42DFF8EC8095E70C
:102A38006A1C0BF10403DBF80070DFF8D48019BFBF
:102A480029469B469B466FF000410025A2E70022DD
:102A5800DBF800308DF82F200BF104020292002BD6
:102A68004AD0DFF8AC80102108257DE7DBF800307C
:102A78002649DFF89C80C3F307401A0E8DE805004D
:102A88000BF1040CDAB204A8C3F30723E3460746A4
:102A98000025FDF7F5FD6FF000417BE728469BED2B
:102AA800000ADFF86C80FFF71BFE0BF10405AB464C
:102AB80007466FF0004100256CE722700134D0E62C
:102AC800BEF1000F0CD0404600F0CBF8DDF808B09E
:102AD800351A6FF000415DE725467BE72C46C0E6D6
:102AE800DDF808B06FF00041012553E70DF12F071D
:102AF80049E70A460025EEE693466FF000410825AF
:102B08000DF12F07DFF8088044E700BF7431000893
:102B18003830000880310008703100080FB410B553
:102B280082B004AA094C52F8041B01922046FFF710
:102B38008FFE214602460120FFF746FA204600F0A4
:102B480090F802B0BDE8104004B07047A805002016
:102B5800B0B10EB400B582B004AB1A4603990A4866
:102B68000193FFF775FE084902460120FFF72CFA8A
:102B7800054800F076F802B05DF804EB03B0704742
:102B88004FF0FF30704700BFA8060020FC36000851
:102B980000000020FC000020FC000020100F002096
:102BA80010F8012B11F8013B012A28BF9A42F7D0EF
:102BB800D01A704708B5FDF725FBFDF7EDFBFDF7CB
:102BC80061FC4FF4E130FEF7C9F84FF4E130FEF74D
:102BD8006BF9FDF7DDFAFEE7DFF830D0002103E0FE
:102BE8000B4B5B58435004310A480B4B42189A422E
:102BF800F6D30A4A02E0002342F8043B084B9A4203
:102C0800F9D3FEF735FFFFF7D5FF70470000022024
:102C1800FC36000800000020FC000020FC0000201A
:102C2800100F0020FEE700210A2200F0B5B80022AC
:102C38000A2300F02BB8C9B2034610F8012B1AB1C9
:102C48008A42F9D11846704700290CBF184600205F
:102C58007047034611F8012B03F8012B002AF9D11C
:102C68007047034613F8012B002AFBD1181A0138C4
:102C7800704710B5024601448A42134603D01C78B7
:102C88000132002CF8D1181A10BD00002DE9F047C8
:102C9800404CD4F800900F463D4615F801EB09EB7F
:102CA8000E04667806F0080404F0FF060CB12F46FF
:102CB800F2E774462D2C03D1BD1C7C78012603E075
:102CC8002B2C04BF7C78BD1C13B1102B0AD15AE001
:102CD800302C56D12C7804F0DF04582C4CD16C7869
:102CE80010230235002E14BF4FF000486FF0004843
:102CF8000027B8FBF3FABE4603FB1A8809EB040C5D
:102D08009CF801C01CF0040F01D0303C0BE01CF013
:102D1800030C1BD0BCF1010F0CBF4FF0370C4FF068
:102D2800570CCCEB04049C4210DAB7F1FF3F0AD0F1
:102D3800D64506D801D1444503DC03FB0E4E0127D6
:102D480001E04FF0FF3715F8014BD7E77C1C7346BD
:102D58000AD1002E4FF0220114BF4FF000436FF04C
:102D6800004301602AB911E00EB1CEF100036AB147
:102D780007B1691E116009E03024002BB2D1082385
:102D8800B0E70A23AEE7302CACD1A3E71846BDE87C
:102D9800F08700BF9400002030B51346044A05466A
:102DA8000C46106829462246BDE83040FFF76EBF42
:102DB800F80000201000000000000000017A520016
:102DC800027C0E011B0C0D00100000001800000012
:0C2DD800D0FDFFFF140000000000000010
:102DE40004000400860386030500550044004400E3
:102DF4000E008E038E030E050E050E000E0000005D
:102E040040004000000040004000400040004000FE
:102E1400000000004000400040004000400040002E
:102E2400000000000000000000000000000000009E
:102E3400000000000000000000004000010040000D
:102E44000A00000064000000E803000010270000EE
:102E5400A086010040420F008096980000E1F5052D
:102E6400EEE36C00EA1C08022524AA032EAD5405E7
:102E74003DEC04074C27A6081FB14F0AB3CE010C42
:102E84006042A20DF8D24A0FB687FD10D2749E128A
:102E9400061246148896F71515BE9A179A6D4119AD
:102EA40001C9F11AA01D971C08E53C1E4A1EEC1F1F
:102EB400EF929321AA7738239595E6247D1D9026D9
:102EC400DC243428132EE129CCBC8C2BFFEB2F2DD2
:102ED400FFE6DB2E5F70893077CC2B3295BFD6337B
:102EE400BD378635ACC5273717B7D1386F12833A4B
:102EF4000AD7233CCDCCCC3D0000803F00002041CC
:102F04000000C84200007A4400401C460050C347F9
:102F1400002474498096184B20BCBE4C286B6E4E1E
:102F2400F9021550B743BA51A5D46853E784115533
:102F340021E6B556A95F6358CA1B0E5ABCA2B15B01
:102F44006B0B5E5D23C70A5FEC78AD6027D75862D0
:102F5400788607641668A9651CC2536751590469C9
:102F6400A66FA56A8FCB4E6C393F016E088FA16F97
:102F7400CAF249717C6FFC72AEC59D7419374576EF
:102F8400DF84F6770C139A79CE97407BC2BDF07C30
:102F94009976967E00000000000000000102030400
:102FA4000607080900000000010203040A000000EB
:102FB40064000000E803000010270000A086010060
:102FC40040420F008096980000E1F50573697A6528
:102FD4006F6628666C6F617429203D2025640A00A1
:102FE40073697A656F6628646F75626C6529203D24
:102FF4002025640A0000000064635F6F6C643A205B
:1030040025322E33662064635F6E65773A2025325D
:103014002E336620646966663A2025332E32660AAA
:1030240000000000636C6F636B2073657474696ED9
:1030340067733A0A00000000504C4C4D20202020B9
:10304400202020202020202020202020202020207C
:103054003A20256C640A0000504C4C4E202020205D
:10306400202020202020202020202020202020205C
:103074003A20256C640A0000504C4C50202020203B
:10308400202020202020202020202020202020203C
:103094003A20256C640A000048534920202020204F
:1030A400202020202020202020202020202020201C
:1030B4003A20256C640A0000535953434C4B20209A
:1030C40020202020202020202020202020202020FC
:1030D4003A20256C640A000050434C4B31202841AF
:1030E400504231205065726970686572616C2920A4
:1030F4003A20256C640A000050434C4B312028418F
:103104005042312054696D657229202020202020EE
:103114003A20256C640A000050434C4B322028416D
:10312400504232205065726970686572616C292062
:103134003A20256C640A000050434C4B322028414D
:103144005042322054696D657229202020202020AD
:103154003A20256C640A00004E614E002D496E66CB
:10316400000000002B496E66000000002D000000E6
:1031740025642E25642E25642E25640030313233D7
:10318400343536373839616263646566000000009F
:103194006174000041540A007273740041542B524C
:1031A40045424F4F540A00006872737400000000D7
:1031B400646973630000000041542B444953430A7B
:1031C400000000007665720041542B5645520A00F7
:1031D4006164720041542B414444520A00000000CF
:1031E4006E616D650000000041542B4E414D450A4F
:1031F40000000000626175640000000041542B422D
:103204004155440A000000007363616E0000000031
:1032140041542B5343414E3D312C34380A000000B5
:10322400726F6C650000000041542B524F4C450AEC
:10323400000000007374617400000000636F6E008E
:103244004441433846394330454542390000000083
:103254006C6F67007100000068656C70000000000E
:1032640068656C7020202020202020202020202031
:1032740020203A20746869732068656C700A0D0018
:1032840076657273696F6E20202020202020202014
:1032940020203A2076657273696F6E20696E666FBE
:1032A400726D6174696F6E0A0D0000007665727349
:1032B400696F6E00232D20424C452D555342202D1D
:1032C4002076312E30202D204D617220313920326C
:1032D400303236202D207262202D0A000A3E000072
:1032E4000D3E000025730A0D000000000A0D0000C9
:1032F4002D2000002D2D2000256300002E0000004D
:1033040046363445454544353946443200000000CC
:10331400584D4F49535400002325730A0D000000F3
:10332400424C453A20686172647761726520726527
:103334007365740A0000000041542B4C4543434F0D
:103344004E4E3D2573310A00424C453A20636F6E60
:103354006E6563742025730A00000000236E657790
:1033640020646174612066726F6D205065726970AB
:10337400686572616C202564207265636569766591
:10338400643A2025642F25640A0000001B5B333156
:103394006D236E6F206E65772064617461206672A0
:1033A4006F6D205065726970686572616C20256468
:1033B4002072656365697665640A1B5B33306D0052
:1033C4001B5B33316D236E6F206E657720646174EF
:1033D400612066726F6D20506572697068657261F4
:1033E4006C202564207265636569766564202D20F0
:1033F4007265636F6E6E6563742025642F25640A9D
:103404001B5B33306D000000424C453A2064697305
:10341400636F6E6E6563740A000000004C494E4B86
:103424003A20000025642000257320256C64205672
:103434004444413A2025312E32662056736F6C3A4B
:103444002025312E326620566261743A2025312EB1
:103454003266204E54433A2025322E3166202532DE
:103464002E31662025322E31662025322E316620FB
:10347400534F494C3A2025332E31662025332E31C3
:10348400662025332E316620000000003E5553424D
:103494002072657365740A003E55534220636F6E53
:1034A4006E6563740A0000003E55534220646973DC
:1034B400636F6E6E6563740A000000003E446576B7
:1034C40069636520616464726573733A2025640AD4
:1034D40000000000535455503A2000007420307806
:1034E4002530327820000000722030782530327880
:1034F4002000000076203078253034782000000049
:103504006920307825303478200000006C20256450
:103514000A0000003E4552523A2077726F6E6720CF
:10352400696E746572666163652072657175657331
:10353400740A00003E4552523A20756E6B6E6F77E6
:103544006E20656E64706F696E7420726571756546
:1035540073743A203078253032780A003E4552524E
:103564003A20756E6B6E6F776E2064657363726953
:1035740070746F723A203078253032780A00000077
:103584003E4552524F523A2067657420756E6B6EF9
:103594006F776E2064657363726970746F723A201A
:1035A40025640A003E4552523A20756E6B6E6F7761
:1035B4006E206465766963652072657175657374E0
:1035C4003A203078253032780A0000003E455252C5
:1035D4003A20756E6B6E6F776E20726571756573C8
:1035E4007420747970653A203078253032780A0076
:1035F40000202020202020202020282828282820BF
:1036040020202020202020202020202020202020B6
:10361400208810101010101010101010101010101E
:10362400100404040404040404040410101010100E
:1036340010104141414141410101010101010101D8
:10364400010101010101010101010101101010102A
:1036540010104242424242420202020202020202AA
:1036640002020202020202020202020210101010FE
:103674002000000000000000000000000000000026
:103684000000000000000000000000000000000036
:103694000000000000000000000000000000000026
:1036A4000000000000000000000000000000000016
:1036B4000000000000000000000000000000000006
:1036C40000000000000000000000000000000000F6
:1036D40000000000000000000000000000000000E6
:1036E40000000000000000000000000000000000D6
:0836F4000043000098000020D3
:1036FC00000020410024F4001201000202020140EB
:10370C008C19554200000102030100000A06000258
:10371C00000000400100000009023E00020100C050
:10372C00320904000001020201000524001001040A
:10373C002402060524060001070582030800FF0980
:10374C00040100020A000001070501024000000705
:10375C000581024000000000000000000403090481
:10376C00100342004C0045002D0055005300420050
:10377C0014034300410044005700650061007300CE
:10378C0065006C00F435000800000000000000002B
:10379C00000000000000000000000000000000001D
:1037AC000000000000000000F536000800000000DA
:1037BC0000000000000000000000000000000000FD
:1037CC0000000000000000000000000000000000ED
:1037DC0000000000000000000000000000000000DD
:0C37EC0000000000000000009800002019
:00000001FF
